:020000040808EA
:10000000000008085C1A0808000006000A00050144
:080010000402E60C00000000F0
:040018006817080855
:10001C0009480A4908B5884205D0094A824202D0EB
:10002C00121A01F0E7FA0748074A0021121A01F0E8
:10003C00EFFA064808BD00BF00000020B4190808FC
:10004C008000002080000020C1050020C105002098
:10005C0070B500F049FF0025054E064CA41BA40802
:10006C00AC4200D170BD56F8043B98470135F7E718
:10007C0090190808B019080800F022BA08B500F069
:10008C0047FABDE8084000F0E7BE00F0F3BD00F011
:10009C00F1BD00F0F7BD0078B0FA80F04009704770
:1000AC0001230370704700220271C28080220281FA
:1000BC007047F8B5054610200E461746FFF7E5FFCA
:1000CC00044618B13A46314600F0B8FB20462C6085
:1000DC000121BDE8F84000F0CDBB130A07B5C3728F
:1000EC00002381720273CDE9003300F10A01012370
:1000FC000322006800F0CDFB03B05DF804FB002A7E
:10010C0014BF00224FF4807210B504460A43C18814
:10011C000A4301890A4342F400420121FFF7DDFF43
:10012C0020464FF400420321FFF7D7FF2046BDE8DD
:10013C00104000220221FFF7D0BF37B5002305463F
:10014C0005F80A1FCDE90033012304461A46294657
:10015C00006800F09EFB012302222946206800F073
:10016C00E7FB608940BA80B203B030BD10B50446DD
:10017C000021FFF7E2FF237918410BB900B210BD43
:10018C0080B2B0F5006F28BF40F47040F6E7012153
:10019C0008B5FFF7D2FFC0F3C03008BD032910B576
:1001AC0004460FD8084B002233F81110FFF7A7FFB5
:1001BC002046FFF7ECFF0028FAD02046BDE810409F
:1001CC00FFF7D4BF002010BD7C170808002330B502
:1001DC000E4C0133DDB28D4204D214F8015B2A447B
:1001EC0092B2F6E7022903D9830704BF013292B217
:1001FC0000EBC001C31C00EBC10000EB8000C3F39B
:10020C008D0301381844104480B230BD841708089F
:10021C0003784078303BDBB20A2B28BF0023303800
:10022C0003EB830300EB4300C0B270471FB5002300
:10023C00CDE900338DF80C108DF80D20012302222E
:10024C0003A9006800F025FB05B05DF804FB002352
:10025C0010B586B0CDE90033012304461A468DF85B
:10026C000F1000680DF10F0100F013FB0123206843
:10027C001A4605A900F05CFB9DF8140006B010BDF1
:10028C0083709DF80030B1F5FA6FC3709DF804309F
:10029C0028BFA1F5FA6103719DF8083028BF89B217
:1002AC00017042704371704730B50D4685B00446FD
:1002BC000868496801AB03C32889A97A188099702A
:1002CC000DF10D00FFF7A4FF9DF804302070413BA9
:1002DC00122B16D8DFE803F032151546153015151C
:1002EC00150A151539444215151540009DF80530B1
:1002FC00612B1FD09DF806306E2B0CBF06230723F5
:10030C00637002A8FFF784FFA0701068516801ABFE
:10031C0003C301A8FFF77CFFE0700DF10700FFF7A6
:10032C0077FF20710DF10A00FFF772FF6071204614
:10033C0005B030BD0123E3E70223E1E79DF8063069
:10034C00722B0CBF04230823DAE79DF80630722BBE
:10035C000CBF03230523D3E70923D1E70A23CFE7F7
:10036C000B23CDE70C23CBE708B5827841780078D6
:10037C00FFF72CFF07230630B0FBF3F3C3EBC303EB
:10038C00C01AC0B208BD70B50446051D00F1A40624
:10039C0028461435FFF787FEB542F9D14FF4A47205
:1003AC00A2824FF4127222854FF45272A287492214
:1003BC00A4F8502040F249124823A4F8642040F2DB
:1003CC0049222380A4F87820002340F249322046A9
:1003DC00A370A37584F82A3084F83E3084F8523028
:1003EC0084F8663084F87A30A4F88C2084F88E3047
:1003FC0070BD2DE9F843044606464FF00108051D73
:10040C0000F1A40715F8049C01F0C8F8494602460F
:10041C002846FFF74EFE08B105F8028C1435BD4294
:10042C00F0D1A034B07810B11436A642FAD1BDE8A0
:10043C00F88308B5142359434218937833B10B1D34
:10044C0018445178FFF7AAFE80B208BD4FF6194048
:10045C00FBE738B50D46044600212846FFF7E9FFB7
:10046C002080642000F0ACFC01212846FFF7E1FF5E
:10047C006080642000F0A4FC02212846FFF7D9FF1D
:10048C00A080642000F09CFC642000F099FC042106
:10049C002846FFF7CEFFE080642000F091FC64203A
:1004AC0000F08EFC06212846FFF7C3FF2081642054
:1004BC0000F086FC642000F083FC204638BD000070
:1004CC001FB500F0FFFD4FF4165100F0E1FD01F0F7
:1004DC0065F80B4C0146204600F0E4F821466846CE
:1004EC0000F059F9074A084902A8FFF7DDFE20463B
:1004FC0002A900F0EFF80548FFF77BFF04B010BD30
:10050C00440100208F17080898170808A400002041
:10051C0070B58AB0494908A800F03DF99DF8202033
:10052C00474B02F5FA621A6046499DF8213046485D
:10053C000B609DF82210454C01609DF82300444D42
:10054C0020609DF82440434E2C609DF82550CDE949
:10055C000010CDE9024540494048356000F09AFB57
:10056C003F4904A8FFF775FF3E4C049B3E4D2360AA
:10057C00059B6360BDF81830238100F017FA2B68D7
:10058C00C01A41F28733984256D900F00FFA28600E
:10059C0000F098FD00F0D9FB00F094FD2F4900F01D
:1005AC00C9FB00F08FFD314900F0CBFB00F08AFD58
:1005BC000A22218800F0D5FB00F084FD2B4900F0C5
:1005CC00C0FB642000F0FCFB00F07CFD0A2261887B
:1005DC0000F0C7FB00F076FD244900F0B2FB64206C
:1005EC0000F0EEFB00F06EFD0A22A18800F0B9FBD2
:1005FC0000F068FD1D4900F0A4FB642000F0E0FB56
:10060C0000F060FD0A22E18800F0ABFB00F05AFD1F
:10061C00164900F096FB642000F0D2FB00F052FD6E
:10062C000A22218900F09DFB00F04CFD0F4900F0DF
:10063C0088FB642000F0C4FB0AB070BD44010020AC
:10064C00940000208400002080000020480100203D
:10065C005001002054010020A417080800000020BD
:10066C00A4000020980000204C010020C2170808AC
:10067C0010B50024084B094AC3E9004401209A60D4
:10068C0000F064FA2146012000F070FABDE8104039
:10069C000348FFF778BE00BF880000200000FFFF72
:1006AC00A400002070B5054600680E4610B110215C
:1006BC00FFF7EFFC1020FFF7E8FC044618B13246B8
:1006CC00682100F0BBF820462C600121BDE8704089
:1006DC0000F0D0B8F0B50A244B790027B3FBF4F244
:1006EC0002EB420285B003EB4203CDE902778DF8B1
:1006FC0009300B790646B3FBF4F202EB420203EB32
:10070C0042038DF80A30CB780846B3FBF4F202EBC7
:10071C00420203EB42030D468DF80B30FFF724FE2B
:10072C00031E08BF0723B3FBF4F000EB400003EB00
:10073C0040038DF80C30AB78CDE90077B3FBF4F2C5
:10074C0002EB420203EB42038DF80D306B783068FC
:10075C00B3FBF4F202EB420203EB42038DF80E30D2
:10076C002B780822B3FBF4F404EB44040DEB0201E8
:10077C0003EB440401238DF80F4000F08AF80F219D
:10078C003046FFF764FD0F2100F07F023046FFF783
:10079C004DFD05B0F0BD0023F0B587B001938DF889
:1007AC001030072305460846009304AB1946012276
:1007BC00006800F0DCF89DF810409DF8143004F04F
:1007CC007F07C4F30214A4EB84049DF8116007EBBB
:1007DC004404E4B29DF816109DF8120002944FEAFE
:1007EC00131C34099DF81520ACEB8C0CA4EB840481
:1007FC0003EB4C0306EB44064FEA111C040902F010
:10080C007F0EACEB8C0CA4EB8404C2F3021201EB54
:10081C004C0100EB4400A2EB82020EEB4202F6B25A
:10082C00C0B2C9B2009001962846DBB2D2B201F533
:10083C00FA61FFF725FD284607B0F0BD42600022A3
:10084C00027220220170C260704710B5037A044610
:10085C0053B12178606800F0BAFD606800F0BFFD0C
:10086C00B0FA80F0400910BD012100F003F8002817
:10087C00EFD1F8E738B5044640680D4600F078FD36
:10088C000120207225B12046BDE83840FFF7DDBFBE
:10089C0038BD2DE9F8431F46DDE90896C3681546B7
:1008AC0032449A420446884602D90020BDE8F883B7
:1008BC000178406800F08BFD7EB960682A460368B9
:1008CC004146DB6898478542EFD13946606800F0B5
:1008DC0082FDB0FA80F04009E8E7B9F1000FECD0E6
:1008EC006068324603684946DB6898478642DCD12B
:1008FC00E3E72DE9F041154604460E46D2B20178E5
:10090C00406800F052FD85420DD100271FFA87F890
:10091C00A84507F1010709D2606803685B6998472D
:10092C0006F80800F2E70020BDE8F0810120FBE7A3
:10093C002DE9F84307468846164699460025B542E8
:10094C0012D2FA68741B944228BF1446331BAB4274
:10095C0094BF4B4600232246384608EB0501FFF7AF
:10096C00C8FF10B12544EAE70120BDE8F88373B550
:10097C001D460023CDE900339DF81C300446069E2D
:10098C00FFF787FF40B1012332462946204602B0CB
:10099C00BDE87040FFF7CCBF02B070BD08B5024B8C
:1009AC001B685B68019308BD9C01040808B5024BE9
:1009BC001B685B69019308BD9C01040808B5024BD8
:1009CC001B685B6A019308BDC401040808B5024B9F
:1009DC001B689B6A019308BDC401040808B5024B4F
:1009EC001B68DB6A019308BDC401040808B5024BFF
:1009FC001B681B6B019308BDC401040808B5024BAE
:100A0C001B685B6B019308BDC401040808B5024B5D
:100A1C001B681B6C019308BDC401040808B5024B8C
:100A2C001B681B6E019308BDC401040808B5024B7A
:100A3C001B68DB68019308BDAC01040808B5024BC8
:100A4C001B689B69019308BDAC01040808B5024BF7
:100A5C001B68DB69019308BDAC01040808B5024BA7
:100A6C001B681B6A019308BDAC01040808B5024B56
:100A7C001B685B6A019308BDAC01040808B5024B06
:100A8C001B689B6A019308BDAC01040808B5024BB6
:100A9C001B68DB6A019308BDAC01040808B5024B66
:100AAC001B681B6B019308BDAC01040808B5024B15
:100ABC001B681B6C019308BDAC01040808B5024B04
:100ACC001B681B6D019308BDAC01040808B5024BF3
:100ADC001B68DB6B019308BD2000060808B5024BB0
:100AEC001B681B68019308BD1C00060808B5024B67
:100AFC001B685B68019308BD1C00060808B5024B17
:100B0C001B681B69019308BD1C00060808B5024B45
:100B1C001B685B69019308BD1C00060808B5024BF5
:100B2C001B689B69019308BD1C00060808B5024BA5
:100B3C001B68DB69019308BD1C00060808B5024B55
:100B4C001B681B6A019308BD1C00060808B5024B04
:100B5C001B685B68019308BDA401040808B5024B2F
:100B6C001B685B69019308BDA401040808B5024B1E
:100B7C001B68DB6A019308BDA401040808B5034B8C
:100B8C001B68D3F89030019308BD0000A401040841
:100B9C0008B5034B1B68D3F89C30019308BD0000CB
:100BAC00A401040808B5024B1B685B68019308BDDF
:100BBC00C801040808B5024B1B689B68019308BD6B
:100BCC00C801040808B5024B1B68DB68019308BD1B
:100BDC00C801040808B5024B1B681B69019308BDCA
:100BEC00C801040808B5024B1B685B69019308BD7A
:100BFC00C801040808B5024B1B689B69019308BD2A
:100C0C00C801040808B5024B1B68DB69019308BDD9
:100C1C00C801040808B5024B1B681B6A019308BD88
:100C2C00C801040808B5024B1B681B6B019308BD77
:100C3C00C801040808B5024B1B685B6B019308BD27
:100C4C00C801040808B5024B1B681B6C019308BD56
:100C5C00C801040808B5024B1B685B6C019308BD06
:100C6C00C801040808B5024B1B68DB6B019308BD77
:100C7C00CC01040808B5024B1B681B68019308BD26
:100C8C00A001040808B5024B1B685B68019308BD02
:100C9C00A001040808B5024B1B68DB68019308BD72
:100CAC00A001040808B5024B1B681B6C019308BD1E
:100CBC00A001040808B5024B1B685B6C019308BDCE
:100CCC00A001040802220020044B1A60044B054AC0
:100CDC00C3E900009A60FFF739BF00BF6401002030
:100CEC00580100200000FFFFF8B506460D46002411
:100CFC008F18BD420CD0336830469B6815F8011B29
:100D0C009847031E01DB1C44F3E7002C08BF1C466C
:100D1C002046F8BD70B505460C46084649B100F0B2
:100D2C00ADFC2B68024621462846BDE87040DB68C6
:100D3C00184770BD08B5FFF7EDFF08BD03689B6849
:100D4C00184708B5FFF7E6FF08BD38B50D21054675
:100D5C00FFF7F4FF0A2104462846FFF7EFFF204473
:100D6C0038BD0023012A98BF0A2230B58BB00C463F
:100D7C008DF8243009A92546B4FBF2F404FB125378
:100D8C00DBB2092B94BF30333733DBB2AA4201F804
:100D9C00013DF0D9FFF7BEFF0BB030BD014B024A4D
:100DAC001A60704768010020C4170808024B1A68C3
:100DBC00024B1A60704700BF140000206C01002029
:100DCC000021FFF7CBBE00000022014B9A60704758
:100DDC0070010020014B1860704700BF1800002004
:100DEC0008B5174B43B100F06DF903681B699847C0
:100DFC00002801DDAFF30080124B43B100F07EFB05
:100E0C0003681B699847002801DDAFF300800E4B87
:100E1C000BB1AFF300800D4B0BB1AFF300800C4B5B
:100E2C000BB1AFF300800B4B43B100F085F90368B5
:100E3C001B699847002801DDAFF3008008BD00BF97
:100E4C000000000000000000000000000000000096
:100E5C00000000000000000008B5FFF7C1FFFFF71D
:100E6C00A5FD014B186008BD0C0500200548064A7D
:100E7C0008B5121A054900F0BDFB054B054A1A606E
:100E8C0008BD00BF0040024004400240B0190808F1
:100E9C00004002401E1C279A002307B51A466FF02B
:100EAC0077010093FFF774FE03B05DF804FB0000BC
:100EBC0007B543880A2B08D0502B0BD1094B1B6864
:100ECC004BB103B05DF804EB1847FFF7E5FF03B037
:100EDC005DF804FB00231A466FF077010093FFF7CF
:100EEC0057FEF4E784010020002110B51148FFF7EC
:100EFC00E1FE114B1A68114B9A420CBF01220022E1
:100F0C000F4B1A7001D0FFF7B1FFFFF747FD0446F6
:100F1C0000F086FB0B4B13B12046AFF30080002191
:100F2C000848FFF79FFEBDE8104000210648FFF778
:100F3C0025BE00BFE10D0808004002401E1C279A88
:100F4C008001002000000000BD0E08087047F8B5B5
:100F5C000E46002400F10807051D17F8011D0A2292
:100F6C003046FFF7FEFEAF42044401D12046F8BDE7
:100F7C00002CF2D02E213046FFF7E0FE0444ECE7C3
:100F8C0010B504460821FFF784F8204610BD000078
:100F9C00024A026000224260704700BFEC1708084A
:100FAC00024A02600A684260704700BFEC170808EA
:100FBC00014AC0E900217047EC17080810B59DF8EC
:100FCC00084044EA032444EA024444EA01644460CD
:100FDC0010BD000013B5044C04609DF81040009443
:100FEC00FFF7ECFF02B010BDEC1708084174704716
:100FFC007047704708B50021007CFFF78FFD40EA71
:10100C00E07008BD08B50121007CFFF787FD40EAC0
:10101C00E07008BD08B5007CFFF778FD20EAE070B1
:10102C0008BD08B5007CFFF769FD20EAE07008BD3B
:10103C0038B50446007C0D46FFF768FD002801DC3E
:10104C00607C28B12946207CFFF770FD20EAE07017
:10105C0038BD007CFFF772BD10B504461421FFF7B4
:10106C0018F8204610BD704710B54FF47A7304463B
:10107C0008460021C4E90113044B207423600123AA
:10108C0011466374FFF72AFD204610BD00180808AE
:10109C000022007CFFF72ABD10B504461422002163
:1010AC0000F0B6FA054B20466360054BE36040F256
:1010BC00011323818123238210BD00BFB8010020BE
:1010CC00B902002030B50E4D87B001A8FFF7E4FF40
:1010DC002978BFF35B8F11F001040ED12846FEF77F
:1010EC00DAFF50B1214601AA0648FFF7BDFF28469A
:1010FC00FEF7D6FF044800F077FA024807B030BD7F
:10110C008801002090010020FD0F080810B504464E
:10111C001422002100F07CFA054B20466360054B3D
:10112C00E36040F2011323818123238210BD00BFB1
:10113C003A0300203B04002010B50E4C86B001A8E9
:10114C00FFF7E4FF2378BFF35B8FDB070ED4204659
:10115C00FEF7A1FF50B1012101AA0748FFF784FF58
:10116C002046FEF79DFF054800F03EFA024806B007
:10117C0010BD00BF8C010020A401002073100808D2
:10118C00002240681146FFF725BDF0B5002685B05A
:10119C00044610460F461546039600F06FFA7B681E
:1011AC0081B20096284603AAFFF790FC30B1314675
:1011BC002046FFF7FDFE204605B0F0BD204603A9F2
:1011CC00FFF7EEFEF7E7002240681146FFF722BD5D
:1011DC00002240681146FFF72DBD00224068FFF742
:1011EC0021BD0022406881F00101FFF70BBD0023F7
:1011FC0040681A461946FFF7FDBC002340681A46A2
:10120C001946FFF7EFBC002240681146FFF7D2BC2D
:10121C00002202214068FFF7D5BC002340681A4623
:10122C00FFF7C0BC10B52824074B224618460021F6
:10123C0000F0EEF94FF0FF3242600422034B0480C1
:10124C005A60034A1A6010BDC4040020BC0400207C
:10125C003018080870474174704708B5007CFFF7D8
:10126C00D5FB20EAE07008BD08B5007CFFF7AEFBAB
:10127C0020EAE07008BD08B5007CFFF7B7FB40EA38
:10128C00E07008BD08B5007CFFF7A8FB40EAE070F1
:10129C0008BD007CFFF7B2BB70B5467C04460D461A
:1012AC002EB12946207CBDE87040FFF787BB007C3F
:1012BC00FFF7ACFB0028F4DC304670BD10B50446DB
:1012CC001421FEF7E6FE204610BD000010B54FF4C9
:1012DC007A730446084611460022C4E90123044BE4
:1012EC002074236001236374FFF798FB204610BD24
:1012FC006C1808087047F8B5064615460C468F184A
:10130C00BC4206D0336830469B6814F8011B9847E2
:10131C00F6E72846F8BD0022007CFFF79FBB0021B2
:10132C00007CFFF7A3BB0021007CFFF7A7BB0021CB
:10133C00007CFFF7ABBB0021007CFFF7AFBB10B507
:10134C0004461421FEF7A5FE204610BD10B54FF43F
:10135C007A73044608460021C4E90113034B114675
:10136C0023602074FFF7A2FB204610BD9C180808D0
:10137C000023007C1A461946FFF758BB7FB50022A4
:10138C001423CDE90122ADF804300B78007C8DF8E4
:10139C0008304B680393CB6804930B7A01A905932F
:1013AC00FFF78CFB07B05DF804FB1FB5003B8DF815
:1013BC0000104FF0640118BF01230391694601929C
:1013CC008DF80830FFF7DAFF05B05DF804FB00225A
:1013DC00007CFFF733BB0022007CFFF737BB0121F9
:1013EC00FFF7F9BF002340681A46FFF7DBBB00226A
:1013FC0002214068FFF7E6BB002240681146FFF768
:10140C00D9BB002240681146FFF7E4BB00234068BB
:10141C001A461946FFF7E6BB002340681A461946E0
:10142C00FFF7E8BB00214068FFF70CBC00214068C7
:10143C00FFF710BC0022406881F00101FFF7E2BB0E
:10144C0000224068FFF7EEBB002240681146FFF710
:10145C00F1BB002240681146FFF7DCBB70B51546A6
:10146C00002686B0044604A8FFF792FD2846039692
:10147C0000F004F90A4B009681B25B68284603AA77
:10148C00FFF724FB30B131462046FFF791FD204693
:10149C0006B070BD204603A9FFF782FDF7E700BF39
:1014AC00BC040020024B034A1A6000225A607047A9
:1014BC00EC040020C41808087047000070B514250F
:1014CC0004462A46002100F0A3F825808025074E0B
:1014DC00284631462581258200F084F8314660602B
:1014EC00284600F07FF8E060204670BDF818080828
:1014FC0010B50446FFF7E2FF204610BD30B50E4D87
:10150C0087B02978BFF35B8F11F0010411D1284605
:10151C00FEF7C1FD68B101A8FFF7EAFF214601AA59
:10152C000648FFF7D3FE2846FEF7BAFD044800F044
:10153C005BF8024807B030BDF4040020F80400202A
:10154C00C5140808002307B51A461946009303482A
:10155C00FFF740FD03B05DF804FB00BF1005002051
:10156C007047000070B514232025084E0446036014
:10157C00314685600561284600F034F831466060DC
:10158C00284600F02FF8E060204670BDF8180808D7
:10159C0010B50446FFF7E6FF204610BD30B50E4DE2
:1015AC0087B02978BFF35B8F11F0010411D1284665
:1015BC00FEF771FD68B101A8FFF7EAFF214601AA09
:1015CC000648FFF7C3FE2846FEF76AFD044800F004
:1015DC000BF8024807B030BD180500201C05002090
:1015EC006D150808FEF753BD002301461A46184630
:1015FC0000F04CB80A44914200F1FF3300D170471F
:10160C0010B511F8014B914203F8014FF9D110BDFF
:10161C0003460244934200D1704703F8011BF9E7DB
:10162C0038B5104B04461D68AB6BB3B91820FFF7E7
:10163C0021FB0246A86320B942210B4B0B48FFF754
:10164C0031FB0B490B4BC0E900130B4B00218360A2
:10165C000B2383810120C2E904010022AB6B1C61C6
:10166C005A6138BD18000020F9180808101908082C
:10167C000E33CDAB34126DE6ECDE0500034613F8E9
:10168C00012B002AFBD1181A013870472DE9F843B9
:10169C00DFF8AC800646D8F800001F460D46914690
:1016AC0000F058F8274B1C6834B9274C1C60274BAA
:1016BC0013B11B68C4F8883063681F2B07DDD8F89A
:1016CC00000000F049F84FF0FF30BDE8F8835EB33E
:1016DC00D4F8880088B91E4B23B9D8F8000000F064
:1016EC003AF8F0E74FF48470FFF7C4FA0028F4D00E
:1016FC000023C0E94033C4F8880001226368022E3D
:10170C0040F8239002FA03F200EB8301D0F8003189
:10171C0043EA0203C0F80031C1F8807002BFD0F870
:10172C0004311343C0F804316368D8F800005A1C24
:10173C000233626044F8235000F00EF80020C4E736
:10174C007C000020BC0500203005002000000000BB
:10175C00810C080870477047704700001D0008088E
:10176C005D000808850008088900080800000000D2
:10177C0000400050006000701F1C1F1E1F1E1F1F0A
:10178C001E1F1E30383A30393A313000417567200F
:10179C002037203230323400253034752D2530324C
:1017AC00752D2530327554253032753A2530327509
:1017BC003A25303275002C006170700025592D25AA
:1017CC006D2D25645425483A254D3A2553257A002C
:1017DC0061736374696D6500000000000000000017
:1017EC005B0F0808590F08088D0F0808000000004F
:1017FC0000000000FF0F0808651008083D100808DD
:10180C00F50C08082F10080801100808111008081A
:10181C005F10080821100808F90F080800000000E4
:10182C0000000000271208081D12080813120808EF
:10183C008D11080807120808FB1108083114080854
:10184C0039140808EF110808E7110808DD11080819
:10185C00D3110808971108080000000000000000D0
:10186C0061120808C9120808A5120808F50C080826
:10187C007512080891120808831208089F120808AC
:10188C00631208086712080800000000000000003E
:10189C00011308084B13080823130808031308083E
:1018AC002B130808331308083B13080843130808C4
:1018BC000000000000000000F1130808FB130808EA
:1018CC00051408080F14080819140808251408082A
:1018DC003114080839140808411408084D14080874
:1018EC00551408085F140808691408080052454587
:1018FC004E54206D616C6C6F63207375636365650A
:10190C00646564002F6D6E742F776F726B737061EA
:10191C0063652F776F726B73706163652F474343F9
:10192C002D31302D706970656C696E652F6A656E2E
:10193C006B696E732D4743432D31302D7069706583
:10194C006C696E652D34385F32303230313132345F
:10195C005F313630363138303634312F7372632F75
:10196C006E65776C69622F6E65776C69622F6C6936
:10197C0062632F7374646C69622F72616E642E6380
:10198C00000000007D060808D10C0808A90D080805
:10199C00B90D0808D50D080831120808B11408084B
:0419AC0051150808C1
:0419B0000000000033
:1019B400595959592D4D4D2D44445468683A6D6D0B
:1019C4003A737300DC1708081C00002000000000B4
:1019D4000000000000000000000000000000000003
:1019E40000000000000000000000000000000000F3
:1019F40000000000000000000000000000000000E3
:101A040000000000000000000000000000000000D2
:101A140000000000000000000000000000000000C2
:101A2400000000000000000000000000C0050020CD
:101A3400FFFFFFFF00000102030405060708090A6F
:101A44000B0C0D0E0F101112131415161718191A6A
:081A54001B1C1D1E1F202800B1
:041A5C007856341272
:040000050808001CCB
:00000001FF
