:02000002B0004C
:1040000000400B00266C0B00000006000C000502AF
:084010000401D41700000000B8
:04401800E0660B0053
:10401C0010F8012B11F8013B012A28BF9A42F7D066
:10402C00D01A7047034613F8012B002AFBD1181A3B
:10403C000138704709480A49884208B505D0094A31
:10404C00824202D0121A02F0ADF90748074A002149
:10405C00121A02F0CFF9014808BD00BF10E6032088
:10406C00846B0B0084E6032084E60320FCE703202A
:10407C0070B5074E074C01F0D3FCA41BA408002517
:10408C00AC4200D170BD56F8043B98470135F7E7B8
:10409C003C6B0B00606B0B0000F048B808B500F0EF
:1040AC0053F8BDE8084001F073BC00F0C5BA00F04D
:1040BC00C3BA00F0C9BA000008B5034A03490C2082
:1040CC0000F0F6F9FEE700BF3D430B00F4660B0071
:1040DC000078B0FA80F040097047012303707047F4
:1040EC00704700000A4B10B50446036000F0D8FD81
:1040FC00214601F022F801F09FFD01F091FD2046D0
:10410C00044B40F8043B00F0A1FE204610BD00BF5C
:10411C002C670B0014670B0010B50446FFF7E2FF89
:10412C0020462421FFF7C5FF204610BD08B50549E0
:10413C0000231A464968062000F06EFABDE80840D4
:10414C0000F062BA44E70320704770B5D0E9005321
:10415C001426044606FB0356AE4204D0284600F053
:10416C0013FB1435F8E7206800F06EFA204670BD9A
:10417C008842F8B504460D46164616D9904215D21B
:10418C00A2F11406751AA1F114072C44B7421CD0E5
:10419C002CB13146204600F060FB337C2374304652
:1041AC0000F0F2FA143E143CF0E70ED0B5420CD0FD
:1041BC002CB12946204600F050FB2B7C237428465A
:1041CC0000F0E2FA14351434F0E7F8BD2DE9F041B3
:1041DC000023C0E9003383604F689F4204460E46BB
:1041EC0023DD4FF0140808FB07F000F025FA054614
:1041FC00D8B1D4E9001208FB0212FFF7B9FF20680E
:10420C0000F022FA2560A760D6E9007308FB03785A
:10421C00B84508D03946284600F039FB3B7C2B7456
:10422C0014371435F4E7736863602046BDE8F081F9
:10423C0070B500218CB0012000F05AF9214B224AB4
:10424C009A600024C3E90044022000F049F9CDE94A
:10425C000044029401F0F0FC1C4C0546694603A88E
:10426C00FFF7B4FF264603A906A8FFF7AFFF184BCC
:10427C0046F8043B06A909A8FFF7A8FF09AA1E21C6
:10428C00304601F03DF809A8FFF75FFF06A8FFF7DD
:10429C005CFF104B2360256203A8FFF756FF0E4B03
:1042AC00236001F0C9FC4FF4165101F0B5FC00F08D
:1042BC00F7FC214600F0FAFE6846FFF746FF0CB00B
:1042CC0070BD00BF84E603200000FFFF90E60320D2
:1042DC0014670B0018680B002C670B0013B5044611
:1042EC00084659B10191FFF79DFE23680199DB68DF
:1042FC000246204602B0BDE81040184702B010BD7F
:10430C0008B5024B1B689B68019308BD680203004B
:10431C0008B5024B1B68DB68019308BD68020300FB
:10432C0008B5024B1B685B68019308BD18020300BB
:10433C0008B5024B1B68DB68019308BD180203002B
:10434C0008B5024B1B685B69019308BD180203009A
:10435C0008B5024B1B685B6C019308BD4802030057
:10436C0008B5024B1B689B6C019308BD4802030007
:10437C0008B5024B1B68DB6C019308BD48020300B7
:10438C0008B5024B1B685B6D019308BD4802030026
:10439C0008B5024B1B685B69019308BD64020300FE
:1043AC0008B5024B1B689B68019308BD3C020300D7
:1043BC0008B5024B1B68DB68019308BD3C02030087
:1043CC0008B5024B1B681B69019308BD3C02030036
:1043DC0008B5024B1B685B69019308BD3C020300E6
:1043EC0008B5024B1B689B69019308BD3C02030096
:1043FC0008B5024B1B68DB69019308BD3C02030046
:10440C0008B5024B1B689B6A019308BD3C02030074
:10441C0008B5024B1B68DB6A019308BD3C02030024
:10442C0008B5024B1B681B6C019308BD3C020300D2
:10443C0008B5024B1B681B68019308BD4C020300B6
:10444C0008B5024B1B685B68019308BD4C02030066
:10445C0008B5024B1B689B68019308BD4C02030016
:10446C0008B5024B1B681B69019308BD4C02030085
:10447C0008B5024B1B685B69019308BD4C02030035
:10448C0008B5024B1B689B69019308BD4C020300E5
:10449C0008B5024B1B68DB69019308BD4C02030095
:1044AC0008B5024B1B681B6A019308BD4C02030044
:1044BC0008B5024B1B685B6B019308BD60020300DF
:1044CC0008B5024B1B68DB6E019308BD600203004C
:1044DC0008B5024B1B681B6F019308BD60020300FB
:1044EC0008B5024B1B685B68019308BD20020300F2
:1044FC0008B5024B1B68DB6A019308BD2002030060
:10450C0008B5034B1B68D3F88830019308BD000035
:10451C002002030008B5034B1B68D3F894300193B9
:10452C0008BD00002002030008B5024B1B685B6845
:10453C00019308BD4002030008B5024B1B689B6841
:10454C00019308BD4002030008B5024B1B68DB68F1
:10455C00019308BD4002030008B5024B1B681B69A0
:10456C00019308BD4002030008B5024B1B685B6950
:10457C00019308BD4002030008B5024B1B689B6900
:10458C00019308BD4002030008B5024B1B68DB69B0
:10459C00019308BD4002030008B5024B1B681B6A5F
:1045AC00019308BD4002030008B5024B1B681B6B4E
:1045BC00019308BD4002030008B5024B1B685B6BFE
:1045CC00019308BD4002030008B5024B1B681B6C2D
:1045DC00019308BD4002030008B5024B1B685B6CDD
:1045EC00019308BD4002030008B5024B1B685B6DCC
:1045FC00019308BD4002030008B5024B1B689B6D7C
:10460C00019308BD4002030008B5024B1B68DB6830
:10461C00019308BD4402030008B5024B1B689B6B59
:10462C00019308BD4402030008B5024B1B68DB6B09
:10463C00019308BD4402030008B5024B1B681B68BC
:10464C00019308BD1C02030008B5024B1B685B6894
:10465C00019308BD1C02030008B5024B1B689B6844
:10466C00019308BD1C02030008B5024B1B685B6A72
:10467C00019308BD1C02030008B5024B1B68DB6BE1
:10468C00019308BD1C02030008B5024B1B681B6C90
:10469C00019308BD1C02030008B5024B1B685B6C40
:1046AC00019308BD1C020300002240681146FFF76D
:1046BC0073BF002240681146FFF77EBF406800229E
:1046CC00FFF772BF4068002281F00101FFF75CBF69
:1046DC00002340681A461946FFF74EBF0023406876
:1046EC001A461946FFF740BF002240681146FFF7F3
:1046FC0033BF002240681146FFF71EBF40680022FE
:10470C000221FFF721BF002340681A46FFF70CBFB8
:10471C00024B03225A60024A1A607047B4E6032027
:10472C0044670B000B6803604B68436013B15A6815
:10473C0001325A60704738B5046805467CB163682D
:10474C00013B63605BB9236820469B689847A3686C
:10475C00013BA3601BB923682046DB6898472846B9
:10476C0038BD0000054B02221A60054B054A9A60C1
:10477C000020C3E90000FFF7B3BE00BFC8E603206A
:10478C00BCE603200000FFFF10B504460068FFF7ED
:10479C005BFF204610BD10B50446006808B1FFF75A
:1047AC0053FF0023C4E90133236010BD38B5044620
:1047BC000D4600680131FFF74FFF10B1C4E9000549
:1047CC00012038BD10B50368044623B143688B4201
:1047DC0001D3012010BD2046FFF7E8FF0028F9D0D7
:1047EC00A368002BF5D122681370F2E737B50D469C
:1047FC00114601920446FFF7E5FF019A28B92046BD
:10480C00FFF7C9FF204603B030BDA26029462068DF
:10481C0001F0C8FD2268A3680021D154F2E738B535
:10482C00054600680C4670B16A688B689A4208D3DA
:10483C00096831B101F02BFEA368AB600023A360C3
:10484C0038BDFFF701FF23682B6063686B60A368BA
:10485C00AB600023C4E90033F1E710B50023C0E9D5
:10486C000033044683600373FFF7D9FF204610BD65
:10487C00884210B5044605D00B682BB18A681946DE
:10488C00FFF7B4FF204610BDFFF785FFFAE710B520
:10489C0000230446C0E9003383600373FFF7E8FF8D
:1048AC00204610BD10B54368013B0446436063B914
:1048BC0003689B689847A368013BA3602BB92368E6
:1048CC002046DB68BDE81040184710BD70B5D0E934
:1048DC000053044605EB0316AE4204D02846FFF7FE
:1048EC0053FF1035F8E72068FFF7AEFE204670BD89
:1048FC00024800230360FFF72BBD00BFCCE603206A
:10490C0010B5044680680368DB689847E368184470
:10491C00E06010BDF8B506460D468F180024BD4268
:10492C000CD0336815F8011B9B6830469847031E62
:10493C0001DB1C44F3E7002C08BF1C462046F8BDE5
:10494C00704710B510210446FFF7B3FB204610BD8D
:10495C0003689B68184730B58BB00023012A8DF88B
:10496C00243098BF0A2209AC0D46B1FBF2F101FBD1
:10497C00125303F0FF03092B94BF30333733DBB2F0
:10498C00AA4204F8013DEFD92146FFF7A7FC0BB072
:10499C0030BD10B50446FFF7D3FCE0602368204619
:1049AC005B699847002808DAFFF7CAFCE368C01A6D
:1049BC00A3689842F2D34FF0FF3010BD2DE9F041BF
:1049CC0007460C468E180D46B542A5EB040807D0D9
:1049DC003846FFF7DEFF031E02DB05F8013BF3E769
:1049EC004046BDE8F0817047084611B10B685B6822
:1049FC001847704770477047704738B504460D46E6
:104A0C0000682E2101F039FD2368C31A2B6023B1F5
:104A1C00037803B1013023682060184638BD10B507
:104A2C0004210446FFF745FB204610BD10B50421B8
:104A3C000446FFF73EFB204610BDFFF799BC08B5B6
:104A4C00FFF7E6FAB0FA80F0400908BD704710B5E0
:104A5C000C4601F0F1F8844210D001F06DFC844258
:104A6C0005D101F069FCBDE8104001F064B92CB12E
:104A7C00236820465B68BDE81040184710BD13B58D
:104A8C00044608460191FFF7CDFA019902462046EB
:104A9C0002B0BDE8104001F023BC13B50446084633
:104AAC000191FFF7BFFA23680199DB6802462046A3
:104ABC0002B0BDE81040184707B503688DF8071021
:104ACC00DB6801220DF10701984703B05DF804FB88
:104ADC002DE9F74FD0E900844FF0140A00930AFB3C
:104AEC0004F4184BA41017465C434546002C21DDFA
:104AFC0066100AFB06F005EB00093A46B9F804B05B
:104B0C00285801915F4528BF5A4601F0C8FC00287F
:104B1C0001994FF001030BD15F4503D1009A13703B
:104B2C003446E3E7FCD9A61B09F11405013EF7E76F
:104B3C00F9DBF5E7A5EB08050248AD10684303B0B7
:104B4C00BDE8F08FCDCCCCCC7FB50369057E01914F
:104B5C0003B3F9B1002600F10C04039603A901A8D4
:104B6C00FFF74BFF0146A8B10DF10B03039A8DF82B
:104B7C000B602046FFF7ACFF9DF80B3053B1236858
:104B8C00142404FB0034083434F9023C002BA8BF75
:104B9C00DDB2E3E7284604B070BD0EB4F0B58CB0BE
:104BAC0000AF07F14405044655F8042B7A602B46F8
:104BBC00202107F11000FD60FFF756FD1F287A68D1
:104BCC001AD900F1080323F007036E46ADEB030D71
:104BDC00411C2B466846FD60FFF746FD021E04DDB6
:104BEC0023686946DB6820469847B5463037BD4692
:104BFC00BDE8F04003B070470028F7D023680246A8
:104C0C00DB6807F1100120469847EFE710B5094C17
:104C1C002378BFF35B8FDB0709D42046FFF758FAE4
:104C2C0028B12046FFF759FA034801F0ADFB0348C1
:104C3C0010BD00BFD4E60320014A0B0010E6032090
:104C4C0010B5094C2378BFF35B8FDB0709D42046E2
:104C5C00FFF73EFA28B12046FFF73FFA034801F070
:104C6C0093FB034810BD00BFD8E60320594A0B0044
:104C7C0014E6032038B500250446C0E90055C0E908
:104C8C0004558560856140F8245FFFF761FBFFF7F1
:104C9C00BDFFE061FFF7D4FF25732062204638BDCD
:104CAC0010B50A4C2378BFF35B8FDB070CD420467E
:104CBC00FFF70EFA40B10648FFF7DCFF2046FFF77E
:104CCC000CFA044801F060FB014810BDD0E603204B
:104CDC00E0E6032025520B00024A03490348002357
:104CEC00FFF7F6BB09500B00954F0B00154F0B004F
:104CFC0000231A4619461846FFF7EABB37B58D68EC
:104D0C0004466846FFF70EFD6A462946204601F028
:104D1C0007FA01A8FFF70FFD204603B030BD37B5E9
:104D2C00CD6804466846FFF7FDFC6A4629462046D6
:104D3C0001F0D2F901A8FFF7FEFC204603B030BD0C
:104D4C0037B50D6904466846FFF7ECFC6A46294600
:104D5C00204601F06AF901A8FFF7EDFC204603B0EC
:104D6C0030BD000070B58AB00D46014604A8FFF7AF
:104D7C00C5FF144E04A801F0EBF9E8B104A968468C
:104D8C00FFF7CDFF02983146FFF759FE044610B1EC
:104D9C002C1E18BF012401A8FFF7CDFC002CE9D074
:104DAC0004A96846FFF7CCFF684601F074F9286047
:104DBC0001A8FFF7C0FCDDE705A8FFF7BCFC0AB0B3
:104DCC0070BD00BF98670B0037B50C4620461349E1
:104DDC001546FFF71DF950B900F02EFF4FF4165190
:104DEC0000F01AFF03B0BDE8304000F025BF0C49BD
:104DFC002046FFF70DF978B94FF4165301A9284650
:104E0C000193FFF7AFFF01F097FA019900F090FFC3
:104E1C0001F092FA03B030BD0020FBE79D670B0058
:104E2C00A4670B0070B5D0E900531426044606FBAA
:104E3C000356AE4205D005F10800FFF7F3FF143519
:104E4C00F7E72068FFF700FC204670BD10B504465C
:104E5C000C30FFF7E7FF2046FFF738FD204610BD6A
:104E6C0010B5044B044640F8043BFFF7EFFF204617
:104E7C0010BD00BF14670B0010B50446FFF7F0FF20
:104E8C0020462421FFF715F9204610BD10B5034B21
:104E9C0003600446FFF7E4FF204610BD30680B00AA
:104EAC0010B50446FFF7F2FF20462421FFF701F965
:104EBC00204610BD0A6802604A6842600022C0E9C0
:104ECC00022210B502618C688460CC68C4600C69E5
:104EDC008A60CA6004610A6110BD0022C0E9002228
:104EEC0010B582600C6804604C6844608C680A6081
:104EFC004A6084608A6010BD10B503680446186867
:104F0C00FFF73EFA204610BD2DE9F04F87B08046E2
:104F1C0003931C4B5B68C3F30803894616466BB9B5
:104F2C00FFF7BEFE044600F12403406A0593FFF729
:104F3C0084FD237B2BB105A8FFF7DEFF07B0BDE88E
:104F4C00F08F01232373D4E900535FFA89F905EB41
:104F5C00830AAA4512D055F8047B3146381DFFF759
:104F6C00F3FD8145F5D33B68039A0092D3F808B062
:104F7C004A46334641463846D847EAE7002323736E
:104F8C00D9E700BF00ED00E02DE9F74F9B461A4B27
:104F9C005B68C3F308038046894616466BB9FFF776
:104FAC007FFE044600F12403406A0193FFF745FDA0
:104FBC00237B2BB101A8FFF79FFF03B0BDE8F08F57
:104FCC0001232373D4E90053F6B205EB830A55454C
:104FDC000ED055F8047B5946381DFFF7B5FD8642B7
:104FEC00F5D33B684A46DB68414638469847EEE7BE
:104FFC0000232373DEE700BF00ED00E02DE9F34151
:10500C00164B5B68C3F3080305460F461BBBFFF743
:10501C0047FE00F124030446406A0193FFF70DFD9F
:10502C00D4E90063462406EB8308B04509D101A8F6
:10503C00FFF762FFA542B4BF0020012002B0BDE81B
:10504C00F08156F8040B39460430FFF77DFD84429D
:10505C00A8BF0446E9E70020F0E700BF00ED00E040
:10506C00F8B5D0E901539D4204460E460DDB6F1C8A
:10507C00002F006804DDB900FFF7EEFA18B9F8BD8F
:10508C00FFF7E2FA00202060A7602768626807EB50
:10509C0085019200A2EB8502081D01F091F947F8F9
:1050AC0025606368013363600120E8E737B500F1E0
:1050BC0024030446406A01930D46FFF7BEFCD4E975
:1050CC00003203EB8202934219460BD00968A942C5
:1050DC0003F10403F7D101A8FFF70EFF00252846C2
:1050EC0003B030BD29462046FFF7BAFF054600281D
:1050FC00F1D06368012B01D1FFF7EEFD01A8FFF79A
:10510C00FBFEECE770B50446D0E900020B4600EB61
:10511C00820282420FD001461D6851F8046BAE42E8
:10512C0007D1521A01F04CF96368013B636001200E
:10513C0070BD0846EDE70020FAE71FB500F1240327
:10514C000446406A01910393FFF777FC01A92046BE
:10515C00FFF7D8FF18B163680BB9FFF7C9FD03A8B7
:10516C00FFF7CAFE04B010BD70B5D0E90456182381
:10517C00044603FB0656AE4215D005F1100120463D
:10518C00FFF7C0FF63680BB9FFF7B2FDE06929694F
:10519C000368DB689847696919B1206A0368DB68A2
:1051AC0098471835E7E7D4E90453182606FB03564D
:1051BC00AE4204D02846FFF7E7FA1835F8E700238B
:1051CC00636170BD73B50446FFF792FD04F12403CF
:1051DC00606A0193FFF731FC2046FFF7C5FF01A879
:1051EC00FFF78AFE606A08B1FFF7BAF8D4E90453F6
:1051FC00182606FB0356AE4204D02846FFF7C4FA25
:10520C001835F8E72069FFF71FFA2068FFF71CFA3A
:10521C00204602B070BD00000148FFF7D3BF00BFAD
:10522C00E0E603208842F8B504460D46164615D92B
:10523C00904214D2A2F11406751AA1F114072C4451
:10524C00B7421AD01CB131462046FFF733FE06F1A7
:10525C000800FFF7E7FD143E143CF1E70DD0B54212
:10526C000BD01CB129462046FFF724FE05F108009F
:10527C00FFF7D8FD14351434F1E7F8BD8842F8B5C2
:10528C0004460D46164614D9904213D2A2F11006CC
:10529C00751AA1F110072C44B74218D01CB1314635
:1052AC002046FFF7DAFA3046FFF76EFA103E103C54
:1052BC00F2E70CD0B5420AD01CB129462046FFF7C4
:1052CC00CCFA2846FFF760FA10351034F2E7F8BD37
:1052DC0070B50E1E054611DD3001FFF7ADF9044621
:1052EC0058B1D5E9001201EB0212FFF7C7FF28688D
:1052FC00FFF7AAF92C60AE60012070BD0024F6E720
:10530C002DE9F04F904695B000230391D8F8041086
:10531C000A9346229942C0E90033C0E90233C0E93E
:10532C000433CDE908330446027623DCD8E9005770
:10533C00142303FB0757AF423BD029460BA8FFF7BA
:10534C008CFA0BA90FA8099EFFF787FADDE9091360
:10535C0099421BDA089B099A03EB061603EB02121F
:10536C00314606F11000FFF789FFEEB9099B0133B6
:10537C00099311E008A8FFF7ABFF0028D6D108A8C5
:10538C00FFF7A4FA204615B0BDE8F08F013108A84C
:10539C00FFF79EFF0028DDD10FA8FFF7F5F90BA84A
:1053AC00FFF7F2F91435C6E70FA93046FFF755FAA7
:1053BC00DCE70026CDE90B660D964FF01409DDE90C
:1053CC0008239E427CDA3301D35806930BB901367D
:1053DC00F5E70023079309FB06F302930BAD07A92E
:1053EC0006A8FFF70AFB82460028F0D04FF0000316
:1053FC008DF817300146079A0DF117032846FFF771
:10540C0067FB9DF817700190002F4AD1BDF81C3036
:10541C00ADF84030CDE911774FF6FF73CDF83CA0D5
:10542C00ADF842301397D5E90132934217DB03F103
:10543C00010ABAF1000F30DD09FB0AF0FFF7FCF8A6
:10544C00834660B3D5E9001209FB0212FFF7EAFEAE
:10545C002868FFF7F9F8C5F800B0C5F808A02B6864
:10546C00019A09FB023A6A68514609FB02320AF1B9
:10547C001400FFF7D7FEBAF1000F03D00FA9504666
:10548C00FFF718FD6B6801336B6011A8FFF7CAFCBE
:10549C003FB10BA8FFF7C6FC71E7BB46D8E7012765
:1054AC00F3E7019B2D6809FB0355069B1B782BB971
:1054BC00D8F80030029A13441B7CEB8008358EE739
:1054CC002168226062686360A36809920A9A0A9351
:1054DC00E368A2600B9A0B932369E2600C9A0C931D
:1054EC00636922610D9A0D93039B08916261237687
:1054FC00CFE70000F0B5044687B00D4626461946A6
:10550C0068461746FEF762FE0B4B46F8043B6946AD
:10551C0003A8FEF75BFE03AA39463046FFF7F0FE00
:10552C0003A8FEF712FE6846FEF70FFE034B23603E
:10553C002046256207B0F0BD14670B0018680B00FD
:10554C00F0B50F4685B01D490A9C384616461D46D7
:10555C00FEF75EFDC0B9A4B1294601A8FFF7BDFC5A
:10556C001749242000F00CFF054630B101AB324640
:10557C002146FFF7BFFF134B2B6001A8FEF7E5FD9B
:10558C002C46204605B0F0BD0F493846FEF740FDCD
:10559C0090B9002CF5D0294601A8FFF79EFC0849CC
:1055AC00242000F0EDFE05460028E6D001AB324683
:1055BC002146FFF79FFFE0E70024E2E7AC670B0012
:1055CC00A5690B0030680B00B0670B00014B024A59
:1055DC001A607047DCE60320C1670B002DE9F04729
:1055EC00089DD0F8209004460E461746984600F0C9
:1055FC0023FB81454CD02B79190704D56A69544992
:10560C002046FFF7CAFAB8F1000F0DD05B212046F7
:10561C00FFF752FA41462046FFF73FFA23684D49FF
:10562C00DB680222204698472B79DA0723D5D5F878
:10563C0008802F21404600F046FF08B100F1010818
:10564C0041462046FFF729FA2B799B0708D53A21CA
:10565C002046FFF731FAEA683F492046FFF79DFAEA
:10566C002A79236812F0040FDB6814BF3B493C49CC
:10567C000222204698472B7958071DD529690B46DD
:10568C001A4613F8010B60B1202808D11946F7E728
:10569C00344800F0C8FB0028ADD0BDE8F0872828BE
:1056AC00EED12368521ADB682046984723682E49AE
:1056BC00DB6804222046984700213846FEF700FF9D
:1056CC0001462046FFF7E9F923682549DB680222E9
:1056DC00204698471EB131462046FFF7DEF92B795C
:1056EC0013F0300F2CD023682049DB6802222046AF
:1056FC0098472B79D9060AD523681D49DB68072200
:10570C0020469847AA691B492046FFF746FA2B7991
:10571C009A0611D5DB0605D523681049DB680222F1
:10572C002046984723681449DB6820460A2298478C
:10573C00E9692046FFF7B1F95D212046FFF7BCF976
:10574C0023680E49DB6820460222BDE8F047184763
:10575C00C5670B00CC670B00CF670B00D2670B0043
:10576C00D7670B0044E70320D5670B00DA670B0003
:10577C00DD670B00E5670B00E8670B00F3670B00B8
:10578C002DE9F0410446076A0D46164600F054FA1E
:10579C00874207D0206A036832462946DB68BDE899
:1057AC00F0411847034800F03EFB0028F2D0BDE85A
:1057BC00F08100BF44E703202DE9F04385B0D0F819
:1057CC0020900C9C05460F4690461E4600F034FA7D
:1057DC00814505D1494800F026FB002840F08A801D
:1057EC002B6A474A00924FF000096846CDE902390E
:1057FC008DF8049000F0D5FC49464046FEF760FE5B
:10580C00404980460122684600F05AFD4146FFF7A8
:10581C0036F93FB13C490122684600F051FD39464A
:10582C00FFF72DF93EB139490122684600F048FDD9
:10583C003146FFF724F92379DF070ED5A6682F210F
:10584C00304600F040FE00B1461C3149012268464A
:10585C0000F036FD3146FFF712F923799E0707D584
:10586C002C490222684600F02BFDE16800F0A6FCF2
:10587C002379580714D5266933461F4613F8012B94
:10588C002AB1202A01D11E46F7E7282AF5D1224950
:10589C000222684600F014FDBA1B314600F020FDD0
:1058AC002379190707D51D490122684600F008FD28
:1058BC00616900F095FC2379DA0607D518490422B2
:1058CC00684600F0FDFCA16900F078FC23799B068A
:1058DC0007D514490622684600F0F2FCE169FFF78F
:1058EC00CEF8684600F047FC286A0F49036802228C
:1058FC00DB68984705B0BDE8F08300BF44E70320A0
:10590C0088670B00A2670B00F6670B00386A0B0068
:10591C00F8670B00FA670B00FD670B0000680B00C3
:10592C0002680B0007680B00F3670B00024B1A6848
:10593C00024B1A60704700BF18E6032008E70320EB
:10594C00014B00229A6070470CE70320014B186052
:10595C00704700BF1CE6032008B50B4B43B100F0A9
:10596C006BF903681B699847002801DDAFF30080D1
:10597C00064B43B100F0E0FC03681B699847002814
:10598C0001DDAFF3008008BD000000000000000046
:10599C0008B5FFF7E1FFFEF7D3FC014B186008BD1B
:1059AC0064E703200548064A064908B5121A00F0B8
:1059BC00F9FC054B054A1A6008BD00BF00F4032032
:1059CC0004F40320F86B0B0000F403201E1C279A30
:1059DC0007B5002300931A466FF07701FEF79AFD86
:1059EC0003B05DF804FB000007B543880A2B08D010
:1059FC00502B0BD1094B1B684BB103B05DF804EB7A
:105A0C001847FFF7E5FF03B05DF804FB0023009394
:105A1C001A466FF07701FEF77DFDF4E720E70320CF
:105A2C0010B512480021FEF737FE114B1A68114BC6
:105A3C009A42114B0CBF012200221A7001D0FFF7C1
:105A4C00B1FFFEF76DFC044600F0DCFC0B4B13B110
:105A5C002046AFF3008000210848FEF7E5FDBDE8C5
:105A6C00104007480021FEF74BBD00BF59590B00F1
:105A7C0000F403201E1C279A1CE7032000000000E2
:105A8C00F5590B00704710B518210446FEF711FBB1
:105A9C00204610BDF0B5037D062B8DB00E4600F1EF
:105AAC0004074FF0000412D000F1080515F8011D91
:105ABC000A223046FEF74FFFAF42044419D0002CA7
:105ACC00F4D02E213046FEF743FF0444EEE72F239B
:105ADC006A4639460A208DF80040FEF759FC6846A4
:105AEC00FEF7A0FA33680246DB68694630469847F1
:105AFC00044620460DB0F0BD10B5054B04461122EE
:105B0C0040F8043B002100F075FC204610BD00BF9E
:105B1C0094680B000346074A10B543F8042B01F1B7
:105B2C00100251F8044B43F8044B9142F9D10A7816
:105B3C001A7010BD94680B0010B59DF8084044EA2B
:105B4C00032343EA024242EA0161042341600375E4
:105B5C0010BD000007B5064B0360CB7800938B7823
:105B6C004A780978FFF7E8FF03B05DF804FB00BF43
:105B7C0094680B00417470477047704708B500215A
:105B8C00007CFEF77DFC40EAE07008BD08B5012101
:105B9C00007CFEF775FC40EAE07008BD08B5007C9F
:105BAC00FEF766FC20EAE07008BD08B5007CFEF745
:105BBC0057FC20EAE07008BD13B50446007C019147
:105BCC00FEF756FC0028019901DC607C20B1207C9A
:105BDC00FEF75EFC20EAE07002B010BD007CFEF720
:105BEC005FBC10B514210446FEF763FA204610BDC5
:105BFC0010B54FF47A73044608460021C4E901132A
:105C0C00044B23600123207463741146FEF710FCCF
:105C1C00204610BDA8680B00007C0022FEF710BCCB
:105C2C00007CFEF715BC10B514220446002100F0D0
:105C3C00E1FB204610BD000010B50F4C88B003A846
:105C4C00FFF7F1FF2178BFF35B8F11F001010FD14A
:105C5C0020460191FEF73CFA019948B103AA074886
:105C6C00FFF7C6FF2046FEF738FA054800F08CFB1C
:105C7C00024808B010BD00BF24E7032028E703202A
:105C8C00855B0B0070474174704708B5007CFEF7CC
:105C9C00B7FB20EAE07008BD08B5007CFEF790FB6E
:105CAC0020EAE07008BD08B5007CFEF799FB40EADD
:105CBC00E07008BD08B5007CFEF78AFB40EAE07096
:105CCC0008BD007CFEF794BB37B5457C04462DB16E
:105CDC00207C03B0BDE83040FEF76ABB007C01912C
:105CEC00FEF78EFB00280199F2DC284603B030BD8C
:105CFC0010B514210446FEF7DCF9204610BD000057
:105D0C0010B54FF47A730446084611460022C4E9D4
:105D1C000123044B2360012320746374FEF780FB82
:105D2C00204610BDDC680B00007C0023FEF770BB26
:105D3C000022FFF7F9BF007CFEF732BB002240685F
:105D4C001146FEF709BC002240681146FEF724BC40
:105D5C00002240681146FEF72FBC40680022FEF777
:105D6C0023BC4068002281F00101FEF70DBC00232A
:105D7C0040681A461946FEF7FFBB002340681A46D6
:105D8C001946FEF7F1BB002240681146FEF7D4BB62
:105D9C00406800220221FEF7D7BB002340681A4658
:105DAC00FEF7C2BB024B04225A60024A1A607047CB
:105DBC003CE7032010690B00002340681A46FEF7ED
:105DCC00B3BB406800220221FEF7BEBB0022406834
:105DDC001146FEF7B1BB002240681146FEF7BCBB72
:105DEC00002340681A461946FEF7BEBB00234068E4
:105DFC001A461946FEF7C0BB40680021FEF7E4BB0B
:105E0C0040680021FEF7E8BB4068002281F00101E8
:105E1C00FEF7BABB40680022FEF7C6BB0022406802
:105E2C001146FEF7C9BB002240681146FEF7B4BB11
:105E3C0040680021FEF7E0BB2DE9F04395B0144615
:105E4C000D460746FFF758FE00211C220DA80091B5
:105E5C0000F0D0FA40230C9320466B460CAA00218C
:105E6C00FEF756FA044600284BD102460121686819
:105E7C00FEF772FB0221804622466868FEF76CFB37
:105E8C00009E81462146002E3BD0002939D17368F3
:105E9C00022B03D00A2B11D0F669F4E7B8F1000FEE
:105EAC00FAD0716906A8043107ADFFF753FE0FCD88
:105EBC003C1D0FC42B6823704146EDE7B9F1000F70
:105ECC00EAD07469102201A800F094FA06238DF828
:105EDC00143001AD04F108031834186859682A46C7
:105EEC0003C20833A3421546F7D101A906A807AD92
:105EFC00FFF710FE0FCD3C1D0FC42B6823704946D5
:105F0C00CAE70098FEF7FCF9384615B0BDE8F083F7
:105F1C00033802289ABF024B53F8200001487047FF
:105F2C004C690B0044E7032008B500224068FEF7DB
:105F3C005BFBBDE80840FFF7EBBF0000024B034AD8
:105F4C001A6000225A60704744E7032060690B0016
:105F5C0000F11003012213F8101C0129184608D176
:105F6C0053F8041C02EB4102013A03F11003F2D185
:105F7C007047022904BF53F8041C5218F4E70EB4FE
:105F8C00F0B588B000AF07F13405102155F8042B9B
:105F9C007A6004462B467818FD60FEF765FB0F28E7
:105FAC007A681AD900F1080323F007036E46ADEBAB
:105FBC00030D411C2B466846FD60FEF755FB021E87
:105FCC0004DD236869469B6820469847B546203710
:105FDC00BD46BDE8F04003B070470028F7D02368F9
:105FEC0002469B6807F1100120469847EFE738B549
:105FFC000B6803604D6843689D42044608D015B198
:10600C006B6801336B60606808B1FEF74BFC656030
:10601C0038BD07B503688DF807109B6801220DF198
:10602C000701984703B05DF804FB0B4611460022AC
:10603C0010B5C0E90022044683600BB9204610BDA0
:10604C00FFF7D5FFFAE78368EBB11A78032A1AD861
:10605C00DFE802F00417021B0520704702685B683A
:10606C005268D05C2D2812D0A0F13003092B0ED928
:10607C0074280ED066280CD0A0F16E0358425841FB
:10608C00704706207047002070470420704703209B
:10609C0070470220704710B50446FFF7D4FF022862
:1060AC000ED0C31EDBB2012B14D82268A368506833
:1060BC005B68BDE810400A220021184400F09ABA2F
:1060CC002268A36852685B68D05CA0F174035842E4
:1060DC00584110BD0020FCE738B50023C0E900335F
:1060EC0004460E48C4E90203A9B10B78032B06D071
:1060FC008BB9136858684B68C35C6E2B07D0136858
:10610C004D6858688B6828445B1BA060E36011469F
:10611C002046FFF76CFF204638BD00BFF5670B002B
:10612C0038B500250B46C0E90055C0E90255C0E959
:10613C000455044611464BB11A78012A06D103F1D5
:10614C001002DB6882604361FFF751FF204638BDC7
:10615C0010B54369044663B18068E060013B1030C0
:10616C00A0602061636113B1FFF7F2FEA060012013
:10617C0000E0184610BD10B57D210446FFF749FF1D
:10618C0001232371204610BD08B50379012B02D0E1
:10619C00022B04D008BD2C21FFF73BFFFAE73A2174
:1061AC00FAE710B50446FFF7EFFF20467B21FFF717
:1061BC0030FF00232371204610BD000013B50446A8
:1061CC000191FFF7E1FF2368019ADB680349204640
:1061DC00984701232046237102B010BDCF670B00F6
:1061EC0013B504460191FFF7CFFF2368019ADB68D2
:1061FC0003492046984701232046237102B010BD65
:10620C009C690B002DE9F0470D462221904604466F
:10621C00FFF7FFFEDFF8A490A8442F464745BA4687
:10622C003DD017F8016B222E06D05C2E04D03046E0
:10623C0000F0B0F80028F1D12368AAEB05029B68A6
:10624C002946204698475C212046FFF7E2FE0D2E9A
:10625C000AD8072E1CD9A6F10803052B18D8DFE89D
:10626C0003F00D0F11171315222E01D05C2E0FD138
:10627C0031462046FFF7CDFE3D46CFE76221F8E7D9
:10628C007421F6E76E21F4E76621F2E77221F0E75C
:10629C0023683246DB68494620469847ECE7BD4206
:1062AC0005D023687A1B9B682946204698472221F3
:1062BC002046FFF7AEFEBDE8F08700BF9F690B00DC
:1062CC0013B50446CDE90021FFF75EFF2046DDE95A
:1062DC000021FFF797FF02232046237102B010BD67
:1062EC0013B50446CDE90021FFF74EFF2046DDE94A
:1062FC000021FFF787FF01232046237102B010BD58
:10630C007047000038B5044614252A46002100F0D9
:10631C0071F825804025074925812846258200F003
:10632C0031F804496060284600F02CF8E060204603
:10633C0038BD00BFA5690B0030B50E4D2978BFF3F1
:10634C005B8F11F0010487B011D12846FDF7C0FE18
:10635C0068B101A8FFF7D6FF01AA21460648FFF74E
:10636C00CFFC2846FDF7B9FE044800F00DF80248B2
:10637C0007B030BD4CE7032050E703200D630B0042
:10638C00FDF793BEFDF793BE002301461A4618464F
:10639C0000F03AB9024B1844407800F0970070476F
:1063AC003A6A0B000A44914200F1FF3300D1704766
:1063BC0010B511F8014B03F8014F9142F9D110BD02
:1063CC00884210B501EB020402D98442234607D857
:1063DC00431EA14208D011F8012B03F8012FF8E756
:1063EC00024401468A4200D110BD13F8014D02F857
:1063FC00014DF7E702440346934200D1704703F87E
:10640C00011BF9E738B5104B1D68AB6B0446B3B9EB
:10641C001820FEF711F90246A86320B90B4B0C4863
:10642C004221FEF731F90B490B4BC0E900130B4B22
:10643C0083600B23838100210120C2E90401AB6B33
:10644C0000221C615A6138BD1CE60320A6690B00B2
:10645C00BD690B000E33CDAB34126DE6ECDE0500DE
:10646C00C9B2034610F8012B1AB18A42F9D1184669
:10647C007047002918BF0023F9E710B50446FFF751
:10648C00EFFF18B92046FDF7CDFD204410BD0346A3
:10649C0011F8012B03F8012B002AF9D1704710B524
:1064AC007AB103460139841813F8010B11F8012F46
:1064BC00904201D1A34201D1801A10BD0028F3D122
:1064CC00FAE71046F9E738B503460C4669B9BDE85A
:1064DC003840FFF7C5BF431C054621461846FFF759
:1064EC00BFFF0028F7D1284638BD0025F5E700008E
:1064FC00012B2DE9F04701D0242B06D9FEF7BCF86F
:10650C00162303600020BDE8F087DFF8E4C00D46D9
:10651C002E4615F8014B14F80C7017F00807F7D13C
:10652C002D2C32D12C780127B51C002B5BD0102BD5
:10653C0009D1302C07D12C7804F0DF04582C4DD124
:10654C006C781023023507F1004808F1FF384FF042
:10655C00000CB8FBF3F9664603FB198AA4F1300E64
:10656C00BEF1090F16D87446A34224DDBCF1000F0E
:10657C001EDBB1451CD301D1A24519DB06FB03463A
:10658C004FF0010C15F8014BE8E72B2C04BF2C78CD
:10659C00B51CCAE7A4F1410EBEF1190F01D8373C66
:1065AC00E2E7A4F1610EBEF1190F04D8573CDBE70A
:1065BC004FF0FF3CE6E7BCF1000F05DA2223036045
:1065CC00464642B930469EE707B17642002AF9D0DA
:1065DC00BCF1000F00D0691E1160F3E73024002BD2
:1065EC00B1D10823AFE7302CA5D00A23ABE700BF0D
:1065FC003B6A0B0013460A46014602480068FFF747
:10660C0077BF00BF1CE603202DE9F843DFF8B88004
:10661C000646D8F800001F460D46914600F056F885
:10662C00254B1C6834B9254C1C60254B13B11B68D9
:10663C00C4F8883063681F2B07DDD8F8000000F021
:10664C0047F84FF0FF30BDE8F8834EB3D4F888001C
:10665C0088B91C4B23B9D8F8000000F038F8F0E7E3
:10666C004FF48470FDF7E8FF0028F4D00023C0E954
:10667C004033C4F88800636840F8239001229A40A4
:10668C0000EB8301D0F800311343C0F80031022E27
:10669C00C1F8807002BFD0F804311343C0F8043144
:1066AC006368D8F800005A1C0233626044F8235027
:1066BC0000F00EF80020C6E7F4E7032068E703209B
:1066CC000000000045460B0080E603207047704731
:1066DC007047000041400B007D400B00A5400B00B3
:1066EC00A9400B000000000043616C6C206F6E2011
:1066FC0070757265207669727475616C00000000AB
:10670C00000000000000000000000000000000007D
:10671C00C5400B00ED400B00000000000000000025
:10672C00F1400B0025410B00E9550B008D570B0078
:10673C00000000000000000013470B0009470B008D
:10674C00FF460B00F5460B00E9460B00DD460B003F
:10675C00055E0B000D5E0B00D1460B00C9460B000D
:10676C00BF460B00B5460B00355F0B003D5E0B00C2
:10677C00455E0B0000000000000000004D490B00BE
:10678C004F490B000D490B008B5F0B006261756468
:10679C000053657269616C0053657269616C3100FC
:1067AC004A534F4E53747265616D4C6F6748616EFE
:1067BC00646C65720061707000253031307520009A
:1067CC005D20002564002C200028293A2000205B45
:1067DC0000636F6465203D20002569006465746169
:1067EC00696C73203D20000D0A006D0066006C6E14
:1067FC0000666E007400636F6465006465746169A3
:10680C006C00000000000000000000006D4E0B004A
:10681C00854E0B00E9550B008D570B000000000056
:10682C0000000000994E0B00AD4E0B00C5570B003D
:10683C00F3490B000000000000000000054A0B00AB
:10684C002B4A0B004D550B00F5490B0000000000C6
:10685C0000000000034A0B00394A0B00D54D0B0019
:10686C005B4A0B0025592D256D2D25645425483A7E
:10687C00254D3A2553257A0061736374696D650063
:10688C000000000000000000A15A0B00915A0B0000
:10689C00935A0B000000000000000000875B0B0007
:1068AC00EF5B0B00C55B0B0021490B00B75B0B00CA
:1068BC00895B0B00995B0B00E95B0B00C9490B0072
:1068CC00A95B0B00815B0B000000000000000000C6
:1068DC00915C0B00FD5C0B00D55C0B0021490B009F
:1068EC00A55C0B00C15C0B00B35C0B00CF5C0B0018
:1068FC00C9490B00935C0B00975C0B000000000077
:10690C0000000000A75D0B009D5D0B00935D0B006C
:10691C00495D0B00875D0B007B5D0B00055E0B007A
:10692C000D5E0B006F5D0B00675D0B005D5D0B007A
:10693C00535D0B00355F0B003D5E0B00455E0B009D
:10694C00B4E603203CE7032044E7032000000000EA
:10695C0000000000C55D0B00CF5D0B00D95D0B0086
:10696C00E35D0B00ED5D0B00F95D0B00055E0B00AC
:10697C000D5E0B00155E0B00215E0B00295E0B00FB
:10698C00335E0B00355F0B003D5E0B00455E0B006C
:10699C00257500752530347800005245454E54203D
:1069AC006D616C6C6F63207375636365656465649E
:1069BC00002F6D6E742F776F726B73706163652F20
:1069CC00776F726B73706163652F4743432D313062
:1069DC002D706970656C696E652F6A656E6B696E7A
:1069EC00732D4743432D31302D706970656C696E82
:1069FC00652D34385F32303230313132345F3136DC
:106A0C0030363138303634312F7372632F6E6577F0
:106A1C006C69622F6E65776C69622F6C6962632F8B
:106A2C007374646C69622F72616E642E6300002053
:106A3C002020202020202020282828282820202022
:106A4C0020202020202020202020202020202088D2
:106A5C001010101010101010101010101010100436
:106A6C000404040404040404041010101010101086
:106A7C00414141414141010101010101010101017A
:106A8C000101010101010101010110101010101090
:106A9C00424242424242020202020202020202024A
:106AAC000202020202020202020210101010200066
:106ABC0000000000000000000000000000000000CA
:106ACC0000000000000000000000000000000000BA
:106ADC0000000000000000000000000000000000AA
:106AEC00000000000000000000000000000000009A
:106AFC00000000000000000000000000000000008A
:106B0C000000000000000000000000000000000079
:106B1C000000000000000000000000000000000069
:106B2C000000000000000000000000000000000059
:106B3C003D420B001D470B0071470B00FD480B003D
:106B4C00D9550B0039590B004D590B00B15D0B0099
:046B5C00495F0B0082
:106B6000040000001400000003000000474E550020
:106B700052D8C60394085BA556E501C52B2CC5A6C3
:046B80008468A22F54
:106B840048680B0060680B0084680B0020E6032053
:106B940000000000000000000000000000000000F1
:106BA40000000000000000000000000000000000E1
:106BB40000000000000000000000000000000000D1
:106BC40000000000000000000000000000000000C1
:106BD40000000000000000000000000000000000B1
:106BE40000000000000000000000000000000000A1
:046BF400F8E703209B
:046BF8000000000099
:106C020000000102030405060708090A0B0C0D0E19
:106C12000F101112131415161718191A1B1C1D1E0A
:046C22001F20280007
:046C26007856341256
:04000003B000401CED
:00000001FF
