:020000040808EA
:10000000000008087C490808000006000A000501F5
:080010000402E60C00000000F0
:040018008845080807
:10001C0009480A4908B5884205D0094A824202D0EB
:10002C00121A04F0F7F90748074A0021121A04F0D3
:10003C00FFF9064808BD00BF00000020D44808089E
:10004C00800000208000002065060020650600204E
:10005C0070B502F017FE0025054E064CA41BA40833
:10006C00AC4200D170BD56F8043B98470135F7E718
:10007C00B0480808D048080801F044BC08B501F0A5
:10008C0095FCBDE8084002F0B5BD02F027BB02F0BC
:10009C0025BB02F02BBB0078B0FA80F0400970470A
:1000AC000123037070470000F8B50C4603F048FFBD
:1000BC000646E08B03F044FF4FF05C51054630469A
:1000CC0003F096FF4FF064510746284603F090FF6B
:1000DC000146384603F082FE4FF062510746304627
:1000EC0003F086FF4FF06A510646284603F080FF66
:1000FC000146304603F072FE0546B4F9200003F0C9
:10010C0023FF0146284603F073FF054694F92200AD
:10011C0003F01AFF4FF0834103F06AFF394606469D
:10012C00384603F065FF0146304603F061FF014697
:10013C00284603F055FE0249A06304F00DF8F8BD03
:10014C000000A0452DE9F0410C4680464FF07C5153
:10015C00A06B03F04DFF694903F040FE054694F98E
:10016C00280003F0F1FE294603F042FF294603F074
:10017C003FFF4FF0625103F03BFF0646B4F92600F7
:10018C0003F0E2FE294603F033FF0146304603F04C
:10019C0027FE4FF0585103F02BFF4FF0605103F046
:1001AC0027FF4FF07E5103F01BFE0646A08C03F098
:1001BC00C7FE314603F01CFF064604F0DFF80028AA
:1001CC0000F0998094F92E0003F0BEFE4FF05C51C4
:1001DC0003F00EFF29460746284603F009FF0146A7
:1001EC00384603F005FF0746B4F92C0003F0ACFECB
:1001FC00294603F0FDFE014603F0F2FD394603F0FB
:10020C00EFFD4FF07A5103F0F3FE0746404603F042
:10021C0097FE01464FF0934003F0E0FD0546B4F91C
:10022C002A0003F091FE4FF08F4103F0E1FE3946B6
:10023C0003F0D6FD4FF0665103F0DAFE0146284676
:10024C0003F0CCFD2E4903F0D3FE314603F084FFBE
:10025C004FF06E51054603F0CBFE0646B4F9320062
:10026C0003F072FE294603F0C3FE294603F0C0FEDC
:10027C004FF0405103F0BCFE0746B4F9300003F0D8
:10028C0063FE4FF0605103F0B3FE294603F0B0FE5D
:10029C000146384603F0A4FD074694F8340003F0F9
:1002AC0053FE4FF05C5103F0A3FE314680463046BE
:1002BC0003F09EFE314603F09BFE0146404603F0E0
:1002CC0097FE0146384603F08BFD064694F92F0045
:1002DC0003F03AFE4FF0864103F08AFE01463046A9
:1002EC0003F07EFD4FF0765103F082FE294603F0B9
:1002FC0077FDBDE8F0810020FBE700BF00007A47E6
:10030C000050C3452DE9F0410C4607464349A06B0C
:10031C0003F022FF054694F9150003F015FE4FF08B
:10032C00625103F065FE294603F062FE4FF07E51E8
:10033C0003F056FD064694F9160003F005FE4FF047
:10034C00565103F055FE294603F052FE294603F0A0
:10035C004FFE0146304603F043FD0646608A03F02B
:10036C00EFFD4FF05A5103F043FE0146304603F0C7
:10037C003FFE0646384603F0E3FD074694F91400A9
:10038C0003F0E2FD4FF07C5103F032FE294603F0FE
:10039C002FFE8046208A03F0D3FD4FF0834103F0FB
:1003AC0027FE0146404603F01BFD0146384603F08C
:1003BC0015FD0146304603F01BFE064694F9180065
:1003CC0003F0C2FD4FF0545103F012FE294603F026
:1003DC000FFE0546E07D03F0B3FD4FF0625103F0D4
:1003EC0007FE0146284603F0FBFC314603F000FEF5
:1003FC00314603F0FDFD314603F0F2FC084904469A
:10040C0003F0B2FF40B90021204603F08FFF00B18A
:10041C0000242046BDE8F081014CFAE70000A0451D
:10042C000000C84270B50646B1F91A000C4603F03C
:10043C008BFD4FF0605103F0DBFD374903F0D8FD25
:10044C00364903F0CDFCB6F5C87F0546304628BFCB
:10045C004FF4C87003F074FD0146284603F0C8FD44
:10046C004FF07E5103F0BCFC054694F9190003F0E3
:10047C006BFD4FF0765103F0BBFD294903F0B0FC46
:10048C000146284603F0B4FD054694F91C0003F020
:10049C005BFD4FF06A5103F0ABFD064694F90E007C
:1004AC0003F052FD0146304603F0A2FD01462846FA
:1004BC0003F096FC054694F83C0003F041FD4FF028
:1004CC00814103F08DFC01464FF0814003F044FE66
:1004DC000146284603F08CFD054694F93D0003F0D7
:1004EC0033FD104903F084FD4FF07E5103F078FC8E
:1004FC0001464FF07E5003F02FFE0146284603F0D4
:10050C0077FD094903F06AFC084903F071FD03F01B
:10051C005BFFC0B270BD00BF6F12033A75021A3B8D
:10052C00000044426F12033B0000C8419A995940A5
:10053C0048B1036C3BB1436C2BB1806CB0FA80F0CA
:10054C004009404270474FF0FF30704710B50446E9
:10055C001046FFF7EDFF50B923788B4206D9217076
:10056C0092F84D3043F0010382F84D3010BD4FF03E
:10057C00FF30FBE773B502460846FFF7D9FF0C4680
:10058C00054640BB12F0800F14BF002310234A7B9A
:10059C009A4220D04B730E6C4B680122F3200DF164
:1005AC000701B04784F84C0098B99DF80720637B8D
:1005BC0022F0100203F0100313438DF807300122D0
:1005CC007320666C63680DF10701B04784F84C002A
:1005DC0008B16FF00105284602B070BD37B504466E
:1005EC00FFF7A6FF70B90122F320256C63680DF1AB
:1005FC000701A84784F84C0030B99DF8073003F088
:10060C001003637303B030BD6FF00100FAE7000014
:10061C002DE9F041344CA0B06D46264684460F4679
:10062C0090460FCE0FC50FCE0FC50FCE0FC596E857
:10063C000F00403485E80F000FCC10AD0FC50FCC68
:10064C000FC50FCC0FC594E80F0085E80F0060466E
:10065C0003F076FC4FF0884103F0C0FB04464046A3
:10066C0003F072FC214903F0C3FC214903F0B8FBF1
:10067C0020AB03EB870605461E4956F8800C03F0A9
:10068C006BFD4FF07E5103F0ABFB0146284603F0A7
:10069C00AFFC0146204603F05FFD4FF07E5103F0A6
:1006AC009FFB1449044656F8400C03F055FD4FF0DF
:1006BC007E5103F095FB104903F09AFC054601208E
:1006CC00B84003F03DFC0146284603F091FC01467E
:1006DC00204603F08DFC01464FF07E5003F03CFDAC
:1006EC0020B0BDE8F08100BFA44508080000A04080
:1006FC000080A7440000C842BD3706342DE9F04302
:10070C001C460D46002187B00746164602A810224B
:10071C00019103F08DFE2046FFF70AFF90BB8FB3CB
:10072C0085B3731E092B30D8013D0DF1040807EB7E
:10073C0006094F4512D170B97200656C63689DF85B
:10074C000400013A0DF10501A847002884F84C007B
:10075C0018BF6FF0010007B0BDE8F083227B3B7837
:10076C0032B918462146FFF705FF3B7803F07F03AB
:10077C0088F8003015F8013F08F1020808F8013C30
:10078C000137D6E74FF0FF30E5E76FF00300E2E703
:10079C002DE9F042064618461D46FFF7C9FE0F46E6
:1007AC0091460446C8B9C1B12B7B3BB929463046AA
:1007BC00FFF7E0FE044608B946F0800630464A468C
:1007CC0039466B682E6CB047002818BF6FF00104D7
:1007DC0085F84C002046BDE8F0824FF0FF34F9E775
:1007EC00E02337B58DF80630B62305468DF8073073
:1007FC00FFF79EFE044680B92B7B8BB12B460DF187
:10080C00070101220DF10600FFF778FF0446AB6CDF
:10081C0042F21070696898474CB1204603B030BD65
:10082C002846FFF7DBFE04460028F6D1E6E72B7BD3
:10083C00002BF2D12846FFF7D1FE0446EDE710B5A8
:10084C008CB00446FFF7CCFF0346002840F09B8099
:10085C00234601222146D020FFF79AFF03460028A9
:10086C0040F091802278612A40F0908023468DF8E8
:10087C0004000122F02001A9FFF78AFF034600289B
:10088C0040F081809DF804301722A3608A20234613
:10089C0001A9FFF77DFF0346002874D123460E22E1
:1008AC00E1200DF11B01FFF773FF034600286AD10D
:1008BC00234605220DF12901FFF76AFF03460028A4
:1008CC0061D1BDF823209DF81D00E283BDF8042002
:1008DC0022849DF8062084F82220BDF80820A284EA
:1008EC00BDF80A20E2849DF80C2084F82820BDF87D
:1008FC000E206285BDF81020A2859DF8132084F887
:10090C002E209DF8122084F82F20BDF81620228668
:10091C00BDF8182062869DF81A2084F834209DF8C2
:10092C001C2002F00F0141EA001121829DF81B10DE
:10093C00120942EA011262829DF81E2022759DF86E
:10094C001F2062759DF82020A2759DF82120E2756C
:10095C009DF8222022769DF827206276BDF825206E
:10096C0062839DF8282022779DF82B20C2F3011278
:10097C0084F83C209DF8292084F83D209DF92D20F9
:10098C00121184F83E2018460CB010BD6FF0020313
:10099C00F9E7742373B506460D468DF807302B46E0
:1009AC00012274200DF10601FFF7F2FE0446B8B9DE
:1009BC009DF80620930716D022F003022B468DF8E3
:1009CC0006200DF1060101220DF10700FFF796FE3E
:1009DC000446AB6C42F2107069689847002CDED06C
:1009EC00204602B070BD002EFAD022F0030206F0B1
:1009FC00030632438DF806202B4601220DF1060129
:100A0C000DF10700FFF77AFE0446E9E713B50B4634
:100A1C00044660B1012274200DF10701FFF7B8FE06
:100A2C009DF8073003F00303237002B010BD4FF0A4
:100A3C00FF30FAE7F0B54D4B064618681B7987B0C6
:100A4C008DF80C30002302900DF107000D46049335
:100A5C008DF81430FFF7DAFF0446002840F083804D
:100A6C002946FFF796FF0746044666B94FF0FF3458
:100A7C009DF8070020B11CB92946FFF78AFF0446F0
:100A8C00204607B0F0BD0028F2D12B4605229DF878
:100A9C00080004A9FFF77CFE85F84D700446002879
:100AAC00E6D12A460721F01CFFF750FD044600282A
:100ABC00DED10521701CFFF749FD04460028D7D173
:100ACC00B01CFFF743FD04460028D1D13046FFF798
:100ADC003DFD04460028CBD10821301DFFF736FD23
:100AEC0004460028C4D1F3789DF814209B0022F012
:100AFC001C0203F01C0313435AB29DF81330717897
:100B0C0003F01F0343EA4113B17823F01C0389005F
:100B1C0001F01C010B438DF8133031789DF8113026
:100B2C0001F0070123F007030B4331798DF81130E5
:100B3C00082912BF0020012000219DF8103002F07E
:100B4C001F0203F07F0342EA411243EAC0138DF8FF
:100B5C0014208DF8103005222B4604A902A8FFF7AB
:100B6C00CDFD044684E7002E82D17FE79C45080822
:100B7C0037B51D4B0546D3F88000B3F884300C46CE
:100B8C000090ADF8043011B9002003B030BD052140
:100B9C00601CFFF7DBFC0028F6D1A01CFFF7D6FC8D
:100BAC000028F1D12046FFF7D1FC0028ECD1637866
:100BBC0002AA1344A27802A90A4413F8083C12F8BA
:100BCC00080C022D184423780B4413F8083C0344FA
:100BDC0040F2AB7003FB00F00BBF00F5865000F544
:100BEC00A55005300D30D0E7A44508082DE9F04F8D
:100BFC00B5B01D4622AB019204460E46184648225B
:100C0C00002103F015FC28AB0A900B9328462EAB61
:100C1C000C93FFF78DFC074628B14FF0FF342046AC
:100C2C0035B0BDE8F08F002EF7D0012C40F0D88005
:100C3C00014615900D2216A803F0FAFB05272B464A
:100C4C0011221D2015A9FFF7A3FD9DF85520044680
:100C5C00B2709DF856209DF8540002929DF85720D2
:100C6C0000F0800303929DF8582000F00F000492CE
:100C7C009DF85920337005929DF85A207070069299
:100C8C009DF85C209DF862A007929DF85D209DF870
:100C9C00648008929DF861209DF85B900992AA6887
:100CAC009DF863B0012A13BF0AF0200208F020025D
:100CBC001A4313430CBF08F010030AF0100213433D
:100CCC0033701B0675D5002C79D12B460122F11CF3
:100CDC005A30FFF75DFD0446002870D170782B4622
:100CEC0050300122311DC0B2FFF752FD04460028DE
:100CFC0065D170782B4664300122711DC0B2FFF7AC
:100D0C0047FD044600285AD1069B4FEA191040EAC9
:100D1C000310059B294640EA0330FFF7C5F9049BF5
:100D2C00B0601809039B294640EA0310029B40EA75
:100D3C000330FFF707FADDE90723F060294643EAA1
:100D4C000220FFF7DFFA3061AB68012B25D14FF49D
:100D5C0080204FEA981308F00F0820FA08F043EAB5
:100D6C008B0B03F0EDF8B34903F042F9ABF5007BC4
:100D7C000BEB4B0B04460BF5805003F0E5F80146EA
:100D8C00204603F0E9F9706196F90030002BB5BFED
:100D9C0001270027002402241CE0099B4FEA9A102B
:100DAC0095F93E200AF00F0140EA8300FFF730FC72
:100DBC00E9E724B942F21070AB6C69689847013FBF
:100DCC0017F0FF0704D0002C3FF439AF002701E0E7
:100DDC00002CD9D0019B002B3FF41FAF1F701EE7D6
:100DEC00023C012C00F2238101462F22159016A8FB
:100DFC0003F01EFB1A2239460EA80D9703F018FBC0
:100E0C002B4633221D2015A9FFF7C2FC044682464F
:100E1C00002840F09D802B461E2250200DA9FFF784
:100E2C00B7FC15AF0446002840F092800AAB53F88B
:100E3C002A807B7897F8039088F80230BB784FEAC9
:100E4C00091949EA03393B79B87949EA13197B79CD
:100E5C00000140EA0330FB797A7A40EA13130293DB
:100E6C003B7AF87B42EA03227B7B39780490A868B2
:100E7C0097F810B00393BB7B012801F00F0C21F005
:100E8C007F0114BF03F0200E0BF0200E49B20BBFF4
:100E9C0041EA0E0141EA0E010BF0100E03F0100EA8
:100EAC0041EA0E01CDE9052334AB88F8001003EBC1
:100EBC000C0111F89C1C88F801C088F8041003EB95
:100ECC000C0111F8921C9C4488F803101CF8881C27
:100EDC00029888F805102946FFF7E6F82946C8F865
:100EEC0008004846FFF72EF9059AC8F80C00294669
:100EFC001046FFF707FAAA68069B012AC8F81000EB
:100F0C003BD1049B4FEA9B1949EA83094FF4802398
:100F1C000BF00F0023FA00F003F012F8454903F030
:100F2C0067F8A9F5007909EB4909834609F5805062
:100F3C0003F00AF80146584603F00EF90AF1010ACB
:100F4C00BAF1030FC8F8140007F111077FF46EAF64
:100F5C000DF1280E724603230027002C4ED152F8B7
:100F6C00041B013B91F900100029BCBF0137FFB2F3
:100F7C0013F0FF03F3D1704638E0980903F00F012A
:100F8C00039B95F93E2040EA8300FFF741FBD5E730
:100F9C004FF00209DCF8005051F8043B95F900A021
:100FAC0093F90020BAF1000F16DA002A16DA95F838
:100FBC0002A09A78A2EB0A0292B202F1020A1FFA7C
:100FCC008AFABAF1010F02D912B2022A06DDCCF864
:100FDC00003041F8045C01E0002AF8DBB9F1020FA3
:100FEC00D6D1B8F1020F4FF0010307D0013384467C
:100FFC005FFA83F804300146C146CBE74FF0000896
:10100C004FF018097CB909FB08655EF804CB08F1B0
:10101C000108BCE80F000FC59CE80300B8F1030FF2
:10102C0085E80300EFD1002F08BF0224D2E601248B
:10103C00D0E600BF0024744947F270132DE9F04F3D
:10104C0093B0064617460D46ADF81430002900F053
:10105C00908011460020FFF79CFC0446002840F0CD
:10106C00F7806E238F4A8DF81330D2F88600D2F8B1
:10107C008A1006AB03C3B2F88E20022E1A8009AB7D
:10108C0003C31A800CAB03C31A800FAB03C30DF15F
:10109C0018091A800DF1240A0DF13C0B00F0A18007
:1010AC00032E64D0012E40F0FB805A233946688809
:1010BC008DF81830FFF7B6F964238DF83030AB8813
:1010CC008DF82400B3F57C6F4FD23F2BE2B204F1C4
:1010DC00010448D803EB8213DBB24FF000088DF803
:1010EC003C303B46324651464846FFF707FB044628
:1010FC00002840F0AD803B4632460FA90CA8FFF704
:10110C00FDFA0446002840F0A3803B4602227020E2
:10111C000FA9FFF73DFB0446002840F099802A7880
:10112C00012A40F0BA80BB68012B08BF02229DF84F
:10113C003C300FA923F0080343EAC4049DF83D306A
:10114C0005A823F00F0343EA080323F0300343EA16
:10115C0002138DF83D3002223B468DF83C40FFF7E0
:10116C00CDFA044674E09B08AFE7FF23B5E7EB68C4
:10117C0013B94FF0FF346BE0AA68002AF9D02E7C2B
:10118C005FFA84F8464501D8B046AAE708F15A013F
:10119C0009F8041032F81400394601930092FFF755
:1011AC0041F908F164080CAB03F80480019B0AF8C0
:1011BC00040033F81410009AB1F57C6F0FD20020A4
:1011CC003F295FFA80FC00F1010006D801EB8C117D
:1011DC00C9B20BF804100134D2E78908F0E7FF21FB
:1011EC00F7E7EB68002BC4D0AA680092002AC0D0A5
:1011FC006A8A4FF00008002A08BF03242E7CCDF821
:10120C0004B05FFA88FB5E4526D840F282739A429E
:10121C0041D84FF47A735A4340F2DD13B2FBF3F228
:10122C00002392B23F2AD9B203F1010331D802EB69
:10123C008112D2B28DF8122054B93B4601220DF125
:10124C0012010DF11300FFF759FA044600289BD048
:10125C00204613B0BDE8F08FCDE902320BF15A01F4
:10126C00009B09F8081033F818003946FFF7DAF834
:10127C000BF1640B0CAB03F808B0029B0AF80800E6
:10128C0033F81810019A08F80210039A08F10108B3
:10129C00B7E79208C6E7FF22CCE70246012446E7EF
:1012AC000124D5E7A445080800220271C2808022DF
:1012BC0002817047F8B5054610200E461746FEF71A
:1012CC00E4FE044618B13A46314600F05BFF204676
:1012DC002C600121BDE8F84000F070BF130A07B57F
:1012EC00C372002381720273CDE9003300F10A014D
:1012FC0001230322006800F070FF03B05DF804FBCB
:10130C00002A14BF00224FF4807210B504460A4321
:10131C00C1880A4301890A4342F400420121FFF7C4
:10132C00DDFF20464FF400420321FFF7D7FF204694
:10133C00BDE8104000220221FFF7D0BF37B50023D3
:10134C00054605F80A1FCDE90033012304461A4669
:10135C002946006800F041FF01230222294620683B
:10136C0000F08AFF608940BA80B203B030BD10B57E
:10137C0004460021FFF7E2FF237918410BB900B2B4
:10138C0010BD80B2B0F5006F28BF40F47040F6E796
:10139C00012108B5FFF7D2FFC0F3C03008BD000033
:1013AC00032910B504460FD8084B002233F811104E
:1013BC00FFF7A6FF2046FFF7EBFF0028FAD02046E8
:1013CC00BDE81040FFF7D3BF002010BD344608081D
:1013DC00002330B50E4C0133DDB28D4204D214F82B
:1013EC00015B2A4492B2F6E7022903D9830704BFB2
:1013FC00013292B200EBC001C31C00EBC10000EB48
:10140C008000C3F38D0301381844104480B230BD02
:10141C003C46080803784078303BDBB20A2B28BFE7
:10142C000023303803EB830300EB4300C0B270475A
:10143C001FB50023CDE900338DF80C108DF80D206D
:10144C000123022203A9006800F0C7FE05B05DF875
:10145C0004FB002310B586B0CDE90033012304460C
:10146C001A468DF80F1000680DF10F0100F0B5FE53
:10147C00012320681A4605A900F0FEFE9DF8140011
:10148C0006B010BD83709DF80030B1F5FA6FC370D3
:10149C009DF8043028BFA1F5FA6103719DF808305E
:1014AC0028BF89B2017042704371704730B50D4648
:1014BC0085B004460868496801AB03C32889A97A3A
:1014CC00188099700DF10D00FFF7A4FF9DF8043002
:1014DC002070413B122B16D8DFE803F0321515466D
:1014EC0015301515150A15153944421515154000FA
:1014FC009DF80530612B1FD09DF806306E2B0CBF6C
:10150C0006230723637002A8FFF784FFA0701068FE
:10151C00516801AB03C301A8FFF77CFFE0700DF12C
:10152C000700FFF777FF20710DF10A00FFF772FF3C
:10153C006071204605B030BD0123E3E70223E1E7EB
:10154C009DF80630722B0CBF04230823DAE79DF8B4
:10155C000630722B0CBF03230523D3E70923D1E7F5
:10156C000A23CFE70B23CDE70C23CBE708B5827812
:10157C0041780078FFF72CFF07230630B0FBF3F31C
:10158C00C3EBC303C01AC0B208BD08B500F0CAFE55
:10159C00BDE8084000F0D6BE1FB50446184601232E
:1015AC0000930DF10F038DF80F4000F0D9FC80F083
:1015BC000100404240B204B010BD1FB51C4660F0A3
:1015CC007F038DF80F3000232046CDE900230B4616
:1015DC0001220DF10F0100F0E5FC80F0010040420A
:1015EC0040B204B010BD1FB50446184601238DF857
:1015FC000F400DF10F040193009400F0EEFD80F00C
:10160C000100404240B204B010BD30B51446012276
:10161C00054685B01846CDE900420B460DF10F0189
:10162C008DF80F5000F047FE80F00100404240B2B0
:10163C0005B030BD00228161C0E9042202628284BF
:10164C00704770B5046A06461CB1838C1C44204656
:10165C0070BD00F1280529460120FFF79AF90028F2
:10166C00F5D12A4606F178010120FFF781FA4FF4F3
:10167C007A74B6F8843004FB030500F05BFEB5FB0E
:10168C00F4F3B3849BB230621C18E0E738B5046AFB
:10169C003CB1858C00F04EFE2C44201A20EAE07000
:1016AC0038BD4FF0FF30FBE730B589B00546FFF78A
:1016BC00C8FF60B32846FFF7E9FF002802DD4000B1
:1016CC0001F04CFA002401202C62AC8405F12803B3
:1016DC000DF1070202A9FFF789FAB8B99DF8073096
:1016EC0083B1049B05982B60069BAB6002F06CFEEB
:1016FC009DF80830686013F0300305D0079802F0AD
:10170C0063FEE860012002E0EB60FBE7204609B0D5
:10171C0030BDFFF7C9BF10B50446FFF7FAFF2068CC
:10172C0010BD10B50446FFF7F4FF606802F008FC2A
:10173C0010BD10B50446FFF7ECFFA06810BD10B546
:10174C000446FFF7E6FFE06810BD08B501B16AB9C1
:10175C00002380F8803000F1280200F18001012084
:10176C00FFF76AFCB0FA80F0400908BD0123A0F82D
:10177C00821080F88030A0F88420ECE7082908B5A6
:10178C000AD880F87C1000F128017830FFF752F964
:10179C00B0FA80F0400908BD0020FCE7052908B527
:1017AC000AD880F8791000F128017830FFF742F957
:1017BC00B0FA80F0400908BD0020FCE7052908B507
:1017CC000AD880F8781000F128017830FFF732F948
:1017DC00B0FA80F0400908BD0020FCE7052908B5E7
:1017EC000AD880F87A1000F128017830FFF722F936
:1017FC00B0FA80F0400908BD0020FCE7072908B5C5
:10180C000AD880F87B1000F128017830FFF712F924
:10181C00B0FA80F0400908BD0020FCE7F8B504469A
:10182C0040690F46164600284FD1206910B110218F
:10183C00FEF72FFC1020FEF728FC054618B13946A0
:10184C00A26900F09FFC01212846256100F0B6FC3E
:10185C0008B90020F8BD012384F83430236984F8DA
:10186C002870E362224BA366224BE366192384F8AB
:10187C003630214B04F1280528462367FEF7DFFF9D
:10188C000028E6D186B302212046FFF7B7FF0821D6
:10189C002046FFF773FF02212046FFF78FFF03213D
:1018AC002046FFF79BFF04212046FFF777FF962287
:1018BC004FF4A0712046FFF748FF29460120FFF79F
:1018CC0068F8B0FA80F04009C4E700F02FFA00285D
:1018DC00BFD0002384F8283084F834306369E36285
:1018EC00064BA366064BC0E732463146E2E700BF23
:1018FC0017160808F315080897150808C7150808DF
:10190C00A51508081FB501F0ABFA4FF4165101F0FC
:10191C008DFA01F085FD01461E4800F067FB684614
:10192C001C4900F0DCFB1C4A1C4902A8FFF7BEFD59
:10193C0002A9184800F072FB194800F091F9012235
:10194C0076211848FFF76AFF012276211548FFF728
:10195C0065FF28B901F084FA134900F0FCFFFEE79B
:10196C0004211048FFF71AFF02210E48FFF726FF4B
:10197C0003210C48FFF732FF02210A48FFF73EFF14
:10198C0096224FF4A0710748FFF7DFFE05B05DF813
:10199C0004FB00BFD8010020474608085046080841
:1019AC00A4000020440100205C46080870B58AB0F1
:1019BC00704908A800F093FB9DF820206E4B02F5AF
:1019CC00FA621A606D499DF821306D480B609DF8E4
:1019DC0022106C4C01609DF823006B4D20609DF82B
:1019EC0024406A4E2C609DF82550CDE90010CDE9BD
:1019FC00024567496748356000F080FE04A86649D7
:101A0C0000F05EF9654C049B65482360059B6360A0
:101A1C00BDF818302381FFF77CFE30B901F020FAB5
:101A2C00604900F098FF0AB070BD00F083FC5E4D79
:101A3C002B68C01A41F287339842F4D900F07AFC33
:101A4C00286001F00DFA00F070FF01F009FA51491D
:101A5C0000F060FF01F004FA544900F062FF01F05D
:101A6C00FFF90A22218800F078FF01F0F9F94F49BB
:101A7C0000F057FF642001F071F801F0F1F90A222F
:101A8C00618800F06AFF01F0EBF9484900F049FF6A
:101A9C00642001F063F801F0E3F90A22A18800F058
:101AAC005CFF01F0DDF9414900F03BFF642001F0DF
:101ABC0055F801F0D5F90A22E18800F04EFF01F04B
:101ACC00CFF93A4900F02DFF642001F047F801F0FE
:101ADC00C7F90A22218900F040FF01F0C1F933490E
:101AEC0000F01FFF642001F039F801F0B9F9044649
:101AFC002B48FFF710FE02220146204601F00CF89D
:101B0C0001F0AEF9294900F00CFF01F0A9F90446E7
:101B1C002348FFF706FE02220146204600F0FCFF98
:101B2C0001F09EF9214900F0FCFE01F099F9044600
:101B3C001B48FFF7FEFD02220146204600F0ECFF99
:101B4C0001F08EF9194900F0ECFE01F089F9044618
:101B5C001348FFF7F4FD0A220146204600F0FDFE73
:101B6C0001F07EF9114900F0DCFE642000F0F6FF74
:101B7C0059E700BFD8010020940000208400002009
:101B8C0080000020DC010020E4010020E80100209E
:101B9C009046080800000020A400002098000020B7
:101BAC0044010020AE460808E0010020CB4608089E
:101BBC0010B500240B4B0C4AC3E900449A60012079
:101BCC0000F0F8FC2146012000F004FD074800F06D
:101BDC0011F801F025FCBDE8104001460448FFF760
:101BEC0029BD00BF880000200000FFFFA4000020DA
:101BFC004401002070B50446051D00F1A4062846DA
:101C0C001435FFF751FBB542F9D14FF4A472A282FF
:101C1C004FF4127222854FF45272A2874922A4F813
:101C2C00502040F249124823A4F8642040F2492283
:101C3C002380A4F87820002340F249322046A37078
:101C4C00A37584F82A3084F83E3084F8523084F836
:101C5C00663084F87A30A4F88C2084F88E3070BD0D
:101C6C002DE9F843044606464FF00108051D00F126
:101C7C00A40715F8049C01F0D3FB494602462846FC
:101C8C00FFF718FB08B105F8028C1435BD42F0D1F2
:101C9C00A034B07810B11436A642FAD1BDE8F8835E
:101CAC0008B5142359434218937833B10B1D1844CB
:101CBC005178FFF775FB80B208BD4FF61940FBE772
:101CCC0038B50D46044600212846FFF7E9FF208071
:101CDC00642000F043FF01212846FFF7E1FF6080FC
:101CEC00642000F03BFF02212846FFF7D9FFA080BB
:101CFC00642000F033FF642000F030FF04212846FC
:101D0C00FFF7CEFFE080642000F028FF642000F095
:101D1C0025FF06212846FFF7C3FF2081642000F031
:101D2C001DFF642000F01AFF204638BD38B504466C
:101D3C0090F90E00411C09D0012180B201F0D4FAB7
:101D4C0094F90E00012180B201F0DFFA256835B15B
:101D5C00284600F0FEFC012084F8340038BD94F9CC
:101D6C000F00012180B201F0BFFA637B94F90F00E0
:101D7C00012B94BF2946012180B201F0C6FA94F9D7
:101D8C001000421C09D0012180B201F0ADFA94F987
:101D9C001000012180B201F0B8FA94F91100431C33
:101DAC00D9D0002180B201F09FFAD4E72DE9F04F91
:101DBC00044600680D46134685B038B100220092E7
:101DCC000A4600F05BFD05B0BDE8F08F227BA068F1
:101DDC00002A0CBF4FF0010B4FF0800B0A78444FD8
:101DEC001BEA020FB7FBF0F70CBF4FF001094FF0E5
:101DFC000009CB18FFB20393039BAB42E3D05E46C2
:101E0C004FF0000895F800A017B1384600F08AFA98
:101E1C00637B13F0FD0F41D194F910305A1C0FD095
:101E2C001AEA060114BF012300234B4508D063694D
:101E3C00606A1A6800292CD04FF0010902431A601D
:101E4C00A169E36A0A6813430B6017B1384600F0C6
:101E5C0069FA94F91130013306D0E3691A68A36A60
:101E6C001A4218BF46EA0808A169E36A0A6822EA1E
:101E7C0003030B6094F91130013318BF85F800800F
:101E8C00237B002B32D17600F6B2002EBCD101356B
:101E9C00B2E722EA000289461A60D1E7A169E36A37
:101EAC000A6813430B6017B1384600F03BFA94F9FB
:101EBC001030013308D06369616A1A681AEA060F98
:101ECC0014BF0A438A431A60A169E36A0A6822EACA
:101EDC0003030B6094F911300133CBD0E3691A681A
:101EEC00A36A1A4218BF46EA0808C3E77608CCE78B
:101EFC0020A1070007B501228DF807100DF107018D
:101F0C00FFF754FF9DF8070003B05DF804FB034690
:101F1C00006810B1596800F045BC7047006808B102
:101F2C0000F026BC704790F90E00431C03D0C9B2D8
:101F3C0080B201F0EAB9704710B50446FFF7E7FF2D
:101F4C002046BDE810400021FFF7EDBF10B5044658
:101F5C000121FFF7E8FF2046BDE81040FFF7DEBF88
:101F6C002DE9F0411C4606460D461746FFF7E4FFE7
:101F7C00069B04EB0308444508D12F44BD420BD00B
:101F8C00304615F8011BFFF7B5FFF7E7304614F89C
:101F9C00011BFFF7AFFFEEE73046FFF7D7FF01203D
:101FAC00BDE8F0812DE9F0410D46174606461C466A
:101FBC009DF81C80FFF7C0FF2F44BD420AD1069B41
:101FCC00E518AC420CD041463046FFF793FF04F8BD
:101FDC00010BF6E7304615F8011BFFF78BFFECE71A
:101FEC003046FFF7B3FF0120BDE8F08170B5054620
:101FFC0000680E4610B11021FEF74BF81020FEF7CA
:10200C0044F8044618B13246682100F0BBF820466B
:10201C002C600121BDE8704000F0D0B8F0B50A2466
:10202C004B790027B3FBF4F202EB420285B003EBD1
:10203C004203CDE902778DF809300B790646B3FBE4
:10204C00F4F202EB420203EB42038DF80A30CB7838
:10205C000846B3FBF4F202EB420203EB42030D46DB
:10206C008DF80B30FFF782FA031E08BF0723B3FB72
:10207C00F4F000EB400003EB40038DF80C30AB7830
:10208C00CDE90077B3FBF4F202EB420203EB42031F
:10209C008DF80D306B783068B3FBF4F202EB420232
:1020AC0003EB42038DF80E302B780822B3FBF4F4CB
:1020BC0004EB44040DEB020103EB440401238DF803
:1020CC000F4000F08AF80F213046FFF7C2F90F21BC
:1020DC0000F07F023046FFF7ABF905B0F0BD0023EE
:1020EC00F0B587B001938DF81030072305460846EC
:1020FC00009304AB19460122006800F0DCF89DF84F
:10210C0010409DF8143004F07F07C4F30214A4EBC4
:10211C0084049DF8116007EB4404E4B29DF816109A
:10212C009DF8120002944FEA131C34099DF81520F7
:10213C00ACEB8C0CA4EB840403EB4C0306EB4406D5
:10214C004FEA111C040902F07F0EACEB8C0CA4EBD3
:10215C008404C2F3021201EB4C0100EB4400A2EB2D
:10216C0082020EEB4202F6B2C0B2C9B200900196E6
:10217C002846DBB2D2B201F5FA61FFF783F92846A3
:10218C0007B0F0BD42600022027220220170C260D2
:10219C00704710B5037A044653B12178606800F09B
:1021AC00E4FF606800F0E9FFB0FA80F0400910BD70
:1021BC00012100F003F80028EFD1F8E738B5044608
:1021CC0040680D4600F0A2FF0120207225B1204688
:1021DC00BDE83840FFF7DDBF38BD2DE9F8431F4699
:1021EC00DDE90896C368154632449A42044688468F
:1021FC0002D90020BDE8F8830178406800F0B5FFF3
:10220C007EB960682A4603684146DB689847854278
:10221C00EFD13946606800F0ACFFB0FA80F04009AD
:10222C00E8E7B9F1000FECD0606832460368494624
:10223C00DB6898478642DCD1E3E72DE9F04115468F
:10224C0004460E46D2B20178406800F07CFF85420D
:10225C000DD100271FFA87F8A84507F1010709D20D
:10226C00606803685B69984706F80800F2E700208D
:10227C00BDE8F0810120FBE72DE9F84307468846CD
:10228C00164699460025B54212D2FA68741B944240
:10229C0028BF1446331BAB4294BF4B460023224647
:1022AC00384608EB0501FFF7C8FF10B12544EAE7F3
:1022BC000120BDE8F88373B51D460023CDE900333A
:1022CC009DF81C300446069EFFF787FF40B10123A2
:1022DC0032462946204602B0BDE87040FFF7CCBF1D
:1022EC0002B070BD08B5024B1B689B68019308BD1A
:1022FC00B001040808B5024B1B68DB68019308BDEC
:10230C00B001040808B5024B1B681B69019308BD9A
:10231C00B001040808B5024B1B685B68019308BD4B
:10232C009C01040808B5024B1B68DB68019308BDCF
:10233C009C01040808B5024B1B685B69019308BD3E
:10234C009C01040808B5024B1B68DB68019308BDAF
:10235C00D001040808B5024B1B685B6C019308BDE7
:10236C00D001040808B5024B1B689B6C019308BD97
:10237C00D001040808B5024B1B68DB6C019308BD47
:10238C00D001040808B5024B1B685B6D019308BDB6
:10239C00D001040808B5024B1B685B6A019308BDA9
:1023AC00C401040808B5024B1B689B6A019308BD65
:1023BC00C401040808B5024B1B68DB6A019308BD15
:1023CC00C401040808B5024B1B681B6B019308BDC4
:1023DC00C401040808B5024B1B685B6B019308BD74
:1023EC00C401040808B5024B1B689B6B019308BD24
:1023FC00C401040808B5024B1B681B6C019308BD93
:10240C00C401040808B5024B1B681B6E019308BD80
:10241C00C401040808B5024B1B68DB68019308BDB6
:10242C00AC01040808B5024B1B689B69019308BDFD
:10243C00AC01040808B5024B1B68DB69019308BDAD
:10244C00AC01040808B5024B1B681B6A019308BD5C
:10245C00AC01040808B5024B1B685B6A019308BD0C
:10246C00AC01040808B5024B1B689B6A019308BDBC
:10247C00AC01040808B5024B1B68DB6A019308BD6C
:10248C00AC01040808B5024B1B681B6B019308BD1B
:10249C00AC01040808B5024B1B685B6B019308BDCB
:1024AC00AC01040808B5024B1B681B6C019308BDFA
:1024BC00AC01040808B5024B1B681B6D019308BDE9
:1024CC00AC01040808B5024B1B681B68019308BDDE
:1024DC00B401040808B5024B1B68DB69019308BD05
:1024EC00B401040808B5024B1B681B6A019308BDB4
:1024FC00B401040808B5024B1B685B6A019308BD64
:10250C00B401040808B5024B1B689B6A019308BD13
:10251C00B401040808B5024B1B689B6B019308BD02
:10252C00B401040808B5024B1B68DB6B019308BDB2
:10253C00B401040808B5024B1B68DB6B019308BDA2
:10254C002000060808B5024B1B681B68019308BDE8
:10255C001C00060808B5024B1B685B68019308BD9C
:10256C001C00060808B5024B1B681B69019308BDCB
:10257C001C00060808B5024B1B685B69019308BD7B
:10258C001C00060808B5024B1B689B69019308BD2B
:10259C001C00060808B5024B1B68DB69019308BDDB
:1025AC001C00060808B5024B1B681B6A019308BD8A
:1025BC001C00060808B5024B1B685B68019308BD3C
:1025CC00A401040808B5024B1B685B69019308BDA4
:1025DC00A401040808B5024B1B68DB6A019308BD13
:1025EC00A401040808B5034B1B68D3F89030019381
:1025FC0008BD0000A401040808B5034B1B68D3F800
:10260C009C30019308BD0000A401040808B5024BDE
:10261C001B685B68019308BDC801040808B5024B30
:10262C001B689B68019308BDC801040808B5024BE0
:10263C001B68DB68019308BDC801040808B5024B90
:10264C001B681B69019308BDC801040808B5024B3F
:10265C001B685B69019308BDC801040808B5024BEF
:10266C001B689B69019308BDC801040808B5024B9F
:10267C001B68DB69019308BDC801040808B5024B4F
:10268C001B681B6A019308BDC801040808B5024BFE
:10269C001B681B6B019308BDC801040808B5024BED
:1026AC001B685B6B019308BDC801040808B5024B9D
:1026BC001B681B6C019308BDC801040808B5024BCC
:1026CC001B685B6C019308BDC801040808B5024B7C
:1026DC001B68DB6B019308BDCC01040808B5024BE9
:1026EC001B681B68019308BDA001040808B5024BC8
:1026FC001B685B68019308BDA001040808B5024B78
:10270C001B68DB68019308BDA001040808B5024BE7
:10271C001B681B6C019308BDA001040808B5024B93
:10272C001B685B6C019308BDA0010408FFF72ABE6F
:10273C00FFF720BE70B5002604460D4640F8086F22
:10274C00FFF708FE28462570FFF7C4FE204666609A
:10275C0070BD10B504468068FFF7EAFF20784FF68D
:10276C00FF71FFF7AFFEA068BDE81040FFF7DEBFBA
:10277C008068FFF7DBBF000030B50024400818600C
:10278C001868E5B2884206D90134082C02D04008FA
:10279C001860F5E70725024B5B5D137030BD00BF79
:1027AC00CD4608082DE9F04306468FB080680C46EC
:1027BC00FFF7BEFF1422002109A8357801F038FE7E
:1027CC000B230022284609A9ADF82430FFF792FE0E
:1027DC009DF82D3013B19DF82C5055B100270125D3
:1027EC00B946B84623795DB1C3B100200FB0BDE83E
:1027FC00F083DDF830809DF834909DF83570F1E76A
:10280C00002B35D1A368434508D18DF820908DF865
:10281C002170BDF82020A3899A42E6D00023A1683C
:10282C008DF80F300A9804AB0DF10F02FFF7A4FFDF
:10283C00217985B989B9A36843450ED38DF82090C9
:10284C008DF82170BDF82020A3899A4205D1049BF4
:10285C00434502D1C9E70029F9D100230193637BD9
:10286C009DF80F200093237B3078FFF75BFEBCE7CD
:10287C002B462A460121CDE90055F5E730B587B046
:10288C000A9D044600950078FFF73CFE3DB9207880
:10289C0002A9FFF73FFE9DF81430DB07F7D407B011
:1028AC0030BD000002220020044B1A60044B054A84
:1028BC00C3E900009A60FFF77DBE00BFF80100205D
:1028CC00EC0100200000FFFFF8B506460D46002481
:1028DC008F18BD420CD0336830469B6815F8011B2D
:1028EC009847031E01DB1C44F3E7002C08BF1C4671
:1028FC002046F8BD70B505460C46084649B101F0B6
:10290C00CDFD2B68024621462846BDE87040DB68A9
:10291C00184770BD08B5FFF7EDFF08BD03689B684D
:10292C00184708B5FFF7E6FF08BD38B50D21054679
:10293C00FFF7F4FF0A2104462846FFF7EFFF204477
:10294C0038BD38B50546FFF7D5FF04462846FFF7D6
:10295C00ECFF204438BDFFF7F4BF0023012A98BFD9
:10296C000A2230B58BB00C468DF8243009A92546C7
:10297C00B4FBF2F404FB1253DBB2092B94BF3033DB
:10298C003733DBB2AA4201F8013DF0D9FFF7B2FFB1
:10299C000BB030BD2DE9F74F05461946104692464F
:1029AC001F469DF8306001F0B7F940B151492846F7
:1029BC00FFF7A0FF0446204603B0BDE8F08F27F0D8
:1029CC0000444FF0FF32504621464B4B01F0A4F926
:1029DC0048B94FF0FF3250462146474B01F07EF983
:1029EC0008B94649E3E74FF0604250463946444B3C
:1029FC0001F088F908B14349D9E74FF060425046DD
:102A0C003946414B01F060F90028F4D10022002333
:102A1C005046394601F058F9044630B12D2128466C
:102A2C00FFF77CFF044607F100474FF0000B002036
:102A3C004FF000083549DFF8D8905FFA8BF39E42CF
:102A4C0006D942464B4600F0F7FF0BF1010BF4E7B9
:102A5C003B46524600F010FD8946804601F09AF93B
:102A6C00074600F045FE02460B464046494600F03C
:102A7C0001FD0A228046894628463946FFF76DFF3C
:102A8C000444002E97D028462249FFF733FF4FF01D
:102A9C00000ADFF87CB00444002E8CD052465B4612
:102AAC004046494600F09EFE8046894601F04AF9B0
:102ABC00071E1BDA2D212846FFF730FF034679420B
:102ACC000A2228460193FFF748FF019B013E03446D
:102ADC0038461C4400F01CFE02460B464046494654
:102AEC0000F0C8FCF6B280468946D5E7394600238B
:102AFC00E6E700BFD5460808FFFFEF7FD946080878
:102B0C00FFFFEF41DD460808FFFFEFC10000E03F8B
:102B1C0000002440E146080837B50546144608462F
:102B2C0000F008FEE4B202460B4628460094FFF77C
:102B3C0031FF03B030BD0000014B024A1A607047F0
:102B4C00FC010020E3460808024B1A68024B1A608D
:102B5C00704700BF14000020000200200021FFF786
:102B6C0031BD00000022014B9A6070470402002026
:102B7C00014B1860704700BF1800002008B5174BB8
:102B8C0043B100F06DF903681B699847002801DD1B
:102B9C00AFF30080124B43B100F0F2FB03681B69EA
:102BAC009847002801DDAFF300800E4B0BB1AFF35B
:102BBC0000800D4B0BB1AFF300800C4B0BB1AFF39E
:102BCC0000800B4B43B100F085F903681B699847F3
:102BDC00002801DDAFF3008008BD00BF000000003D
:102BEC0000000000000000000000000000000000D9
:102BFC000000000008B5FFF7C1FFFFF79BFB014B7E
:102C0C00186008BDB00500200548064A08B5121A20
:102C1C00054901F0FFFB054B054A1A6008BD00BFD2
:102C2C000040024004400240D048080800400240E6
:102C3C001E1C279A002307B51A466FF077010093E4
:102C4C00FFF7DAFC03B05DF804FB000007B543881E
:102C5C000A2B08D0502B0BD1094B1B684BB103B07E
:102C6C005DF804EB1847FFF7E5FF03B05DF804FBD4
:102C7C0000231A466FF077010093FFF7BDFCF4E7D1
:102C8C0018020020002110B51148FFF747FD114B29
:102C9C001A68114B9A420CBF012200220F4B1A707A
:102CAC0001D0FFF7B1FFFFF735FB044601F0C8FB7D
:102CBC000B4B13B12046AFF3008000210848FFF7FF
:102CCC0005FDBDE8104000210648FFF78BBC00BF96
:102CDC007D2B0808004002401E1C279A140200207D
:102CEC0000000000592C08087047F8B50E46002467
:102CFC0000F10807051D17F8011D0A223046FFF7E1
:102D0C002CFEAF42044401D12046F8BD002CF2D079
:102D1C002E213046FFF702FE0444ECE710B50446C2
:102D2C000821FDF7B6F9204610BD0000024A0260EA
:102D3C0000224260704700BF0C470808024A02603C
:102D4C000A684260704700BF0C470808014AC0E996
:102D5C00002170470C47080810B59DF8084044EA5C
:102D6C00032444EA024444EA0164446010BD0000B8
:102D7C0013B5044C04609DF810400094FFF7ECFF71
:102D8C0002B010BD0C47080841747047704770477B
:102D9C0008B50021007CFFF7F5FB40EAE07008BDA8
:102DAC0008B50121007CFFF7EDFB40EAE07008BD9F
:102DBC0008B5007CFFF7DEFB20EAE07008BD08B523
:102DCC00007CFFF7CFFB20EAE07008BD38B5044665
:102DDC00007C0D46FFF7CEFB002801DC607C28B19F
:102DEC002946207CFFF7D6FB20EAE07038BD007C3A
:102DFC00FFF7D8BB10B504461421FDF74AF920465D
:102E0C0010BD704710B54FF47A7304460846002184
:102E1C00C4E90113044B207423600123114663742D
:102E2C00FFF790FB204610BD204708080022007CCD
:102E3C00FFF790BB10B504461422002101F0F8FAFC
:102E4C00054B20466360054BE36040F20113238180
:102E5C008123238210BD00BF4C0200204D030020B3
:102E6C0030B50E4D87B001A8FFF7E4FF2978BFF30A
:102E7C005B8F11F001040ED12846FDF70CF950B10F
:102E8C00214601AA0648FFF7BDFF2846FDF708F9C1
:102E9C00044801F0B9FA024807B030BD1C0200200A
:102EAC0024020020992D080810B504461422002194
:102EBC0001F0BEFA054B20466360054BE36040F21F
:102ECC00011323818123238210BD00BFCE03002078
:102EDC00CF04002010B50E4C86B001A8FFF7E4FF1C
:102EEC002378BFF35B8FDB070ED42046FDF7D3F8B6
:102EFC0050B1012101AA0748FFF784FF2046FDF7D6
:102F0C00CFF8054801F080FA024806B010BD00BFAA
:102F1C0020020020380200200F2E080800224068F2
:102F2C001146FFF78BBBF0B5002685B00446104662
:102F3C000F461546039601F0B1FA7B6881B20096F4
:102F4C00284603AAFFF7F6FA30B131462046FFF7C0
:102F5C00FDFE204605B0F0BD204603A9FFF7EEFEAE
:102F6C00F7E7002240681146FFF788BB0022406853
:102F7C001146FFF793BB00224068FFF787BB002286
:102F8C00406881F00101FFF771BB002340681A46CD
:102F9C001946FFF763BB002340681A461946FFF732
:102FAC0055BB002240681146FFF738BB00220221B6
:102FBC004068FFF73BBB002340681A46FFF726BB6F
:102FCC0010B52824074B22461846002101F030FA90
:102FDC004FF0FF3242600422034B04805A60034AD4
:102FEC001A6010BD580500205005002050470808F5
:102FFC0070474174704708B5007CFFF7FBF920EA75
:10300C00E07008BD08B5007CFFF7CCF920EAE07051
:10301C0008BD08B5007CFFF7D5F940EAE07008BDA3
:10302C0008B5007CFFF7C6F940EAE07008BD007CEB
:10303C00FFF7D0B970B5467C04460D462EB1294633
:10304C00207CBDE87040FFF7A5B9007CFFF7D2F9F2
:10305C000028F4DC304670BD10B504461421FDF791
:10306C0018F8204610BD000010B54FF47A730446D2
:10307C00084611460022C4E90123044B2074236046
:10308C0001236374FFF7BEF9204610BD8C47080876
:10309C007047F8B5064615460C468F18BC4206D04C
:1030AC00336830469B6814F8011B9847F6E72846AE
:1030BC00F8BD0022007CFFF7C5B90021007CFFF7AA
:1030CC00C9B90021007CFFF7CDB90021007CFFF7C6
:1030DC00D1B90021007CFFF7D5B910B504461421F5
:1030EC00FCF7D7FF204610BD10B54FF47A73044699
:1030FC0008460021C4E90113034B114623602074D8
:10310C00FFF7D0F9204610BDBC4708080023007C0F
:10311C001A461946FFF77EB97FB500221423CDE974
:10312C000122ADF804300B78007C8DF808304B6828
:10313C000393CB6804930B7A01A90593FFF7BAF9B3
:10314C0007B05DF804FB1FB5003B8DF800104FF085
:10315C00640118BF01230391694601928DF8083070
:10316C00FFF7DAFF05B05DF804FB0022007CFFF7E7
:10317C0059B90022007CFFF75DB90121FFF7F9BFB7
:10318C00002340681A46FFF741BA0022022140682A
:10319C00FFF74CBA002240681146FFF73FBA0022F5
:1031AC0040681146FFF74ABA002340681A46194690
:1031BC00FFF74CBA002340681A461946FFF74EBA7F
:1031CC0000214068FFF772BA00214068FFF776BA19
:1031DC000022406881F00101FFF748BA00224068E4
:1031EC00FFF754BA002240681146FFF757BA002285
:1031FC0040681146FFF742BA70B51546002686B0F6
:10320C00044604A8FFF792FD2846039601F046F900
:10321C000A4B009681B25B68284603AAFFF78AF92D
:10322C0030B131462046FFF791FD204606B070BD07
:10323C00204603A9FFF782FDF7E700BF50050020E9
:10324C00024B034A1A6000225A6070478005002026
:10325C00E4470808024B986808B1FFF783B8704739
:10326C008C0500202E2870B5044601D9002070BDB5
:10327C00A0F10D03022B0BD9012824D800F0D0F8B3
:10328C000021007CFFF706F980F00100C0B2EEE7E8
:10329C00124E3178BFF35B8F11F001050DD1304622
:1032AC00FCF7F9FE48B129460D48FFF743FA3046C2
:1032BC00FCF7F6FE0B4801F0A7F8094B1878FFF75E
:1032CC0011F90028D2D1123C012C05D800F058F885
:1032DC00007CFFF787F8D7E70120C8E788050020B6
:1032EC008C050020613208082E2838B504460D469E
:1032FC000AD8FF2908D0FFF7B5FF28B12946204688
:10330C00BDE83840FEF7EEBF38BD38B504460D4673
:10331C00FEF7F0FFFF2810D0062804D84D2323FA1F
:10332C0000F0C30709D42046FFF79CFF28B12946BB
:10333C002046BDE83840FEF7E5BF38BD70470000B9
:10334C0070B5142504462A46002101F071F8258039
:10335C008025074E284631462581258200F084F8C9
:10336C0031466060284600F07FF8E060204670BD72
:10337C001848080810B50446FFF7E2FF204610BDB8
:10338C0030B50E4D87B02978BFF35B8F11F0010477
:10339C0011D12846FCF77FFE68B101A8FFF7EAFFC0
:1033AC00214601AA0648FFF75FFE2846FCF778FE87
:1033BC00044801F029F8024807B030BD98050020F8
:1033CC009C05002049330808002307B51A46194606
:1033DC0000930348FFF7CCFC03B05DF804FB00BF7F
:1033EC00B40500207047000070B514232025084E4A
:1033FC0004460360314685600561284600F034F8C8
:10340C0031466060284600F02FF8E060204670BD21
:10341C001848080810B50446FFF7E6FF204610BD13
:10342C0030B50E4D87B02978BFF35B8F11F00104D6
:10343C0011D12846FCF72FFE68B101A8FFF7EAFF6F
:10344C00214601AA0648FFF74FFE2846FCF728FE46
:10345C00044800F0D9FF024807B030BDBC0500207D
:10346C00C0050020F1330808FCF711BE81F00041C3
:10347C0002E000BF83F0004330B54FEA41044FEA4D
:10348C00430594EA050F08BF90EA020F1FBF54EAE8
:10349C00000C55EA020C7FEA645C7FEA655C00F084
:1034AC00E2804FEA5454D4EB5555B8BF6D420CDD55
:1034BC002C4480EA020281EA030382EA000083EAD8
:1034CC00010180EA020281EA0303362D88BF30BD78
:1034DC0011F0004F4FEA01314FF4801C4CEA1131CE
:1034EC0002D0404261EB410113F0004F4FEA03332D
:1034FC004CEA133302D0524263EB430394EA050FB8
:10350C0000F0A780A4F10104D5F1200E0DDB02FA26
:10351C000EFC22FA05F2801841F1000103FA0EF2BA
:10352C00801843FA05F359410EE0A5F120050EF180
:10353C00200E012A03FA0EFC28BF4CF0020C43FAB1
:10354C0005F3C01851EBE37101F0004507D54FF0BE
:10355C00000EDCF1000C7EEB00006EEB0101B1F50E
:10356C00801F1BD3B1F5001F0CD349085FEA300054
:10357C004FEA3C0C04F101044FEA445212F5800F5F
:10358C0080F09A80BCF1004F08BF5FEA500C50F1FC
:10359C00000041EB045141EA050130BD5FEA4C0CDF
:1035AC00404141EB0101013C28BFB1F5801FE9D23C
:1035BC0091F0000F04BF01460020B1FA81F308BF5F
:1035CC002033A3F10B03B3F120020CDA0C3208DD2B
:1035DC0002F1140CC2F10C0201FA0CF021FA02F106
:1035EC000CE002F11402D8BFC2F1200C01FA02F176
:1035FC0020FA0CFCDCBF41EA0C019040E41AA2BF9B
:10360C0001EB0451294330BD6FEA04041F3C1CDA62
:10361C000C340EDC04F11404C4F1200220FA04F082
:10362C0001FA02F340EA030021FA04F345EA03012C
:10363C0030BDC4F10C04C4F1200220FA02F001FAEE
:10364C0004F340EA0300294630BD21FA04F0294670
:10365C0030BD94F0000F83F4801306BF81F4801109
:10366C000134013D4EE77FEA645C18BF7FEA655C7C
:10367C0029D094EA050F08BF90EA020F05D054EA4E
:10368C00000C04BF1946104630BD91EA030F1EBF53
:10369C000021002030BD5FEA545C05D14000494157
:1036AC0028BF41F0004130BD14F580043CBF01F54A
:1036BC00801130BD01F0004545F0FE4141F4700130
:1036CC004FF0000030BD7FEA645C1ABF194610460B
:1036DC007FEA655C1CBF0B46024650EA013406BF0C
:1036EC0052EA033591EA030F41F4002130BD00BFCB
:1036FC0090F0000F04BF0021704730B54FF4806488
:10370C0004F132044FF000054FF0000150E700BF08
:10371C0090F0000F04BF0021704730B54FF4806467
:10372C0004F1320410F0004548BF40424FF0000154
:10373C003EE700BF42004FEAE2014FEA31014FEA97
:10374C0002701FBF12F07F4393F07F4F81F06051E6
:10375C00704732F07F4208BF704793F07F4F04BF31
:10376C0041F40021704730B54FF4607401F000450E
:10377C0021F000411CE700BF50EA010208BF70476E
:10378C0030B54FF000050AE050EA010208BF70475F
:10379C0030B511F0004502D5404261EB41014FF4C8
:1037AC00806404F132045FEA915C3FF4D8AE4FF0D0
:1037BC0003025FEADC0C18BF03325FEADC0C18BFB3
:1037CC00033202EBDC02C2F1200300FA03FC20FA04
:1037DC0002F001FA03FE40EA0E0021FA02F1144451
:1037EC00BDE600BF70B54FF0FF0C4CF4E06C1CEA6A
:1037FC0011541DBF1CEA135594EA0C0F95EA0C0FDB
:10380C0000F0DEF82C4481EA030621EA4C5123EA4D
:10381C004C5350EA013518BF52EA033541F480117C
:10382C0043F4801338D0A0FB02CE4FF00005E1FB2F
:10383C0002E506F00042E0FB03E54FF00006E1FB79
:10384C0003569CF0000F18BF4EF0010EA4F1FF04BC
:10385C00B6F5007F64F5407404D25FEA4E0E6D41FC
:10386C0046EB060642EAC62141EA55514FEAC5200D
:10387C0040EA5E504FEACE2EB4F1FD0C88BFBCF589
:10388C00E06F1ED8BEF1004F08BF5FEA500E50F13A
:10389C00000041EB045170BD06F0004646EA010100
:1038AC0040EA020081EA0301B4EB5C04C2BFD4EB32
:1038BC000C0541EA045170BD41F480114FF0000E2B
:1038CC00013C00F3AB8014F1360FDEBF002001F099
:1038DC00004170BDC4F10004203C35DA0C341BDC13
:1038EC0004F11404C4F1200500FA05F320FA04F0E5
:1038FC0001FA05F240EA020001F0004221F0004119
:10390C0010EBD37021FA04F642EB06015EEA430E8B
:10391C0008BF20EAD37070BDC4F10C04C4F12005BB
:10392C0000FA04F320FA05F001FA04F240EA02006E
:10393C0001F0004110EBD37041F100015EEA430E3F
:10394C0008BF20EAD37070BDC4F1200500FA05F25F
:10395C004EEA020E20FA04F301FA05F243EA0203DE
:10396C0021FA04F001F0004121FA04F220EA0200ED
:10397C0000EBD3705EEA430E08BF20EAD37070BD33
:10398C0094F0000F0FD101F00046400041EB010113
:10399C0011F4801F08BF013CF7D041EA060195F0F5
:1039AC00000F18BF704703F00046520043EB0303AF
:1039BC0013F4801F08BF013DF7D043EA060370479C
:1039CC0094EA0C0F0CEA135518BF95EA0C0F0CD0A7
:1039DC0050EA410618BF52EA4306D1D181EA0301ED
:1039EC0001F000414FF0000070BD50EA410606BFE7
:1039FC001046194652EA430619D094EA0C0F02D12C
:103A0C0050EA013613D195EA0C0F05D152EA033670
:103A1C001CBF104619460AD181EA030101F000418E
:103A2C0041F0FE4141F470014FF0000070BD41F0D7
:103A3C00FE4141F4780170BD70B54FF0FF0C4CF4B1
:103A4C00E06C1CEA11541DBF1CEA135594EA0C0FD0
:103A5C0095EA0C0F00F0A7F8A4EB050481EA030E1D
:103A6C0052EA03354FEA013100F088804FEA033304
:103A7C004FF0805545EA131343EA12634FEA0222D2
:103A8C0045EA111545EA10654FEA00260EF0004193
:103A9C009D4208BF964244F1FD0404F5407402D2E5
:103AAC005B084FEA3202B61A65EB03055B084FEA76
:103ABC0032024FF480104FF4002CB6EB020E75EB73
:103ACC00030E22BFB61A754640EA0C005B084FEA9B
:103ADC003202B6EB020E75EB030E22BFB61A754618
:103AEC0040EA5C005B084FEA3202B6EB020E75EB63
:103AFC00030E22BFB61A754640EA9C005B084FEADB
:103B0C003202B6EB020E75EB030E22BFB61A7546E7
:103B1C0040EADC0055EA060E18D04FEA051545EAD6
:103B2C0016754FEA06164FEAC30343EA52734FEA7F
:103B3C00C2025FEA1C1CC0D111F4801F0BD141EAF8
:103B4C0000014FF000004FF0004CB6E711F4801F5D
:103B5C0004BF01430020B4F1FD0C88BFBCF5E06F3D
:103B6C003FF6AFAEB5EB030C04BFB6EB020C5FEA4D
:103B7C00500C50F1000041EB045170BD0EF0004EA2
:103B8C004EEA113114EB5C04C2BFD4EB0C0541EAD4
:103B9C00045170BD41F480114FF0000E013C90E6D1
:103BAC0045EA060E8DE60CEA135594EA0C0F08BF95
:103BBC0095EA0C0F3FF43BAF94EA0C0F0AD150EA94
:103BCC0001347FF434AF95EA0C0F7FF425AF104627
:103BDC0019462CE795EA0C0F06D152EA03353FF44F
:103BEC00FDAE1046194622E750EA410618BF52EACC
:103BFC0043067FF4C5AE50EA41047FF40DAF52EAA0
:103C0C0043057FF4EBAE12E74FF0FF3C06E000BF3C
:103C1C004FF0010C02E000BF4FF0010C4DF804CD49
:103C2C004FEA410C7FEA6C5C4FEA430C18BF7FEA09
:103C3C006C5C1BD001B050EA410C0CBF52EA430C37
:103C4C0091EA030F02BF90EA020F0020704710F1B7
:103C5C00000F91EA030F58BF994208BF90422CBF46
:103C6C00D8176FEAE37040F0010070474FEA410C3F
:103C7C007FEA6C5C02D150EA013C07D14FEA430C5D
:103C8C007FEA6C5CD6D152EA033CD3D05DF8040BCE
:103C9C00704700BF8446104662468C461946634600
:103CAC0000E000BF01B5FFF7B7FF002848BF10F1D7
:103CBC00000F01BD4DF808EDFFF7F4FF0CBF01201C
:103CCC0000205DF808FB00BF4DF808EDFFF7EAFF98
:103CDC0034BF012000205DF808FB00BF4DF808ED53
:103CEC00FFF7E0FF94BF012000205DF808FB00BF48
:103CFC004DF808EDFFF7CEFF94BF012000205DF8D2
:103D0C0008FB00BF4DF808EDFFF7C4FF34BF0120DE
:103D1C0000205DF808FB00BF4FEA410C7FEA6C5CA9
:103D2C0002D150EA013C0AD14FEA430C7FEA6C5CA9
:103D3C0002D152EA033C02D14FF0000070474FF021
:103D4C00010070474FEA410212F5001215D211D54D
:103D5C006FF47873B3EB625212D94FEAC12343F07C
:103D6C00004343EA505311F0004F23FA02F018BFFE
:103D7C00404270474FF00000704750EA013005D1C7
:103D8C0011F0004008BF6FF0004070474FF000008A
:103D9C00704700BF4A0011D212F5001211D20DD596
:103DAC006FF47873B3EB62520ED44FEAC12343F035
:103DBC00004343EA505323FA02F070474FF00000DF
:103DCC00704750EA013002D14FF0FF3070474FF08E
:103DDC000000704780F0004002E000BF81F000411D
:103DEC0042001FBF5FEA410392EA030F7FEA226C95
:103DFC007FEA236C6AD04FEA1262D2EB1363C1BF25
:103E0C00D218414048404140B8BF5B42192B88BF93
:103E1C00704710F0004F40F4000020F07F4018BFB6
:103E2C00404211F0004F41F4000121F07F4118BFD6
:103E3C00494292EA030F3FD0A2F1010241FA03FC7E
:103E4C0010EB0C00C3F1200301FA03F100F0004366
:103E5C0002D5494260EB4000B0F5000F13D3B0F12E
:103E6C00807F06D340084FEA310102F10102FE2A9D
:103E7C0051D2B1F1004F40EBC25008BF20F001000D
:103E8C0040EA03007047490040EB0000013A28BFAC
:103E9C00B0F5000FEDD2B0FA80FCACF1080CB2EB2F
:103EAC000C0200FA0CF0AABF00EBC25052421843AD
:103EBC00BCBFD0401843704792F0000F81F4000152
:103ECC0006BF80F400000132013BB5E74FEA410325
:103EDC007FEA226C18BF7FEA236C21D092EA030F91
:103EEC0004D092F0000F08BF0846704790EA010F0B
:103EFC001CBF0020704712F07F4F04D1400028BF38
:103F0C0040F00040704712F100723CBF00F5000019
:103F1C00704700F0004343F0FE4040F4000070474F
:103F2C007FEA226216BF08467FEA236301464202FB
:103F3C0006BF5FEA412390EA010F40F4800070470E
:103F4C004FF0000304E000BF10F0004348BF4042B4
:103F5C005FEA000C08BF704743F0964301464FF0F0
:103F6C0000001CE050EA010208BF70474FF000034C
:103F7C000AE000BF50EA010208BF704711F000438D
:103F8C0002D5404261EB41015FEA010C02BF84465D
:103F9C000146002043F0B64308BFA3F18053A3F5BC
:103FAC000003BCFA8CF2083AA3EBC25310DB01FA03
:103FBC0002FC634400FA02FCC2F12002BCF1004F87
:103FCC0020FA02F243EB020008BF20F00100704718
:103FDC0002F1200201FA02FCC2F1200250EA4C006C
:103FEC0021FA02F243EB020008BF20EADC707047B2
:103FFC004FF0FF0C1CEAD0521EBF1CEAD15392EAC0
:10400C000C0F93EA0C0F6FD01A4480EA010C40029B
:10401C0018BF5FEA41211ED04FF0006343EA5010F5
:10402C0043EA5111A0FB01310CF00040B1F5000F37
:10403C003EBF490041EAD3715B0040EA010062F1E6
:10404C007F02FD2A1DD8B3F1004F40EBC25008BFD0
:10405C0020F00100704790F0000F0CF0004C08BFEE
:10406C0049024CEA502040EA51207F3AC2BFD2F1BB
:10407C00FF0340EAC250704740F400004FF00003C9
:10408C00013A5DDC12F1190FDCBF00F00040704703
:10409C00C2F10002410021FA02F1C2F1200200FA41
:1040AC0002FC5FEA310040F1000053EA4C0308BF08
:1040BC0020EADC70704792F0000F00F0004C02BF59
:1040CC00400010F4000F013AF9D040EA0C0093F0D4
:1040DC00000F01F0004C02BF490011F4000F013B2E
:1040EC00F9D041EA0C018FE70CEAD15392EA0C0F9C
:1040FC0018BF93EA0C0F0AD030F0004C18BF31F007
:10410C00004CD8D180EA010000F00040704790F0DC
:10411C00000F17BF90F0004F084691F0000F91F080
:10412C00004F14D092EA0C0F01D142020FD193EA46
:10413C000C0F03D14B0218BF084608D180EA0100CE
:10414C0000F0004040F0FE4040F40000704740F0AA
:10415C00FE4040F4400070474FF0FF0C1CEAD05278
:10416C001EBF1CEAD15392EA0C0F93EA0C0F69D0D4
:10417C00A2EB030280EA010C49024FEA402037D03F
:10418C004FF0805343EA111143EA10130CF0004036
:10419C008B4238BF5B0042F17D024FF4000C8B4226
:1041AC0024BF5B1A40EA0C00B3EB510F24BFA3EB06
:1041BC00510340EA5C00B3EB910F24BFA3EB9103D6
:1041CC0040EA9C00B3EBD10F24BFA3EBD10340EA30
:1041DC00DC001B0118BF5FEA1C1CE0D1FD2A3FF676
:1041EC0050AF8B4240EBC25008BF20F0010070472B
:1041FC000CF0004C4CEA50207F32C2BFD2F1FF03CE
:10420C0040EAC250704740F400004FF00003013AFE
:10421C0037E792F0000F00F0004C02BF400010F4A2
:10422C00000F013AF9D040EA0C0093F0000F01F0B6
:10423C00004C02BF490011F4000F013BF9D041EAD8
:10424C000C0195E70CEAD15392EA0C0F08D142020B
:10425C007FF47DAF93EA0C0F7FF470AF084676E7DE
:10426C0093EA0C0F04D14B023FF44CAF08466EE7B7
:10427C0030F0004C18BF31F0004CCAD130F0004285
:10428C007FF45CAF31F000437FF43CAF5FE700BFDD
:10429C004FF0FF3C06E000BF4FF0010C02E000BF06
:1042AC004FF0010C4DF804CD4FEA40024FEA4103A8
:1042BC007FEA226C18BF7FEA236C11D001B052EA5E
:1042CC00530C18BF90EA010F58BFB2EB030088BF24
:1042DC00C81738BF6FEAE17018BF40F00100704793
:1042EC007FEA226C02D15FEA402C05D17FEA236C75
:1042FC00E4D15FEA412CE1D05DF8040B704700BFBC
:10430C00844608466146FFE70FB5FFF7C9FF002852
:10431C0048BF10F1000F0FBD4DF808EDFFF7F4FF8B
:10432C000CBF012000205DF808FB00BF4DF808ED24
:10433C00FFF7EAFF34BF012000205DF808FB00BF47
:10434C004DF808EDFFF7E0FF94BF012000205DF869
:10435C0008FB00BF4DF808EDFFF7D2FF94BF01201A
:10436C0000205DF808FB00BF4DF808EDFFF7C8FF13
:10437C0034BF012000205DF808FB00BF4FEA40026B
:10438C00B2F1FE4F0FD34FF09E03B3EB12620DD977
:10439C004FEA002343F0004310F0004F23FA02F0E1
:1043AC0018BF404270474FF00000704712F1610F88
:1043BC0001D1420205D110F0004008BF6FF000405F
:1043CC0070474FF00000704742000ED2B2F1FE4F22
:1043DC000BD34FF09E03B3EB126209D44FEA0023C8
:1043EC0043F0004323FA02F070474FF0000070478F
:1043FC0012F1610F01D1420202D14FF0FF30704730
:10440C004FF00000704700BF002301461A461846C3
:10441C0000F04CB80A44914200F1FF3300D17047D0
:10442C0010B511F8014B914203F8014FF9D110BDB1
:10443C0003460244934200D1704703F8011BF9E78D
:10444C0038B5104B04461D68AB6BB3B91820FEF79A
:10445C0045F90246A86320B942210B4B0B48FEF7E5
:10446C0055F90B490B4BC0E900130B4B0021836032
:10447C000B2383810120C2E904010022AB6B1C6178
:10448C005A6138BD1800002019480808304808083F
:10449C000E33CDAB34126DE6ECDE0500034613F89B
:1044AC00012B002AFBD1181A013870472DE9F8436B
:1044BC00DFF8AC800646D8F800001F460D46914642
:1044CC0000F058F8274B1C6834B9274C1C60274B5C
:1044DC0013B11B68C4F8883063681F2B07DDD8F84C
:1044EC00000000F049F84FF0FF30BDE8F8835EB3F0
:1044FC00D4F8880088B91E4B23B9D8F8000000F016
:10450C003AF8F0E74FF48470FEF7E8F80028F4D09E
:10451C000023C0E94033C4F8880001226368022EEE
:10452C0040F8239002FA03F200EB8301D0F800313B
:10453C0043EA0203C0F80031C1F8807002BFD0F822
:10454C0004311343C0F804316368D8F800005A1CD6
:10455C000233626044F8235000F00EF80020C4E7E8
:10456C007C00002060060020D40500200000000024
:10457C00E926080870477047704700001D000808BE
:10458C005D00080885000808890008080000000084
:10459C0071727374750000000000000000000000D0
:1045AC00000000000000000000000000000080BFC0
:1045BC0000000000CDCC4CBF00000000000000004B
:1045CC00CDCC4CBE000000BF00000000000080BF3E
:1045DC0000000000000000000000000000000000CF
:1045EC000000000000000000CDCCCC3D3333333F45
:1045FC0000000000CDCC4CBFCDCCCCBD00000000E9
:10460C00000000000000000000000000000000009E
:10461C00000000000000000000010204081000006F
:10462C00000000000000000000400050006000701E
:10463C001F1C1F1E1F1E1F1F1E1F1E30383A31311C
:10464C003A3438004175672032332032303234002E
:10465C00436F756C64206E6F742066696E642061A4
:10466C002076616C696420424D4536383020736584
:10467C006E736F722C20636865636B207769726947
:10468C006E672100253034752D253032752D25307F
:10469C00327554253032753A253032753A25303220
:1046AC0075004661696C656420746F207065726674
:1046BC006F726D2072656164696E67203A28002CF8
:1046CC000000081018202830386E616E00696E6684
:1046DC00006F7666002E006170700025592D256DD7
:1046EC002D25645425483A254D3A2553257A0061E9
:1046FC00736374696D650000000000000000000029
:10470C00F72C0808F52C0808292D080800000000D3
:10471C00000000009B2D0808012E0808D92D080860
:10472C00D5280808CB2D08089D2D0808AD2D0808A4
:10473C00FB2D0808BD2D0808952D08080000000069
:10474C0000000000C32F0808B92F0808AF2F080875
:10475C00292F0808A32F0808972F0808CD3108081F
:10476C00D53108088B2F0808832F0808792F0808E3
:10477C006F2F0808332F080800000000000000000D
:10478C00FD2F08086530080841300808D5280808AE
:10479C00113008082D3008081F3008083B30080875
:1047AC00FF2F08080330080800000000000000007C
:1047BC009D300808E7300808BF3008089F3008080B
:1047CC00C7300808CF300808D7300808DF30080891
:1047DC0000000000000000008D3108089731080827
:1047EC00A1310808AB310808B5310808C1310808F7
:1047FC00CD310808D5310808DD310808E931080841
:10480C00F1310808FB31080805320808005245450B
:10481C004E54206D616C6C6F6320737563636565BA
:10482C00646564002F6D6E742F776F726B7370619B
:10483C0063652F776F726B73706163652F474343AA
:10484C002D31302D706970656C696E652F6A656EDF
:10485C006B696E732D4743432D31302D7069706534
:10486C006C696E652D34385F323032303131323410
:10487C005F313630363138303634312F7372632F26
:10488C006E65776C69622F6E65776C69622F6C69E7
:10489C0062632F7374646C69622F72616E642E6331
:1048AC0000000000BD1B0808B1280808452B0808AB
:1048BC00552B0808712B0808CD2F08084D32080815
:0448CC00D5330808D0
:0448D00000000000E4
:1048D400595959592D4D4D2D44445468683A6D6DBC
:1048E4003A737300FB4608081C0000200000000017
:1048F40000000000000000000000000000000000B4
:1049040000000000000000000000000000000000A3
:104914000000000000000000000000000000000093
:104924000000000000000000000000000000000083
:104934000000000000000000000000000000000073
:1049440000000000000000000000000064060020D9
:10495400FFFFFFFF00000102030405060708090A20
:104964000B0C0D0E0F101112131415161718191A1B
:084974001B1C1D1E1F20280062
:04497C007856341223
:040000050808001CCB
:00000001FF
