:020000040808EA
:1000000000000808F86C0808000006000A00050156
:080010000402E60C00000000F0
:04001800FC67080871
:10001C0009480A4908B5884205D0094A824202D0EB
:10002C00121A06F015FB0748074A0021121A06F0AF
:10003C001DFB064808BD00BF00000020346C0808FA
:10004C009C0000209C000020610B0020610B002014
:10005C0070B504F071FC0025054E064CA41BA408D9
:10006C00AC4200D170BD56F8043B98470135F7E718
:10007C000C6C0808306C080801F062BF08B502F07F
:10008C0015F8BDE8084004F00FBC04F0C7B804F044
:10009C00C5B804F0CBB80078B0FA80F040097047CE
:1000AC000123037070470000F8B50C4606F056F8B3
:1000BC000646E08B06F052F84FF05C510546304690
:1000CC0006F0A4F84FF064510746284606F09EF857
:1000DC000146384605F090FF4FF062510746304616
:1000EC0006F094F84FF06A510646284606F08EF852
:1000FC000146304605F080FF0546B4F9200006F0B5
:10010C0031F80146284606F081F8054694F922009C
:10011C0006F028F84FF0834106F078F83946064689
:10012C00384606F073F80146304606F06FF8014683
:10013C00284605F063FF0249A06306F01BF9F8BDE1
:10014C000000A0452DE9F0410C4680464FF07C5153
:10015C00A06B06F05BF8694905F04EFF054694F973
:10016C00280005F0FFFF294606F050F8294606F056
:10017C004DF84FF0625106F049F80646B4F92600E6
:10018C0005F0F0FF294606F041F80146304605F02F
:10019C0035FF4FF0585106F039F84FF0605106F02A
:1001AC0035F84FF07E5105F029FF0646A08C05F07E
:1001BC00D5FF314606F02AF8064606F0EDF9002880
:1001CC0000F0998094F92E0005F0CCFF4FF05C51B3
:1001DC0006F01CF829460746284606F017F8014693
:1001EC00384606F013F80746B4F92C0005F0BAFFB0
:1001FC00294606F00BF8014605F000FF394605F0DC
:10020C00FDFE4FF07A5106F001F80746404605F026
:10021C00A5FF01464FF0934005F0EEFE0546B4F9FC
:10022C002A0005F09FFF4FF08F4105F0EFFF394694
:10023C0005F0E4FE4FF0665105F0E8FF0146284654
:10024C0005F0DAFE2E4905F0E1FF314606F092F892
:10025C004FF06E51054605F0D9FF0646B4F9320051
:10026C0005F080FF294605F0D1FF294605F0CEFFA9
:10027C004FF0405105F0CAFF0746B4F9300005F0C5
:10028C0071FF4FF0605105F0C1FF294605F0BEFF2C
:10029C000146384605F0B2FE074694F8340005F0E6
:1002AC0061FF4FF05C5105F0B1FF3146804630469E
:1002BC0005F0ACFF314605F0A9FF0146404605F0BC
:1002CC00A5FF0146384605F099FE064694F92F0025
:1002DC0005F048FF4FF0864105F098FF0146304687
:1002EC0005F08CFE4FF0765105F090FF294605F095
:1002FC0085FEBDE8F0810020FBE700BF00007A47D7
:10030C000050C3452DE9F0410C4607464349A06B0C
:10031C0006F030F8054694F9150005F023FF4FF070
:10032C00625105F073FF294605F070FF4FF07E51C6
:10033C0005F064FE064694F9160005F013FF4FF025
:10034C00565105F063FF294605F060FF294605F07C
:10035C005DFF0146304605F051FE0646608A05F009
:10036C00FDFE4FF05A5105F051FF0146304605F0A5
:10037C004DFF0646384605F0F1FE074694F9140089
:10038C0005F0F0FE4FF07C5105F040FF294605F0DA
:10039C003DFF8046208A05F0E1FE4FF0834105F0D9
:1003AC0035FF0146404605F029FE0146384605F06A
:1003BC0023FE0146304605F029FF064694F9180045
:1003CC0005F0D0FE4FF0545105F020FF294605F002
:1003DC001DFF0546E07D05F0C1FE4FF0625105F0B2
:1003EC0015FF0146284605F009FE314605F00EFFC3
:1003FC00314605F00BFF314605F000FE0849044676
:10040C0006F0C0F840B90021204606F09DF800B176
:10041C0000242046BDE8F081014CFAE70000A0451D
:10042C000000C84270B50646B1F91A000C4605F03A
:10043C0099FE4FF0605105F0E9FE374905F0E6FEF4
:10044C00364905F0DBFDB6F5C87F0546304628BFBA
:10045C004FF4C87005F082FE0146284605F0D6FE22
:10046C004FF07E5105F0CAFD054694F9190005F0D0
:10047C0079FE4FF0765105F0C9FE294905F0BEFD15
:10048C000146284605F0C2FE054694F91C0005F00D
:10049C0069FE4FF06A5105F0B9FE064694F90E005C
:1004AC0005F060FE0146304605F0B0FE01462846D8
:1004BC0005F0A4FD054694F83C0005F04FFE4FF006
:1004CC00814105F09BFD01464FF0814005F052FF44
:1004DC000146284605F09AFE054694F93D0005F0C4
:1004EC0041FE104905F092FE4FF07E5105F086FD5D
:1004FC0001464FF07E5005F03DFF0146284605F0C1
:10050C0085FE094905F078FD084905F07FFE06F0E7
:10051C0069F8C0B270BD00BF6F12033A75021A3B86
:10052C00000044426F12033B0000C8419A995940A5
:10053C0048B1036C3BB1436C2BB1806CB0FA80F0CA
:10054C004009404270474FF0FF30704710B50446E9
:10055C001046FFF7EDFF50B923788B4206D9217076
:10056C0092F84D3043F0010382F84D3010BD4FF03E
:10057C00FF30FBE773B502460846FFF7D9FF0C4680
:10058C00054640BB12F0800F14BF002310234A7B9A
:10059C009A4220D04B730E6C4B680122F3200DF164
:1005AC000701B04784F84C0098B99DF80720637B8D
:1005BC0022F0100203F0100313438DF807300122D0
:1005CC007320666C63680DF10701B04784F84C002A
:1005DC0008B16FF00105284602B070BD37B504466E
:1005EC00FFF7A6FF70B90122F320256C63680DF1AB
:1005FC000701A84784F84C0030B99DF8073003F088
:10060C001003637303B030BD6FF00100FAE7000014
:10061C002DE9F041344CA0B06D46264684460F4679
:10062C0090460FCE0FC50FCE0FC50FCE0FC596E857
:10063C000F00403485E80F000FCC10AD0FC50FCC68
:10064C000FC50FCC0FC594E80F0085E80F0060466E
:10065C0005F084FD4FF0884105F0CEFC0446404681
:10066C0005F080FD214905F0D1FD214905F0C6FCBE
:10067C0020AB03EB870605461E4956F8800C05F0A7
:10068C0079FE4FF07E5105F0B9FC0146284605F085
:10069C00BDFD0146204605F06DFE4FF07E5105F084
:1006AC00ADFC1449044656F8400C05F063FE4FF0BF
:1006BC007E5105F0A3FC104905F0A8FD054601206C
:1006CC00B84005F04BFD0146284605F09FFD01465C
:1006DC00204605F09BFD01464FF07E5005F04AFE8A
:1006EC0020B0BDE8F08100BF186808080000A040E9
:1006FC000080A7440000C842BD3706342DE9F04302
:10070C001C460D46002187B00746164602A810224B
:10071C00019105F0ABFF2046FFF70AFF90BB8FB3AA
:10072C0085B3731E092B30D8013D0DF1040807EB7E
:10073C0006094F4512D170B97200656C63689DF85B
:10074C000400013A0DF10501A847002884F84C007B
:10075C0018BF6FF0010007B0BDE8F083227B3B7837
:10076C0032B918462146FFF705FF3B7803F07F03AB
:10077C0088F8003015F8013F08F1020808F8013C30
:10078C000137D6E74FF0FF30E5E76FF00300E2E703
:10079C002DE9F042064618461D46FFF7C9FE0F46E6
:1007AC0091460446C8B9C1B12B7B3BB929463046AA
:1007BC00FFF7E0FE044608B946F0800630464A468C
:1007CC0039466B682E6CB047002818BF6FF00104D7
:1007DC0085F84C002046BDE8F0824FF0FF34F9E775
:1007EC00E02337B58DF80630B62305468DF8073073
:1007FC00FFF79EFE044680B92B7B8BB12B460DF187
:10080C00070101220DF10600FFF778FF0446AB6CDF
:10081C0042F21070696898474CB1204603B030BD65
:10082C002846FFF7DBFE04460028F6D1E6E72B7BD3
:10083C00002BF2D12846FFF7D1FE0446EDE710B5A8
:10084C008CB00446FFF7CCFF0346002840F09B8099
:10085C00234601222146D020FFF79AFF03460028A9
:10086C0040F091802278612A40F0908023468DF8E8
:10087C0004000122F02001A9FFF78AFF034600289B
:10088C0040F081809DF804301722A3608A20234613
:10089C0001A9FFF77DFF0346002874D123460E22E1
:1008AC00E1200DF11B01FFF773FF034600286AD10D
:1008BC00234605220DF12901FFF76AFF03460028A4
:1008CC0061D1BDF823209DF81D00E283BDF8042002
:1008DC0022849DF8062084F82220BDF80820A284EA
:1008EC00BDF80A20E2849DF80C2084F82820BDF87D
:1008FC000E206285BDF81020A2859DF8132084F887
:10090C002E209DF8122084F82F20BDF81620228668
:10091C00BDF8182062869DF81A2084F834209DF8C2
:10092C001C2002F00F0141EA001121829DF81B10DE
:10093C00120942EA011262829DF81E2022759DF86E
:10094C001F2062759DF82020A2759DF82120E2756C
:10095C009DF8222022769DF827206276BDF825206E
:10096C0062839DF8282022779DF82B20C2F3011278
:10097C0084F83C209DF8292084F83D209DF92D20F9
:10098C00121184F83E2018460CB010BD6FF0020313
:10099C00F9E7742373B506460D468DF807302B46E0
:1009AC00012274200DF10601FFF7F2FE0446B8B9DE
:1009BC009DF80620930716D022F003022B468DF8E3
:1009CC0006200DF1060101220DF10700FFF796FE3E
:1009DC000446AB6C42F2107069689847002CDED06C
:1009EC00204602B070BD002EFAD022F0030206F0B1
:1009FC00030632438DF806202B4601220DF1060129
:100A0C000DF10700FFF77AFE0446E9E713B50B4634
:100A1C00044660B1012274200DF10701FFF7B8FE06
:100A2C009DF8073003F00303237002B010BD4FF0A4
:100A3C00FF30FAE7F0B54D4B064618681B7987B0C6
:100A4C008DF80C30002302900DF107000D46049335
:100A5C008DF81430FFF7DAFF0446002840F083804D
:100A6C002946FFF796FF0746044666B94FF0FF3458
:100A7C009DF8070020B11CB92946FFF78AFF0446F0
:100A8C00204607B0F0BD0028F2D12B4605229DF878
:100A9C00080004A9FFF77CFE85F84D700446002879
:100AAC00E6D12A460721F01CFFF750FD044600282A
:100ABC00DED10521701CFFF749FD04460028D7D173
:100ACC00B01CFFF743FD04460028D1D13046FFF798
:100ADC003DFD04460028CBD10821301DFFF736FD23
:100AEC0004460028C4D1F3789DF814209B0022F012
:100AFC001C0203F01C0313435AB29DF81330717897
:100B0C0003F01F0343EA4113B17823F01C0389005F
:100B1C0001F01C010B438DF8133031789DF8113026
:100B2C0001F0070123F007030B4331798DF81130E5
:100B3C00082912BF0020012000219DF8103002F07E
:100B4C001F0203F07F0342EA411243EAC0138DF8FF
:100B5C0014208DF8103005222B4604A902A8FFF7AB
:100B6C00CDFD044684E7002E82D17FE7106808088B
:100B7C0037B51D4B0546D3F88000B3F884300C46CE
:100B8C000090ADF8043011B9002003B030BD052140
:100B9C00601CFFF7DBFC0028F6D1A01CFFF7D6FC8D
:100BAC000028F1D12046FFF7D1FC0028ECD1637866
:100BBC0002AA1344A27802A90A4413F8083C12F8BA
:100BCC00080C022D184423780B4413F8083C0344FA
:100BDC0040F2AB7003FB00F00BBF00F5865000F544
:100BEC00A55005300D30D0E7186808082DE9F04FF6
:100BFC00B5B01D4622AB019204460E46184648225B
:100C0C00002105F033FD28AB0A900B9328462EAB40
:100C1C000C93FFF78DFC074628B14FF0FF342046AC
:100C2C0035B0BDE8F08F002EF7D0012C40F0D88005
:100C3C00014615900D2216A805F018FD05272B4628
:100C4C0011221D2015A9FFF7A3FD9DF85520044680
:100C5C00B2709DF856209DF8540002929DF85720D2
:100C6C0000F0800303929DF8582000F00F000492CE
:100C7C009DF85920337005929DF85A207070069299
:100C8C009DF85C209DF862A007929DF85D209DF870
:100C9C00648008929DF861209DF85B900992AA6887
:100CAC009DF863B0012A13BF0AF0200208F020025D
:100CBC001A4313430CBF08F010030AF0100213433D
:100CCC0033701B0675D5002C79D12B460122F11CF3
:100CDC005A30FFF75DFD0446002870D170782B4622
:100CEC0050300122311DC0B2FFF752FD04460028DE
:100CFC0065D170782B4664300122711DC0B2FFF7AC
:100D0C0047FD044600285AD1069B4FEA191040EAC9
:100D1C000310059B294640EA0330FFF7C5F9049BF5
:100D2C00B0601809039B294640EA0310029B40EA75
:100D3C000330FFF707FADDE90723F060294643EAA1
:100D4C000220FFF7DFFA3061AB68012B25D14FF49D
:100D5C0080204FEA981308F00F0820FA08F043EAB5
:100D6C008B0B05F0FBF9B34905F050FAABF5007BA2
:100D7C000BEB4B0B04460BF5805005F0F3F90146D9
:100D8C00204605F0F7FA706196F90030002BB5BFDC
:100D9C0001270027002402241CE0099B4FEA9A102B
:100DAC0095F93E200AF00F0140EA8300FFF730FC72
:100DBC00E9E724B942F21070AB6C69689847013FBF
:100DCC0017F0FF0704D0002C3FF439AF002701E0E7
:100DDC00002CD9D0019B002B3FF41FAF1F701EE7D6
:100DEC00023C012C00F2238101462F22159016A8FB
:100DFC0005F03CFC1A2239460EA80D9705F036FC7E
:100E0C002B4633221D2015A9FFF7C2FC044682464F
:100E1C00002840F09D802B461E2250200DA9FFF784
:100E2C00B7FC15AF0446002840F092800AAB53F88B
:100E3C002A807B7897F8039088F80230BB784FEAC9
:100E4C00091949EA03393B79B87949EA13197B79CD
:100E5C00000140EA0330FB797A7A40EA13130293DB
:100E6C003B7AF87B42EA03227B7B39780490A868B2
:100E7C0097F810B00393BB7B012801F00F0C21F005
:100E8C007F0114BF03F0200E0BF0200E49B20BBFF4
:100E9C0041EA0E0141EA0E010BF0100E03F0100EA8
:100EAC0041EA0E01CDE9052334AB88F8001003EBC1
:100EBC000C0111F89C1C88F801C088F8041003EB95
:100ECC000C0111F8921C9C4488F803101CF8881C27
:100EDC00029888F805102946FFF7E6F82946C8F865
:100EEC0008004846FFF72EF9059AC8F80C00294669
:100EFC001046FFF707FAAA68069B012AC8F81000EB
:100F0C003BD1049B4FEA9B1949EA83094FF4802398
:100F1C000BF00F0023FA00F005F020F9454905F01D
:100F2C0075F9A9F5007909EB4909834609F5805053
:100F3C0005F018F90146584605F01CFA0AF1010AA9
:100F4C00BAF1030FC8F8140007F111077FF46EAF64
:100F5C000DF1280E724603230027002C4ED152F8B7
:100F6C00041B013B91F900100029BCBF0137FFB2F3
:100F7C0013F0FF03F3D1704638E0980903F00F012A
:100F8C00039B95F93E2040EA8300FFF741FBD5E730
:100F9C004FF00209DCF8005051F8043B95F900A021
:100FAC0093F90020BAF1000F16DA002A16DA95F838
:100FBC0002A09A78A2EB0A0292B202F1020A1FFA7C
:100FCC008AFABAF1010F02D912B2022A06DDCCF864
:100FDC00003041F8045C01E0002AF8DBB9F1020FA3
:100FEC00D6D1B8F1020F4FF0010307D0013384467C
:100FFC005FFA83F804300146C146CBE74FF0000896
:10100C004FF018097CB909FB08655EF804CB08F1B0
:10101C000108BCE80F000FC59CE80300B8F1030FF2
:10102C0085E80300EFD1002F08BF0224D2E601248B
:10103C00D0E600BF0024744947F270132DE9F04F3D
:10104C0093B0064617460D46ADF81430002900F053
:10105C00908011460020FFF79CFC0446002840F0CD
:10106C00F7806E238F4A8DF81330D2F88600D2F8B1
:10107C008A1006AB03C3B2F88E20022E1A8009AB7D
:10108C0003C31A800CAB03C31A800FAB03C30DF15F
:10109C0018091A800DF1240A0DF13C0B00F0A18007
:1010AC00032E64D0012E40F0FB805A233946688809
:1010BC008DF81830FFF7B6F964238DF83030AB8813
:1010CC008DF82400B3F57C6F4FD23F2BE2B204F1C4
:1010DC00010448D803EB8213DBB24FF000088DF803
:1010EC003C303B46324651464846FFF707FB044628
:1010FC00002840F0AD803B4632460FA90CA8FFF704
:10110C00FDFA0446002840F0A3803B4602227020E2
:10111C000FA9FFF73DFB0446002840F099802A7880
:10112C00012A40F0BA80BB68012B08BF02229DF84F
:10113C003C300FA923F0080343EAC4049DF83D306A
:10114C0005A823F00F0343EA080323F0300343EA16
:10115C0002138DF83D3002223B468DF83C40FFF7E0
:10116C00CDFA044674E09B08AFE7FF23B5E7EB68C4
:10117C0013B94FF0FF346BE0AA68002AF9D02E7C2B
:10118C005FFA84F8464501D8B046AAE708F15A013F
:10119C0009F8041032F81400394601930092FFF755
:1011AC0041F908F164080CAB03F80480019B0AF8C0
:1011BC00040033F81410009AB1F57C6F0FD20020A4
:1011CC003F295FFA80FC00F1010006D801EB8C117D
:1011DC00C9B20BF804100134D2E78908F0E7FF21FB
:1011EC00F7E7EB68002BC4D0AA680092002AC0D0A5
:1011FC006A8A4FF00008002A08BF03242E7CCDF821
:10120C0004B05FFA88FB5E4526D840F282739A429E
:10121C0041D84FF47A735A4340F2DD13B2FBF3F228
:10122C00002392B23F2AD9B203F1010331D802EB69
:10123C008112D2B28DF8122054B93B4601220DF125
:10124C0012010DF11300FFF759FA044600289BD048
:10125C00204613B0BDE8F08FCDE902320BF15A01F4
:10126C00009B09F8081033F818003946FFF7DAF834
:10127C000BF1640B0CAB03F808B0029B0AF80800E6
:10128C0033F81810019A08F80210039A08F10108B3
:10129C00B7E79208C6E7FF22CCE70246012446E7EF
:1012AC000124D5E71868080800220271C280802248
:1012BC0002817047F8B5054610200E461746FEF71A
:1012CC00E4FE044618B13A46314601F067F920466F
:1012DC002C600121BDE8F84001F07CB9130A07B578
:1012EC00C372002381720273CDE9003300F10A014D
:1012FC0001230322006801F07CF903B05DF804FBC4
:10130C00002A14BF00224FF4807210B504460A4321
:10131C00C1880A4301890A4342F400420121FFF7C4
:10132C00DDFF20464FF400420321FFF7D7FF204694
:10133C00BDE8104000220221FFF7D0BF37B50023D3
:10134C00054605F80A1FCDE90033012304461A4669
:10135C002946006801F04DF9012302222946206834
:10136C0001F096F9608940BA80B203B030BD10B577
:10137C0004460021FFF7E2FF237918410BB900B2B4
:10138C0010BD80B2B0F5006F28BF40F47040F6E796
:10139C00012108B5FFF7D2FFC0F3C03008BD000033
:1013AC00032910B504460FD8084B002233F811104E
:1013BC00FFF7A6FF2046FFF7EBFF0028FAD02046E8
:1013CC00BDE81040FFF7D3BF002010BDA868080887
:1013DC00002330B50E4C0133DDB28D4204D214F82B
:1013EC00015B2A4492B2F6E7022903D9830704BFB2
:1013FC00013292B200EBC001C31C00EBC10000EB48
:10140C008000C3F38D0301381844104480B230BD02
:10141C00B068080803784078303BDBB20A2B28BF51
:10142C000023303803EB830300EB4300C0B270475A
:10143C001FB50023CDE900338DF80C108DF80D206D
:10144C000123022203A9006801F0D3F805B05DF86E
:10145C0004FB002310B586B0CDE90033012304460C
:10146C001A468DF80F1000680DF10F0101F0C1F84C
:10147C00012320681A4605A901F00AF99DF8140009
:10148C0006B010BD83709DF80030B1F5FA6FC370D3
:10149C009DF8043028BFA1F5FA6103719DF808305E
:1014AC0028BF89B2017042704371704730B50D4648
:1014BC0085B004460868496801AB03C32889A97A3A
:1014CC00188099700DF10D00FFF7A4FF9DF8043002
:1014DC002070413B122B16D8DFE803F0321515466D
:1014EC0015301515150A15153944421515154000FA
:1014FC009DF80530612B1FD09DF806306E2B0CBF6C
:10150C0006230723637002A8FFF784FFA0701068FE
:10151C00516801AB03C301A8FFF77CFFE0700DF12C
:10152C000700FFF777FF20710DF10A00FFF772FF3C
:10153C006071204605B030BD0123E3E70223E1E7EB
:10154C009DF80630722B0CBF04230823DAE79DF8B4
:10155C000630722B0CBF03230523D3E70923D1E7F5
:10156C000A23CFE70B23CDE70C23CBE708B5827812
:10157C0041780078FFF72CFF07230630B0FBF3F31C
:10158C00C3EBC303C01AC0B208BD08B502F02AFCF5
:10159C00BDE8084002F036BC1FB5044618460123CE
:1015AC0000930DF10F038DF80F4000F02DFC80F02F
:1015BC000100404240B204B010BD1FB51C4660F0A3
:1015CC007F038DF80F3000232046CDE900230B4616
:1015DC0001220DF10F0100F039FC80F001004042B6
:1015EC0040B204B010BD1FB50446184601238DF857
:1015FC000F400DF10F040193009400F0FAFF80F0FE
:10160C000100404240B204B010BD30B51446012276
:10161C00054685B01846CDE900420B460DF10F0189
:10162C008DF80F5001F053F880F00100404240B2A9
:10163C0005B030BD00228161C0E9042202628284BF
:10164C00704770B5046A06461CB1838C1C44204656
:10165C0070BD00F1280529460120FFF79AF90028F2
:10166C00F5D12A4606F178010120FFF781FA4FF4F3
:10167C007A74B6F8843004FB030502F0BBFBB5FBAF
:10168C00F4F3B3849BB230621C18E0E738B5046AFB
:10169C003CB1858C02F0AEFB2C44201A20EAE070A1
:1016AC0038BD4FF0FF30FBE730B589B00546FFF78A
:1016BC00C8FF60B32846FFF7E9FF002802DD4000B1
:1016CC0003F08CF8002401202C62AC8405F1280373
:1016DC000DF1070202A9FFF789FAB8B99DF8073096
:1016EC0083B1049B05982B60069BAB6004F07AFFDA
:1016FC009DF80830686013F0300305D0079804F0AB
:10170C0071FFE860012002E0EB60FBE7204609B0C6
:10171C0030BDFFF7C9BF10B50446FFF7FAFF2068CC
:10172C0010BD10B50446FFF7F4FF606804F016FD19
:10173C0010BD10B50446FFF7ECFFA06810BD10B546
:10174C000446FFF7E6FFE06810BD08B501B16AB9C1
:10175C00002380F8803000F1280200F18001012084
:10176C00FFF76AFCB0FA80F0400908BD0123A0F82D
:10177C00821080F88030A0F88420ECE7082908B5A6
:10178C000AD880F87C1000F128017830FFF752F964
:10179C00B0FA80F0400908BD0020FCE7052908B527
:1017AC000AD880F8791000F128017830FFF742F957
:1017BC00B0FA80F0400908BD0020FCE7052908B507
:1017CC000AD880F8781000F128017830FFF732F948
:1017DC00B0FA80F0400908BD0020FCE7052908B5E7
:1017EC000AD880F87A1000F128017830FFF722F936
:1017FC00B0FA80F0400908BD0020FCE7072908B5C5
:10180C000AD880F87B1000F128017830FFF712F924
:10181C00B0FA80F0400908BD0020FCE7F8B504469A
:10182C0040690F46164600284FD1206910B110218F
:10183C00FEF72FFC1020FEF728FC054618B13946A0
:10184C00A26900F0ABFE01212846256100F0C2FE22
:10185C0008B90020F8BD012384F83430236984F8DA
:10186C002870E362224BA366224BE366192384F8AB
:10187C003630214B04F1280528462367FEF7DFFF9D
:10188C000028E6D186B302212046FFF7B7FF0821D6
:10189C002046FFF773FF02212046FFF78FFF03213D
:1018AC002046FFF79BFF04212046FFF777FF962287
:1018BC004FF4A0712046FFF748FF29460120FFF79F
:1018CC0068F8B0FA80F04009C4E700F083F900280A
:1018DC00BFD0002384F8283084F834306369E36285
:1018EC00064BA366064BC0E732463146E2E700BF23
:1018FC0017160808F315080897150808C7150808DF
:10190C00A515080870B5054600680E4610B11021E3
:10191C00FEF7BFFB1020FEF7B8FB044618B13246A9
:10192C00682100F03BFE20462C600121BDE8704090
:10193C0000F050BEF0B50A244B790027B3FBF4F24B
:10194C0002EB420285B003EB4203CDE902778DF83E
:10195C0009300B790646B3FBF4F202EB420203EBBF
:10196C0042038DF80A30CB780846B3FBF4F202EB55
:10197C00420203EB42030D468DF80B30FFF7F6FDE8
:10198C00031E08BF0723B3FBF4F000EB400003EB8E
:10199C0040038DF80C30AB78CDE90077B3FBF4F253
:1019AC0002EB420203EB42038DF80D306B7830688A
:1019BC00B3FBF4F202EB420203EB42038DF80E3060
:1019CC002B780822B3FBF4F404EB44040DEB020176
:1019DC0003EB440401238DF80F4000F00AFE0F21A5
:1019EC003046FFF736FD0F2100F07F023046FFF73F
:1019FC001FFD05B0F0BD0023F0B587B001938DF845
:101A0C001030072305460846009304AB1946012203
:101A1C00006800F05CFE9DF810409DF8143004F056
:101A2C007F07C4F30214A4EB84049DF8116007EB48
:101A3C004404E4B29DF816109DF8120002944FEA8B
:101A4C00131C34099DF81520ACEB8C0CA4EB84040E
:101A5C0003EB4C0306EB44064FEA111C040902F09D
:101A6C007F0EACEB8C0CA4EB8404C2F3021201EBE2
:101A7C004C0100EB4400A2EB82020EEB4202F6B2E8
:101A8C00C0B2C9B2009001962846DBB2D2B201F5C1
:101A9C00FA61FFF7F7FC284607B0F0BD70B50446B5
:101AAC00051D00F1A40628461435FFF7FDFBB542D1
:101ABC00F9D14FF4A472A2824FF4127222854FF422
:101ACC005272A2874922A4F8502040F249124823AE
:101ADC00A4F8642040F249222380A4F87820002343
:101AEC0040F249322046A370A37584F82A3084F85A
:101AFC003E3084F8523084F8663084F87A30A4F89A
:101B0C008C2084F88E3070BD2DE9F84304460646CF
:101B1C004FF00108051D00F1A40715F8049C03F013
:101B2C0089FD494602462846FFF7C4FB08B105F873
:101B3C00028C1435BD42F0D1A034B07810B11436FB
:101B4C00A642FAD1BDE8F88308B5142359434218CC
:101B5C00937833B10B1D18445178FFF721FC80B2F8
:101B6C0008BD4FF61940FBE738B50D460446002179
:101B7C002846FFF7E9FF2080642002F02FFE0121A8
:101B8C002846FFF7E1FF6080642002F027FE022167
:101B9C002846FFF7D9FFA080642002F01FFE6420C6
:101BAC0002F01CFE04212846FFF7CEFFE0806420E3
:101BBC0002F014FE642002F011FE06212846FFF705
:101BCC00C3FF2081642002F009FE642002F006FEAF
:101BDC00204638BD38B5044690F90E00411C09D09A
:101BEC00012180B203F08AFC94F90E00012180B22D
:101BFC0003F095FC256835B1284602F062FB012004
:101C0C0084F8340038BD94F90F00012180B203F040
:101C1C0075FC637B94F90F00012B94BF29460121BD
:101C2C0080B203F07CFC94F91000421C09D0012115
:101C3C0080B203F063FC94F91000012180B203F030
:101C4C006EFC94F91100431CD9D0002180B203F032
:101C5C0055FCD4E72DE9F04F044600680D461346B9
:101C6C0085B038B1002200920A4602F041FC05B062
:101C7C00BDE8F08F227BA068002A0CBF4FF0010B4F
:101C8C004FF0800B0A78444F1BEA020FB7FBF0F7BA
:101C9C000CBF4FF001094FF00009CB18FFB20393B2
:101CAC00039BAB42E3D05E464FF0000895F800A0D2
:101CBC0017B1384602F096F8637B13F0FD0F41D153
:101CCC0094F910305A1C0FD01AEA060114BF0123E4
:101CDC0000234B4508D06369606A1A6800292CD030
:101CEC004FF0010902431A60A169E36A0A681343C1
:101CFC000B6017B1384602F075F894F911300133C6
:101D0C0006D0E3691A68A36A1A4218BF46EA0808A3
:101D1C00A169E36A0A6822EA03030B6094F91130A3
:101D2C00013318BF85F80080237B002B32D176005D
:101D3C00F6B2002EBCD10135B2E722EA0002894688
:101D4C001A60D1E7A169E36A0A6813430B6017B103
:101D5C00384602F047F894F91030013308D0636923
:101D6C00616A1A681AEA060F14BF0A438A431A609A
:101D7C00A169E36A0A6822EA03030B6094F9113043
:101D8C000133CBD0E3691A68A36A1A4218BF46EA3A
:101D9C000808C3E77608CCE720A1070007B50122A5
:101DAC008DF807100DF10701FFF754FF9DF80700A0
:101DBC0003B05DF804FB0346006810B1596802F0EB
:101DCC00D5BA7047006808B102F0B7BA704790F9FD
:101DDC000E00431C03D0C9B280B203F0A0BB704705
:101DEC0010B50446FFF7E7FF2046BDE81040002180
:101DFC00FFF7EDBF10B504460121FFF7E8FF2046C1
:101E0C00BDE81040FFF7DEBF2DE9F0411C46064649
:101E1C000D461746FFF7E4FF069B04EB0308444509
:101E2C0008D12F44BD420BD0304615F8011BFFF7EB
:101E3C00B5FFF7E7304614F8011BFFF7AFFFEEE7ED
:101E4C003046FFF7D7FF0120BDE8F0812DE9F041C6
:101E5C000D46174606461C469DF81C80FFF7C0FF32
:101E6C002F44BD420AD1069BE518AC420CD041462A
:101E7C003046FFF793FF04F8010BF6E7304615F8F0
:101E8C00011BFFF78BFFECE73046FFF7B3FF012098
:101E9C00BDE8F0817047083001F024BD00F26440C9
:101EAC0001F07FB900F2644001F0B3B800F2644075
:101EBC0001F0F1B800F2644001F063B810B50446CB
:101ECC002C21FEF7E6F8204610BD07B501228DF84F
:101EDC00071008300DF1070101F004FD03B05DF8A7
:101EEC0004FB000038B5044613460A4600F58E6123
:101EFC0000F2644000F0B4FF08B9002038BD04F5CE
:101F0C008865284601F09AFC0121204601F0C3FEA9
:101F1C00014668B12146284601F0EBFA0028ECD0C6
:101F2C0094F8403413F0700FE7D0044B1D60E5E7D4
:101F3C00204601F0B0FE0028ECD1DEE7F4060020CC
:101F4C0030B587B003F082F84FF4165103F064F803
:101F5C0003F070FB01464548FFF7D4FC434902A847
:101F6C00FFF749FD424A434904A8FFF79FFA04A929
:101F7C003E48FFF7DFFC4048FFF7C6FD0122762103
:101F8C003E48FFF74BFC012276213C48FFF746FC0C
:101F9C0028B903F05BF83A4902F007FBFEE704218D
:101FAC003648FFF7FBFB02213448FFF707FC0321FF
:101FBC003248FFF713FC02213048FFF71FFC962232
:101FCC004FF4A0712D48FFF7C0FB01210C2003F04A
:101FDC0095FA00210C2003F0A2FA02220C212948C8
:101FEC00FFF780FF274C284D02220C212046FFF7DB
:101FFC0079FF50B903F02AF8294602F0D6FA0222EA
:10200C000C212046FFF76EFFEEE704A81749FFF7F7
:10201C00F2FC9DF810301D4A03F5FA6313601C495D
:10202C009DF811201B480A609DF812100160CDE943
:10203C0000211948194A1A4902F000F9642002F0EB
:10204C00CDFB18494623144A0968174801F0FDFBDB
:10205C0002F0FCFF104902F09EFA134801F0EEFB6F
:10206C0001210C2003F05BFA07B030BDF401002015
:10207C00BB680808C4680808C00000206001002084
:10208C00D06808083402002004690808B000002059
:10209C00A00000209C00002018000020DF69080828
:1020AC001D690808F4060020000200202DE9F04FFD
:1020BC00B5B0334910A8FFF79EFC9DF84020314B7A
:1020CC0002F5FA621A6030499DF841302F480B60D6
:1020DC009DF842102E4C01609DF843002D4D206060
:1020EC009DF844402C4E2C609DF845503560CDE950
:1020FC000010CDE902452949294802F09FF80CA8A7
:10210C002849FFF731FD284C0C9B284823600D9B78
:10211C006360BDF838302381FFF7FBFA38B902F061
:10212C0095FF234902F041FA35B0BDE8F08F01F07C
:10213C0061FE204D2B68C01A47F22F539842F3D9F9
:10214C0001F058FE002128600C2003F0E8F902226F
:10215C000C211948FFF7C6FE174D184E02220C2110
:10216C002846FFF7BFFE58BB02F070FF314602F065
:10217C0012FA02220C212846FFF7B4FEEEE700BF4C
:10218C00F4010020B0000020A00000209C000020E2
:10219C00240200202C0200203002002033690808A1
:1021AC0000000020C0000020B600002060010020CC
:1021BC005169080828020020340200206E690808C2
:1021CC0002220C21C448FFF78DFE002800F09780F6
:1021DC00642002F003FBC1494623C14A0968C14887
:1021EC0001F033FB4FF47A7002F0F8FABE4802F0BB
:1021FC00C6F9BE49BC4802F0B7F9BD49BA4802F06D
:10220C00BAF9642002F0EAFA0A222188B64802F0F0
:10221C00CEF9B749B44802F0AEF9642002F0DEFA08
:10222C000A226188B04802F0C2F9B149AE4802F006
:10223C00A2F9642002F0D2FA0A22A188AA4802F07C
:10224C00B6F9AB49A84802F096F9642002F0C6FA38
:10225C000A22E188A44802F0AAF9A549A24802F092
:10226C008AF9642002F0BAFA0A2221899E4802F007
:10227C009EF99F499C4802F07EF9642002F0AEFA68
:10228C009C48FFF748FA02220146974802F06EFA82
:10229C009749954802F06FF99648FFF742FA0222E7
:1022AC000146914802F062FA91498F4802F063F9B5
:1022BC009048FFF73EFA022201468B4802F056FA8C
:1022CC008B49894802F057F98A48FFF738FA0A22F5
:1022DC000146854802F06BF98549834802F04BF9B9
:1022EC00642002F07BFA7F4801F072FA642002F05D
:1022FC0075FA7C4801F0A2FA642002F06FFA02F041
:10230C00A5FE02F03CF902F0A1FE784902F02CF98E
:10231C0002F09CFE764902F02EF902F097FE0A229A
:10232C00218802F044F902F091FE714902F023F980
:10233C00642002F053FA02F089FE0A22618802F04E
:10234C0036F902F083FE6A4902F015F9642002F0B6
:10235C0045FA02F07BFE0A22A18802F028F902F06D
:10236C0075FE634902F007F9642002F037FA02F0B7
:10237C006DFE0A22E18802F01AF902F067FE5C4950
:10238C0002F0F9F8642002F029FA02F05FFE0A224A
:10239C00218902F00CF902F059FE554902F0EBF8D4
:1023AC00642002F01BFA02F051FE05465148FFF77B
:1023BC00B2F902220146284602F0D8F902F046FE94
:1023CC004B4902F0D8F802F041FE05464948FFF7A8
:1023DC00A8F902220146284602F0C8F902F036FE9E
:1023EC00434902F0C8F802F031FE05464148FFF7B8
:1023FC00A0F902220146284602F0B8F902F026FEA6
:10240C003B4902F0B8F802F021FE05463948FFF7C7
:10241C0096F90A220146284602F0C9F802F016FE87
:10242C00334902F0A8F8642002F0D8F901F0DEFE7E
:10243C0000283FF479AE2F4825886688A788B4F821
:10244C000680B4F80890FFF766F904462948FFF7B0
:10245C0068F982462748FFF76CF983462548FFF751
:10246C006EF90A90584603F073FACDE9080150460C
:10247C0003F06EFACDE90601204603F069FA2B460B
:10248C00CDE904011C4A8021CDE90289CDE9006720
:10249C0014A801F0DBFE194B19491B7814AA8DF80E
:1024AC00003009683C2312A802F0A4FB139C002CFA
:1024BC003FF43AAE6368013B6360002B7FF434AEAB
:1024CC00236820469B689847A368013BA360002BB8
:1024DC007FF42AAE16E000BF34020020F406002080
:1024EC001800002000020020F8010020000000204D
:1024FC00836908086001002085690808B400002081
:10250C001400002023682046DB6898470CE600BFC7
:10251C0038B501250024174B174A1D70174B284658
:10252C00C3E900449A6001F0C5FD2146284601F03C
:10253C00D1FD4FF4C812124B1248C3F86824124A4A
:10254C005C601A60114AC3F84044C3F86C44C3F889
:10255C00702483F874440E4A0E4BC3E901441A608C
:10256C00FFF79CFA03F066F8BDE8384001460A48CC
:10257C00FFF760B8B40000200000FFFFA4000020AB
:10258C0034020020C0000020C8690808F06908085F
:10259C00B0690808F80100206001002042600022A8
:1025AC00027220220170C260704710B5037A044693
:1025BC0053B12178606802F0E2FE606802F0E7FE39
:1025CC00B0FA80F0400910BD012100F003F800289A
:1025DC00EFD1F8E738B5044640680D4602F0A0FE8E
:1025EC000120207225B12046BDE83840FFF7DDBF41
:1025FC0038BD2DE9F8431F46DDE90896C36815463A
:10260C0032449A420446884602D90020BDE8F88339
:10261C000178406802F0B3FE7EB960682A46036810
:10262C004146DB6898478542EFD13946606802F035
:10263C00AAFEB0FA80F04009E8E7B9F1000FECD03F
:10264C006068324603684946DB6898478642DCD1AD
:10265C00E3E72DE9F041154604460E46D2B2017867
:10266C00406802F07AFE85420DD100271FFA87F8E8
:10267C00A84507F1010709D2606803685B699847B0
:10268C0006F80800F2E70020BDE8F0810120FBE726
:10269C002DE9F84307468846164699460025B5426B
:1026AC0012D2FA68741B944228BF1446331BAB42F7
:1026BC0094BF4B4600232246384608EB0501FFF732
:1026CC00C8FF10B12544EAE70120BDE8F88373B5D3
:1026DC001D460023CDE900339DF81C300446069EB0
:1026EC00FFF787FF40B1012332462946204602B04E
:1026FC00BDE87040FFF7CCBF02B070BD042904D810
:10270C0000EB4100B0F8010070470A299BBF01F1B2
:10271C00FF3100EB41000131C08884BF00EB410068
:10272C008088704710B50446283001F0AFF928B105
:10273C0004F50D70BDE8104001F0A8B910BD411EA4
:10274C0000F10A030020420842EAC01011F8012FE0
:10275C0010448B4200F0FF00F5D170472DE9F04793
:10276C00064610F8013B202BFAD00024694D8E60F0
:10277C00335DC3B12F2B16D05C2B02D10020BDE8EA
:10278C00F087A3F12200C0B21D2803D825FA00F06F
:10279C00C007F3D403F0BF003C28EFD0203B5E2BE6
:1027AC00ECD80134E4E733191846074610F8015BFE
:1027BC00202DFAD02F2DF8D017604CB113F8012D25
:1027CC002E2A01D0202A01D1013CF6E7FF2CD5DCC2
:1027DC004FF020334FF00008C1F811304C60C1F8B5
:1027EC000D304B6116F808302E2B01D0202B02D166
:1027FC0008F10108F6E7B8FA88F0651E40096B1C71
:10280C0002D0735D2E2B14D14FF0000907274A46D6
:10281C00CA464FF0080EA04568DA16F80830202B8F
:10282C0003D02E2B07D1A84512D0002008F10108A7
:10283C00F1E7013DE3E7222B08D07C2B06D0A3F176
:10284C002A0CBCF1050F0AD82D2B12D0A8455BD150
:10285C000A2F4AD00A2708224FF0100EE6E7A3F100
:10286C003A0CBCF1050FF1D9A3F15B0CBCF1020FD2
:10287C00ECD9A3F1210CBCF15D0FE7D8A845E7D04A
:10288C00BA4230D8A3F1610CBCF1190F1AD8203B15
:10289C004EEA0909DBB25FFA89F902F1010C5FFA21
:1028AC008CFC0A44BCF1060F537301D881F80CC0A0
:1028BC006246BBE7A84518DCA8460A2708224FF059
:1028CC00100EB2E7A3F1410CBCF1190F98BF4EEA00
:1028DC000A0AE2E701200B7B087019447E234B7334
:1028EC0031238B734BE70A2FE4D100204B7B202B39
:1028FC003FF444AF0028EDD01AEA090F18BF4FF08F
:10290C00020981F800903AE7BA42ECD800205F2324
:10291C00C3E700BF010100312DE9F84306460C4620
:10292C0002257E2791F80C9001F10D086168A268D0
:10293C006B189BB21144914206D012F8010B03EBB9
:10294C00431343409BB2F6E7B9F1030F28BF4FF096
:10295C00030909F10402D2B203F00F01A018013AE5
:10296C000929D2B294BF30313731914541734FEAC6
:10297C001313F1D104EB0903002130465F7300F00F
:10298C008CFE0121304600F069FE014628B97078B2
:10299C00B0FA80F04009BDE8F88303786BB1C37AD4
:1029AC001B07EED40B22404603F042FE0028E8D170
:1029BC000135ADB2642DB9D1EDE70120EBE7000094
:1029CC002DE9F04F8BB005930B780D4613F0700F7B
:1029DC001746069003D100200BB0BDE8F08F069B84
:1029EC001B78002BF7D153684FF0000B049313782E
:1029FC00DA4699071BBF0D22049B01230C3318BF29
:102A0C00B3FBF2F35C465E46D9461CBF0133DBB226
:102A1C0000212846029300F040FE07F10D03CDF88B
:102A2C000CB009936B6901212846C3F34F1800F0D1
:102A3C0015FE034600286FD16B78002BCBD1059B7C
:102A4C0003F04203422BC6D1039B002C08BF434624
:102A5C000393029B9C42C0F0F080B9F1000F40F050
:102A6C000981039B2846590100F017FE0028B2D0BB
:102A7C00029B4FF0000A03F1FF395FFA89F94E46C9
:102A8C004FF00F08002E00F00C810021284600F0BA
:102A9C00E5FD044600289ED04E4518BFB346AA68F3
:102AAC0008BF46F0400B92F8283043F0010382F83F
:102ABC00283080F800B080F80B8080F80CA007F16B
:102ACC000D00FFF73CFE0D220BF01F03013B53439F
:102ADC000022607384F81AA084F81BA0D7F808C0F1
:102AEC000499994240F2CE801CF80310042A5FFA34
:102AFC0082FE02F1010000F2CB8004EB4202A2F84C
:102B0C0001100D28024603F10103E9D1013EF6B292
:102B1C00B8E74FF0010985E70278E52A00D07AB9C9
:102B2C000399002C08BF4146039102998C423CBF8B
:102B3C000134E4B2002A82D0E52A05D1002671E7DF
:102B4C0002998C4238BF00242E2AF7D0D97A0F294B
:102B5C0049D116BB12F040063FF464AF02F01F06D9
:102B6C00B24693F80DB00D220AF1FF3802FB08F8BB
:102B7C00049A4245E2D9A2EB08020792002202EB2A
:102B8C00080108911846D1B2FFF7B8FD07998A429F
:102B9C000DD1002818BF002644E70AF1FF3A5FFA6E
:102BAC008AFA5245CAD15A7B5A45DCD0C6E7FF286F
:102BBC00C4D8C0B2A0F141011929DDF820C0B96810
:102BCC0098BF203011F80C1098BFC0B2A1F1410C85
:102BDC00BCF1190F9CBF2031C9B28142AED1013278
:102BEC000D2ACCD11EE70A07A8D45EB1BAF1010FA9
:102BFC007FF4F1AE1846FFF7A2FD58457FF4EBAE1B
:102C0C00B1460DE00B221846099903F011FD00287E
:102C1C007FF408AF97F8009019F001097FF479AFB1
:102C2C00059B1B063FF5D7AE42462946059B0698E9
:102C3C00CDF8009000F074FDCEE60021284600F09F
:102C4C000DFDA0B96B78002B7FF4C5AE284600F0C3
:102C5C0003FC00283FF4BFAEAB681B79012B3FF699
:102C6C00FCAE029B1034E4B2A342EFD8F5E601347B
:102C7C00E4B2EEE639462846FFF74EFE00287FF414
:102C8C00F0AEA8E614BF4FF0FF31002189B22DE75A
:102C9C00BEF10A0F94BF04EB420204EB4002918098
:102CAC002FE731462846D5F8148000F0D7FC0446AF
:102CBC0000283FF490AE2022314603F0D7FCD7F821
:102CCC000D302360D7F811306360B7F815302381CD
:102CDC00FB7DA3723B7803F0180323730F4B1B6827
:102CEC009BB104F10E0104F110009847238AC8F33C
:102CFC004F1863822383E389E382AA6892F8283011
:102D0C0043F0010382F828308EE721232374282313
:102D1C0063740823A673E373E8E700BFF006002092
:102D2C0003685B6918470368DB68184710B50379BB
:102D3C0004466BB10121407902F0F1FBFF212068C0
:102D4C00FFF7EEFF206803689B6898470023237108
:102D5C0010BD38B50579044655B90068E1790368AA
:102D6C005B6898472946607902F0D9FB01232371EF
:102D7C0038BDF8B504460D46164601F03BF807463B
:102D8C002068FFF7D0FFFF2820720CD101F032F839
:102D9C00C31BB3F5967FF3D911232046A371FFF71C
:102DAC00C5FF0020F8BDFE2801D00F23F5E72068F1
:102DBC003246036829461B699847207208B11C23C8
:102DCC00EBE72068FFF7AFFF2068FFF7ACFF0120AF
:102DDC00E8E770B506460C4601F00CF8054630687D
:102DEC00FFF7A1FFFF2806D001F004F8431BA34214
:102DFC00F5D3002070BD0120FCE7F7B5037904463C
:102E0C000D4601920BB9FFF7A4FF4FF41671204643
:102E1C00FFF7DFFF206845F04001FFF781FF032635
:102E2C0001AFB95D2068FFF77BFF013EF9D2002DA1
:102E3C000CBF952187212068FFF772FF0C2D02D162
:102E4C002068FFF770FF00252068FFF76CFF030672
:102E5C00207203D50135B5F5807FF5D103B0F0BDF7
:102E6C00F8B51F460023427143728371016004461A
:102E7C0000F0C0FF05462068617903680A261B68CC
:102E8C00984780212068E17103685B689847FF21AF
:102E9C002068013EFFF744FF16F0FF06F7D12068CB
:102EAC0003689B689847002220461146FFF7A5FF50
:102EBC0001280CD000F09EFF401BB0F5FA6FF2D940
:102ECC0001232046A371FFF731FF0020F8BD4FF41A
:102EDC00D57208212046FFF790FF052816D1012353
:102EEC0000266372002237212046FFF786FF324608
:102EFC0029212046FFF781FF0246F8B100F07AFF46
:102F0C00401BB0F5FA6FEDD90A23DAE704262068E6
:102F1C00FFF709FF013E16F0FF062072F7D1AA2831
:102F2C0004D102234FF080466372DBE700F062FFAE
:102F3C00401BB0F5FA6FCAD90223C2E7637A022BA1
:102F4C0019D13A212046FFF758FF08B10823B8E7FA
:102F5C002068FFF7E8FE00F0C000C02808BF03237C
:102F6C00206808BF6372FFF7DEFE2068FFF7DBFE08
:102F7C002068FFF7D8FE2046FFF7D8FE0120E77146
:102F8C00A4E738B5437A1546032B18BF49020A4605
:102F9C0011210446FFF731FF30B10423A371204601
:102FAC00FFF7C4FE00250BE029464FF400722046C3
:102FBC00FFF7DFFE05460028F1D02046FFF7B6FEEE
:102FCC00284638BD10B5437A0A46032B18BF4A026F
:102FDC0012210446FFF711FF30B105232046A371DF
:102FEC00FFF7A4FE002010BD0120FCE710B5002265
:102FFC000C210446FFF701FF30B103232046A371D7
:10300C00FFF794FE002010BD2046FFF78FFE012035
:10301C00F9E7F8B5044616461F46FFF7D3FF68B12B
:10302C000025ABB29F4206EB452109D94FF4007243
:10303C002046FFF79EFE01350028F2D10020F8BD96
:10304C002046BDE8F840FFF7D1BF38B50446154619
:10305C000068FFF765FE20684FF40072036829468C
:10306C009B699847FF212068FFF75AFEFF212068D3
:10307C00FFF756FE2068FFF756FE207200F01F0087
:10308C00052806D013232046A371FFF74FFE00201E
:10309C0038BD0120FCE738B5437A1546032B18BF21
:1030AC0049020A4618210446FFF7A7FE30B1062351
:1030BC00A3712046FFF73AFE00250AE02A46FE21BE
:1030CC002046FFF7C2FF05460028F2D02046FFF746
:1030DC002DFE284638BD70B504460E460579FFF71F
:1030EC0038FE4FF416712046FFF773FE30B91723E4
:1030FC00A3712046FFF71AFE00250CE03246FC2196
:10310C002046FFF7A2FF06460028F2D01DB9204644
:10311C00FFF70CFE3546284670BD70B504461646C2
:10312C000D4600223721FFF768FE32461721204654
:10313C00FFF763FE30B109232046A371FFF7F6FDBC
:10314C00002070BD637A1921032B18BF6D022A462B
:10315C002046FFF752FE08B10723EDE70120F0E708
:10316C0038B50446FFF7F5FD4FF416712046FFF70E
:10317C0030FE78B1FD212068FFF7D2FD4FF41671B7
:10318C002046FFF726FE054620B12046FFF7CEFD70
:10319C00284638BD12232046A371FFF7C7FD002532
:1031AC00F6E7F8B517461A4604461E46FFF7B5FF74
:1031BC0070B10025B542204607EB452104D0FFF73E
:1031CC008AFF28B10135F5E7BDE8F840FFF7C8BF25
:1031DC002046FFF7ABFD0020F8BD00000122014B9B
:1031EC001A707047DC060020704700000279024B11
:1031FC0053F8220001F074B8E006002070B50546C3
:10320C000C460379194E012156F8230001F077F88A
:10321C002B79002156F8230001F080F8022C1BD9E1
:10322C00042C1BD9082C1BD9102C1BD9202C1BD9D6
:10323C00412C34BF282130212B7956F8230001F082
:10324C002DF929793C2301FB044418214C43B4FB90
:10325C00F3F4074B1C6070BD0021EDE70821EBE790
:10326C001021E9E71821E7E72021E5E7E006002037
:10327C00EC0600200279034BFF2153F8220001F0E9
:10328C0031B900BFE00600200279024B53F822004E
:10329C0001F028B9E006002073B50E460021134654
:1032AC000A4A05790A4800920A4C324650F8250021
:1032BC00217001F01DF92378002BFCD0064B186807
:1032CC0008B100F08FFD002002B070BDE931080894
:1032DC00E0060020DC060020EC06002037B5134683
:1032EC00002205790A480B4C00900B48227050F8CC
:1032FC00250001F0FDF82378002BFCD0074B186853
:10330C0020B103B0BDE8304000F06CBD03B030BD5F
:10331C00E9310808DC060020E0060020EC0600205D
:10332C0010B50446006818B100F07CFD0023236042
:10333C0010BD000008B50248FFF7F2FF08BD00BF42
:10334C00D806002008B50248FFF7EAFF08BD00BF09
:10335C00C806002008B50248FFF7E2FF08BD00BF11
:10336C00B806002038B5224D2978BFF35B8F11F0D9
:10337C0001040DD12846FCF78EFE48B121461D48AC
:10338C0000F090FF2846FCF78BFE1B4803F04AF92F
:10339C00184B1A4C1A4D23602B78BFF35B8FDA074E
:1033AC000DD42846FCF777FE48B10121154800F0F2
:1033BC0079FF2846FCF774FE134803F033F9114BE0
:1033CC00124D63602B78BFF35B8FDB070DD428465F
:1033DC00FCF761FE48B102210D4800F063FF28465E
:1033EC00FCF75EFE0B4803F01DF9094BA36038BDDA
:1033FC00CC060020D006002041330808E00600204F
:10340C00BC060020C006002051330808AC06002082
:10341C00B00600206133080838B50D460446242256
:10342C00002103F023F9A560EB79102B03D0202B9E
:10343C0006D0002038BD202301202370A070F9E7AE
:10344C004023F9E78378016963F07F03837000F10F
:10345C001002806800F0C3BB2DE9F04101780446EE
:10346C0011F0200503D000263046BDE8F0814269FA
:10347C00174B9A42F7D2FFF7E5FF06460028F2D029
:10348C002169A06800F04CFB0746A068052239466C
:10349C00283000F022FB80460028E4D029464FF467
:1034AC00007203F0E3F80125A0680279AA4209D959
:1034BC00036842465B68E91998470028D3D0013568
:1034CC00EDB2F1E7636903EB42236361CCE700BF24
:1034DC0000FE1F0010B5044680680A462830A1691A
:1034EC0000F0FBFA20B1A38803F00F0300EB4310AC
:1034FC0010BD03780BB9FFF78FBF002070472DE983
:10350C00F74F0378044688461546002B5DD0827829
:10351C00D1075AD51A072DD5C36942699B1A9D420A
:10352C0028BF1D462E464FF0000904F1100B002E4B
:10353C0000F09080227863699706A068C3F3080AAC
:10354C004FEA53211FD5006A0144A068BAF1000F5D
:10355C0042D1B6F5007F3FD3026B91423CD0B6F519
:10356C00806F52D2036842461B68984768B34FF489
:10357C00007744E09B06D5D583681A894369C3EB71
:10358C0042139BB2CBE790F8059009EA0109BAF116
:10359C00000F08D1B9F1000F05D15BB953064CBF30
:1035AC00036A236A23612169A06800F0B9FA09EB68
:1035BC000001CAE75A46216900F0B8FA002804DB7A
:1035CC00F1D1237813F0700F44D163784FF0FF30B2
:1035DC0043F0020363703EE0CAF50077B7424FF048
:1035EC00000200F1280028BF374600F076FA0028C8
:1035FC00EBD000EB0A013A46404603F029F8636928
:10360C00B8443B446361F61B91E72778C6F3472324
:10361C00BF0606D40779A7EB0907FFB2BB4228BF48
:10362C003B4691424FEA432708D2A0680268D2F881
:10363C0008A04246D0470028E1D1C6E71A448A4286
:10364C00F3D9CDE90013FFF76DF8DDE9001300287D
:10365C00EBD1BAE7A81B03B0BDE8F08F37B54369CF
:10366C00044613F4F07FC3F3431500D099B901223B
:10367C0020460DF10701FFF742FF40B2012802D0AE
:10368C00002003B030BD63691F33A0686361343020
:10369C0000EB4510F5E72033F7E72DE9F041027810
:1036AC0004460D46076962B14069884202D019B9D7
:1036BC0021616561012006E0160706D5E3698B429E
:1036CC000BD200202761BDE8F081910605D5A368D7
:1036DC001B89B5EB431FECD9F3E7D4F808C0431EA4
:1036EC009CF8066006F109016E1ECB40CE40B34239
:1036FC0000D898B953064CBFDCF82030236A2361FC
:10370C0004F11008002ED4D042462169A06800F0C4
:10371C000DFA002806F1FF36F4DCD2E7F61AEFE7D3
:10372C00F8B50F4604461546002124221E4602F029
:10373C009DFFB868A580A0603B6A05F00F05E360AB
:10374C006B0100EB451595F83F20170702D50020BB
:10375C002070F8BD02F01702227095F83F1011F09E
:10376C00180F04BF42F0080222709DF8182016F0C2
:10377C00320FE27004D02278D506E8D4D107E6D413
:10378C0006F00F02A270026B0344A261B3F848204A
:10379C00B3F84E1041EA0241F2060DD539B9A378BF
:1037AC0063F07F03A370B3060AD40120D1E700F0C5
:1037BC0052FA0028F3D1CAE721621B6DE361F2E7EC
:1037CC002046E169FFF769FF0028EED1BFE7000052
:1037DC0038B5037804460BB9012038BD90F9023096
:1037EC00002B23DA0121FFF775FE054628B9637813
:1037FC00002043F001036370EFE70378E52BF6D06C
:10380C0023781B0744BFE369C361236A4383638C3A
:10381C008382094B1B682BB100F1160118309847B5
:10382C002B8B6B82A37803F07F03A370A068FEF749
:10383C0079FF0028DBD0CFE7F006002010B5044656
:10384C00FFF7C6FF0023237010BDF0B51F46002301
:10385C0093B00993037806460C46019213B10020ED
:10386C0013B0F0BD0B7813F0700FF8D013782F2B2A
:10387C0012D1019A13782F2B02D101320192F8E761
:10388C00A1681BB93046FFF734FEE9E709A8FFF73A
:10389C00C3FD0028E3D009AC019801AA03A9FEF7E7
:1038AC005DFF0028DBD0019B1B789BB101232146D7
:1038BC00304603AAFFF784F80028D0D0354609AC6F
:1038CC000FCD0FC40FCD0FC42B6830462360FFF70C
:1038DC00B5FFE0E73B462146304603AAFFF770F8F8
:1038EC00BEE700002DE9F047037804461D07894622
:1038FC0017465BD58378990758D55A0751D4636915
:10390C00DB43BB4252D3B84604F1100A6369B8F1E9
:10391C00000F00F08F80A068C3F30805467916EA03
:10392C0053260ED16DB92169002946D0524600F0BC
:10393C00FDF800283ADB04D12046FFF783FD002870
:10394C0034D02169A06800F0EBF83118A06815B9E3
:10395C00B8F5007F3FD2C5F50076464528BF4646F0
:10396C00002D36D16269E3699A4234BF01220522E7
:10397C00283000F0B2F8C8B12844324649463544E4
:10398C0002F066FEB5F5007F04D1A068283000F087
:10399C007DF858B16369B14433446361A8EB060800
:1039AC00B4E7C169FFF779FE0028A8D163784FF01E
:1039BC00FF3043F0010363704DE0236A3BB92046AE
:1039CC00FFF740FD0028F1D023692362B9E723619A
:1039DC00B7E70122CCE7B8F5806F026B19D30379F6
:1039EC00C8F3472C9B1BDBB2634528BF634691424F
:1039FC004FEA432607D31A448A4282BF4FF0FF3264
:103A0C0080F828500263A0680268D5684A46A84727
:103A1C00BFE7914202BF4FF0FF3380F82850036399
:103A2C00A0684A4603685B6898470028BED04FF4EC
:103A3C000076AFE7E169A278994204D2E36162F0C3
:103A4C007F02A27003E0084B1B68002BF7D1A37810
:103A5C001B0702D43846BDE8F0872046FFF7B8FEB6
:103A6C000028F7D1A2E700BFF006002070B505468C
:103A7C000C46084649B102F04AFE2B680246214624
:103A8C002846BDE87040DB68184770BDF8B5037870
:103A9C000446DA071FD5406804F10C060368324669
:103AAC005B68A1689847054610B900252846F8BD03
:103ABC0023789B0704D4237823F001032370F5E7C4
:103ACC00D4E901070169036832465B6839449847B9
:103ADC000028F0D1E9E70125E8E770B583680446D2
:103AEC008B420E46154609D0FFF7D0FF08B90020CF
:103AFC0070BD6B070AD50023A66023702046227880
:103B0C0005F00305154300F80C5BF1E760683146DE
:103B1C00036804F10C021B6898470028EBD1E6E718
:103B2C0083790239406999400844704770B5C3796C
:103B3C000546202B0C46164618D18169022201EB52
:103B4C00D41100F50D70FFF7C8FF10B94FF0FF301E
:103B5C0070BD04F07F0450F8243023F07043EA6900
:103B6C00934296BF012000203360F1E7102BEDD17A
:103B7C00C1F3072381690222194400F50D70FFF788
:103B8C00ACFF0028E2D0E4B230F81430E7E738B5E7
:103B9C00C3790C46202B154610D18169032201EB09
:103BAC00D41100F50D70FFF798FF08B9002038BD4F
:103BBC0004F07F0440F824500120F8E7102BF5D1D5
:103BCC00C1F3072381690322194400F50D70FFF737
:103BDC0084FF0028EAD0E4B220F81450ECE72DE979
:103BEC00F341054690460F46B9B9C6683446EB69B1
:103BFC000134A34238BF02242846214601AAFFF70C
:103C0C0095FF002804DB01D0019B43B1B442EED1F7
:103C1C000026304602B0BDE8F0810E46E6E76FF0B4
:103C2C00704221462846FFF7B2FF06460028EFD027
:103C3C007FB1224639462846FFF7A9FF0028E7D076
:103C4C006B6A002BA4BF03F1FF336B62C8F8004012
:103C5C00DFE7EC60F4E773B504460D4629462046D1
:103C6C0001AAFFF763FF061E13DB0022294620463C
:103C7C00FFF78DFF68B1636A002BA4BF0133636249
:103C8C00E368AB4288BFE560019D002EE6D102B02F
:103C9C0070BD0020FBE7012370B50022C3604FF01C
:103CAC00FF3304460D46C27100F12806C06280F84D
:103CBC0028200363C0F8380280F83422C0F83C3264
:103CCC00B9B1042901D9002070BD11463046FFF767
:103CDC0004FF0028F7D000EB051393F8AE315B0618
:103CEC00F1D105F11B0100EB0110D0F80650002DAD
:103CFC00E9D0002229463046FFF7EFFE0028E2D03B
:103D0C00B0F80B30B3F5007FDDD1037C022BDAD198
:103D1C00C389002BD7D0417B09264B1E637100232E
:103D2C00A37101232171994207D0013ECBD0A27916
:103D3C005B000132DBB2A271F5E7C18A01B9416ABD
:103D4C002161C3892B44A361B0F8112003EB41031B
:103D5C0023622281B0F81110490101F2FF1103EB2B
:103D6C0051236361B0F8132002B9026AE91AA379EE
:103D7C001144D9404B1CE3614FF0FF33636240F6B2
:103D8C00F473994202D80C23E3719CE74FF6F47359
:103D9C00994289BFC36A1023236220230120E37157
:103DAC0092E7000008B5024B1B689B68019308BDA5
:103DBC00B001040808B5024B1B68DB68019308BD11
:103DCC00B001040808B5024B1B681B69019308BDC0
:103DDC00B001040808B5024B1B685B68019308BD71
:103DEC009C01040808B5024B1B68DB68019308BDF5
:103DFC009C01040808B5024B1B685B69019308BD64
:103E0C009C01040808B5024B1B68DB68019308BDD4
:103E1C00D001040808B5024B1B685B6C019308BD0C
:103E2C00D001040808B5024B1B689B6C019308BDBC
:103E3C00D001040808B5024B1B68DB6C019308BD6C
:103E4C00D001040808B5024B1B685B6D019308BDDB
:103E5C00D001040808B5024B1B685B6A019308BDCE
:103E6C00C401040808B5024B1B689B6A019308BD8A
:103E7C00C401040808B5024B1B68DB6A019308BD3A
:103E8C00C401040808B5024B1B681B6B019308BDE9
:103E9C00C401040808B5024B1B685B6B019308BD99
:103EAC00C401040808B5024B1B689B6B019308BD49
:103EBC00C401040808B5024B1B681B6C019308BDB8
:103ECC00C401040808B5024B1B681B6E019308BDA6
:103EDC00C401040808B5024B1B68DB68019308BDDC
:103EEC00AC01040808B5024B1B689B69019308BD23
:103EFC00AC01040808B5024B1B68DB69019308BDD3
:103F0C00AC01040808B5024B1B681B6A019308BD81
:103F1C00AC01040808B5024B1B685B6A019308BD31
:103F2C00AC01040808B5024B1B689B6A019308BDE1
:103F3C00AC01040808B5024B1B68DB6A019308BD91
:103F4C00AC01040808B5024B1B681B6B019308BD40
:103F5C00AC01040808B5024B1B685B6B019308BDF0
:103F6C00AC01040808B5024B1B681B6C019308BD1F
:103F7C00AC01040808B5024B1B681B6D019308BD0E
:103F8C00AC01040808B5024B1B681B68019308BD03
:103F9C00B401040808B5024B1B689B68019308BD6B
:103FAC00B401040808B5024B1B68DB68019308BD1B
:103FBC00B401040808B5024B1B681B69019308BDCA
:103FCC00B401040808B5024B1B685B69019308BD7A
:103FDC00B401040808B5024B1B68DB69019308BDEA
:103FEC00B401040808B5024B1B681B6A019308BD99
:103FFC00B401040808B5024B1B685B6A019308BD49
:10400C00B401040808B5024B1B689B6A019308BDF8
:10401C00B401040808B5024B1B689B6B019308BDE7
:10402C00B401040808B5024B1B68DB6B019308BD97
:10403C00B401040808B5024B1B68DB6B019308BD87
:10404C002000060808B5024B1B681B68019308BDCD
:10405C001C00060808B5024B1B685B68019308BD81
:10406C001C00060808B5024B1B681B69019308BDB0
:10407C001C00060808B5024B1B685B69019308BD60
:10408C001C00060808B5024B1B689B69019308BD10
:10409C001C00060808B5024B1B68DB69019308BDC0
:1040AC001C00060808B5024B1B681B6A019308BD6F
:1040BC001C00060808B5024B1B685B68019308BD21
:1040CC00A401040808B5024B1B685B69019308BD89
:1040DC00A401040808B5024B1B68DB6A019308BDF8
:1040EC00A401040808B5024B1B68DB6C019308BDE6
:1040FC00A401040808B5024B1B685B6D019308BD55
:10410C00A401040808B5034B1B68D3F89030019345
:10411C0008BD0000A401040808B5034B1B68D3F8C4
:10412C009C30019308BD0000A401040808B5024BA3
:10413C001B685B68019308BDC801040808B5024BF5
:10414C001B689B68019308BDC801040808B5024BA5
:10415C001B68DB68019308BDC801040808B5024B55
:10416C001B681B69019308BDC801040808B5024B04
:10417C001B685B69019308BDC801040808B5024BB4
:10418C001B689B69019308BDC801040808B5024B64
:10419C001B68DB69019308BDC801040808B5024B14
:1041AC001B681B6A019308BDC801040808B5024BC3
:1041BC001B681B6B019308BDC801040808B5024BB2
:1041CC001B685B6B019308BDC801040808B5024B62
:1041DC001B681B6C019308BDC801040808B5024B91
:1041EC001B685B6C019308BDC801040808B5024B41
:1041FC001B685B69019308BDCC01040808B5024B30
:10420C001B681B6A019308BDCC01040808B5024B5E
:10421C001B68DB6B019308BDCC01040808B5024B8D
:10422C001B681B68019308BDA001040808B5024B6C
:10423C001B685B68019308BDA001040808B5024B1C
:10424C001B68DB68019308BDA001040808B5024B8C
:10425C001B68DB69019308BDA001040808B5024B7B
:10426C001B68DB6A019308BDA001040808B5024B6A
:10427C001B681B6B019308BDA001040808B5024B19
:10428C001B681B6C019308BDA001040808B5024B08
:10429C001B685B6C019308BDA0010408FFF7D2BD3D
:1042AC00FFF7C8BD70B5002604460D4640F8086FF0
:1042BC00FFF7B0FD28462570FFF78CFE20466660A0
:1042CC0070BD10B504468068FFF7EAFF20784FF602
:1042DC00FF71FFF757FEA068BDE81040FFF7DEBF87
:1042EC0038B504460D468068FFF7DAFF207829467A
:1042FC00FFF748FEA068BDE83840FFF7CFBF38B5E0
:10430C0004460D468068FFF7CBFF20782946FFF75F
:10431C0041FEA068BDE83840FFF7C0BF38B5044681
:10432C000D468068FFF7BCFF20782946FFF73AFE60
:10433C00A068BDE83840FFF7B1BF8068FFF7AEBF9B
:10434C0030B50024400818601868E5B2884206D9D8
:10435C000134082C02D040081860F5E70725024B01
:10436C005B5D137030BD00BF0C6A08082DE9F0438B
:10437C0006468FB080680C46FFF792FF142200218E
:10438C0009A8357802F072F90B230022284609A9F6
:10439C00ADF82430FFF72EFE9DF82D3013B19DF8AB
:1043AC002C5055B100270125B946B84623795DB18B
:1043BC00C3B100200FB0BDE8F083DDF830809DF86C
:1043CC0034909DF83570F1E7002B35D1A368434547
:1043DC0008D18DF820908DF82170BDF82020A3898C
:1043EC009A42E6D00023A1688DF80F300A9804ABEE
:1043FC000DF10F02FFF7A4FF217985B989B9A368E4
:10440C0043450ED38DF820908DF82170BDF82020F7
:10441C00A3899A4205D1049B434502D1C9E70029DF
:10442C00F9D100230193637B9DF80F200093237B2C
:10443C003078FFF7F7FDBCE72B462A460121CDE982
:10444C000055F5E7F0B50025044689B0806802FBFD
:10445C0001F60295FFF724FF2946142203A82778BA
:10446C0002F004F90B232A46384603A9ADF80C30A8
:10447C00FFF7C0FD02AB0DF10702314604988DF831
:10448C000750FFF75DFF9DF807102078FFF792FDAE
:10449C00A068FFF703FF029809B0F0BD38B50446D9
:1044AC0080680D46FFF7FCFE6168A1B100230C4A41
:1044BC0012F8010B854202D00133082BF8D10133DD
:1044CC00DBB201222046D940FFF7BCFFA068BDE853
:1044DC003840FFF7E3BE29462078FFF76BFDF5E780
:1044EC000C6A080808B50078FFF76CFDC0B208BD6F
:1044FC0030B587B00A9D044600950078FFF782FD21
:10450C003DB9207802A9FFF785FD9DF81430DB0733
:10451C00F7D407B030BD000002220020044B1A6013
:10452C00044B054AC3E900009A60FFF7C3BD00BF06
:10453C0004070020F80600200000FFFFF8B506462F
:10454C000D4600248F18BD420CD0336830469B6852
:10455C0015F8011B9847031E01DB1C44F3E7002CE4
:10456C0008BF1C462046F8BD08B5FFF77FFA08BD0A
:10457C0003689B68184708B5FFF778FA08BD38B58B
:10458C000D210546FFF7F4FF0A2104462846FFF7E4
:10459C00EFFF204438BD38B50546FFF767FA0446EF
:1045AC002846FFF7ECFF204438BDFFF7F4BF00238B
:1045BC00012A98BF0A2230B58BB00C468DF82430F6
:1045CC0009A92546B4FBF2F404FB1253DBB2092B08
:1045DC0094BF30333733DBB2AA4201F8013DF0D936
:1045EC00FFF744FA0BB030BD2DE9F74F05461946DD
:1045FC00104692461F469DF8306001F09BFC40B17E
:10460C0051492846FFF732FA0446204603B0BDE86C
:10461C00F08F27F000444FF0FF32504621464B4BB1
:10462C0001F088FC48B94FF0FF3250462146474B09
:10463C0001F062FC08B94649E3E74FF0604250468E
:10464C003946444B01F06CFC08B14349D9E74FF0B3
:10465C00604250463946414B01F044FC0028F4D1ED
:10466C00002200235046394601F03CFC044630B190
:10467C002D212846FFF77CFF044607F100474FF039
:10468C00000B00204FF000083549DFF8D8905FFA96
:10469C008BF39E4206D942464B4601F0DBFA0BF1F6
:1046AC00010BF4E73B46524600F0F4FF8946804686
:1046BC0001F07EFC074601F029F902460B46404604
:1046CC00494600F0E5FF0A228046894628463946CD
:1046DC00FFF76DFF0444002E97D028462249FFF7C0
:1046EC00C5F94FF0000ADFF87CB00444002E8CD0E2
:1046FC0052465B464046494601F082F9804689465F
:10470C0001F02EFC071E1BDA2D212846FFF730FF87
:10471C00034679420A2228460193FFF748FF019B82
:10472C00013E034438461C4401F000F902460B4696
:10473C004046494600F0ACFFF6B280468946D5E7C4
:10474C0039460023E6E700BF146A0808FFFFEF7F35
:10475C00186A0808FFFFEF411C6A0808FFFFEFC149
:10476C000000E03F00002440206A080837B50546E9
:10477C001446084601F0ECF8E4B202460B46284613
:10478C000094FFF731FF03B030BD38B5046805461F
:10479C007CB16368013B63605BB9236820469B680E
:1047AC009847A368013BA3601BB923682046DB68CC
:1047BC009847284638BD0000014B024A1A607047E2
:1047CC0008070020226A0808024B1A68024B1A607C
:1047DC00704700BF300000200C0700200021FFF7BD
:1047EC0071BC10B58368044613B103220146984787
:1047FC00204610BD13B56C460B46024603C884E830
:10480C00030093E8030082E8030094E8030083E8C4
:10481C00030002B010BD00000022014B9A607047EB
:10482C0010070020014B1860704700BF34000020B7
:10483C0008B5174B43B100F009FC03681B69984796
:10484C00002801DDAFF30080124B43B100F0A2FE53
:10485C0003681B699847002801DDAFF300800E4BFD
:10486C000BB1AFF300800D4B0BB1AFF300800C4BD1
:10487C000BB1AFF300800B4B43B100F021FC03688C
:10488C001B699847002801DDAFF3008008BD00BF0D
:10489C00000000000000000000000000000000000C
:1048AC00000000000000000008B5FFF7C1FFFFF793
:1048BC00A1FA014B186008BDAC0A00200548064A55
:1048CC0008B5121A054901F0C3FE054B054A1A60DA
:1048DC0008BD00BF0040024004400240306C080894
:1048EC00004002401E1C279A002307B51A466FF0A1
:1048FC0077010093FFF710FC03B05DF804FB000098
:10490C0007B543880A2B08D0502B0BD1094B1B68D9
:10491C004BB103B05DF804EB1847FFF7E5FF03B0AC
:10492C005DF804FB00231A466FF077010093FFF744
:10493C00F3FBF4E724070020002110B51148FFF722
:10494C00A5FC114B1A68114B9A420CBF0122002294
:10495C000F4B1A7001D0FFF7B1FFFFF73BFA04467B
:10496C0001F08CFE0B4B13B12046AFF300800021FD
:10497C000848FFF74BFCBDE8104000210648FFF744
:10498C00C1BB00BF31480808004002401E1C279ADA
:10499C0020070020000000000D4908087047002087
:1049AC00704710B504461021FBF773FB204610BD71
:1049BC0008B5FFF7F6FF08BD002230B54FF69C7422
:1049CC00026084808D888C800C68858004600A600D
:1049DC0030BD10B504460068FFF728FC204610BD1A
:1049EC0038B5C468F4B12378022B03D104F10C0060
:1049FC00FFF7EFFF656835B12846FFF7F2FE10218F
:104A0C002846FBF746FBA56835B12846FFF7E9FEBB
:104A1C0010212846FBF73DFB2046BDE83840142109
:104A2C00FBF737BB38BD0B6803604B68436013B1B1
:104A3C005A6801325A60704737B5044668460D46CD
:104A4C00FFF7F1FF009B019A23600023626001A82D
:104A5C0001930093FFF799FE35B1281DFFF795FEE2
:104A6C0008212846FBF715FB204603B030BD8268B1
:104A7C0010B50AB900F004FEC368BDE81040184731
:104A8C0008B5006800F11001FFF7F1FF08BD82685E
:104A9C0010B50AB900F0F4FDC368BDE81040184722
:104AAC0008B5006800F11001FFF7F1FF08BD000028
:104ABC0038B500230446036010200D46FBF7E5FAD9
:104ACC0028B10123C0E90133024BC56003602060AB
:104ADC00204638BD4C6A080838B5002383608B68C3
:104AEC0004460D462BB102229847EB68E360AB6895
:104AFC00A360204638BD0000F0B589B00468684654
:104B0C00FFF75AFF4FF00203D4E84F2F002A03D1CE
:104B1C00C4E8413F0029F7D125D104F10C056946C1
:104B2C002846FFF749FF0123BFF35B8F637000201A
:104B3C00BFF35B8F04F1080353E8006F43E80002F6
:104B4C00002AF9D1BFF35B8F6EB1FFF7CBFA78B1C6
:104B5C0029463046FFF78BFF3046FFF742FE102107
:104B6C003046FBF796FA6846FFF733FF09B0F0BD05
:104B7C00314602A8FFF7B0FFE068B4F9105008B155
:104B8C0001F0AAFD06901020ADF81C50FBF77DFA41
:104B9C000546E8B1002787601820FBF776FA044633
:104BAC0088B10146876002A8FFF724FE049BA26827
:104BBC00A360059B0492E26806A9E36004F110006F
:104BCC000592FFF7F9FE084B2C60EB60074BAB60CE
:104BDC0006A8FFF7FEFE02A8FFF703FE00222946F7
:104BEC000348FFF787FAB7E78D4A0808194D0808FC
:104BFC00895208082DE9F0478AB005460C4617463D
:104C0C0098469DF84890FFF7F1FA07AE824638BBFC
:104C1C004FF62E73059005A93046ADF81830FFF706
:104C2C00CBFE1420FBF731FA044648B10223037083
:104C3C000123C0E901AA437031460C30FFF7BCFEDA
:104C4C002846214640F8044BFFF732FF3046FFF769
:104C5C00C0FE05A8FFF7BDFE28460AB0BDE8F087E8
:104C6C000C234FF0000A1420CDE908AA0793FBF798
:104C7C000CFA014628B1C0E901AA80F800A080F81E
:104C8C0001A004A80391FFF713FF1F4B0820089302
:104C9C00FBF7FBF9824610B103A9FFF7C4FE4246AD
:104CAC003946204600965FFA89F3CDF824A0FFF729
:104CBC00A5FAB8B9039B5B7803F0FF0293B94FF6E2
:104CCC009C7305A903A80592ADF81830FFF714FFE3
:104CDC0005A8FFF77EFE05A80999FFF7ADFE06A80B
:104CEC00FFF753FD03A905A8FFF79DFE059B069A48
:104CFC002B6000236A6006A806930593FFF745FD19
:104D0C0004A8FFF742FDA7E7954D0808012AF8B55E
:104D1C00054603D10B6803600020F8BD022A10D0B1
:104D2C00032AF9D10468002CF6D004F11000FFF727
:104D3C0050FE2046FFF755FD18212046FBF7A9F938
:104D4C00EAE718200E68FBF7A0F9044650B131468B
:104D5C00FFF7C2FE3069B6F9147008B101F0BCFC63
:104D6C002061A7822C60D7E738B5002383608B685D
:104D7C0004460D462BB102229847EB68E360AB6802
:104D8C00A360204638BD0000F0B5044689B00D463E
:104D9C0001A81146FFF750FEA4B124B21DB128465C
:104DAC0001F09AFC054601A803A90395ADF8104043
:104DBC00FFF7A2FE03A8FFF70CFE02A8FFF7E5FC25
:104DCC0009B0F0BD0123019DD5E84F2F002A03D176
:104DDC00C5E8413F0029F7D1EFD12B73BFF35B8FAF
:104DEC006B70BFF35B8F2B1D53E8006F43E80042E1
:104DFC00002AF9D1BFF35B8F002EDED02046FFF7DF
:104E0C0071F9074660B1304605F10C01FFF73FFE22
:104E1C003046FFF7E6FC10213046FBF73AF9CCE7B9
:104E2C00314603A8FFF7A0FF2B7B10208DF81C3018
:104E3C00FBF72BF90546D0B187601420FBF725F959
:104E4C00044678B10146876003A8FFF7D3FC059BA5
:104E5C00A268A360069B0592E268E3609DF81C3093
:104E6C0006922374064B2C60EB60064BAB6003A8D8
:104E7C00FFF7B7FC002229460348FFF73BF9C7E7C9
:104E8C00AD4A0808994E080889520808012A70B5DD
:104E9C00044603D10B680360002070BD022A0CD0BD
:104EAC00032AF9D10468002CF6D02046FFF799FCB0
:104EBC0014212046FBF7EDF8EEE714200E68FBF703
:104ECC00E4F8054620B13146FFF74EFF337C2B74D6
:104EDC002560E1E77047F8B50E46002400F108079D
:104EEC00051D17F8011D0A223046FFF760FBAF4283
:104EFC00044401D12046F8BD002CF2D02E213046BE
:104F0C00FFF736FB0444ECE710B504460821FBF729
:104F1C00C0F8204610BD0000024A02600022426028
:104F2C00704700BF686A0808024A02600A6842605B
:104F3C00704700BF686A0808014AC0E90021704741
:104F4C00686A080810B59DF8084044EA032444EA4E
:104F5C00024444EA0164446010BD000013B5044CE3
:104F6C0004609DF810400094FFF7ECFF02B010BDF8
:104F7C00686A0808417470477047704708B500218B
:104F8C00007CFFF77FF840EAE07008BD08B501210E
:104F9C00007CFFF777F840EAE07008BD08B5007CAC
:104FAC00FFF768F820EAE07008BD08B5007CFFF751
:104FBC0059F820EAE07008BD38B50446007C0D466F
:104FCC00FFF758F8002801DC607C28B12946207CCA
:104FDC00FFF760F820EAE07038BD007CFFF762B89C
:104FEC0010B504461421FBF754F8204610BD704749
:104FFC0010B54FF47A73044608460021C4E9011336
:10500C00044B20742360012311466374FFF71AF8D4
:10501C00204610BD7C6A08080022007CFFF71AB8F5
:10502C0010B504461422002101F020FB054B20464C
:10503C006360054BE36040F20113238181232382DB
:10504C0010BD00BF580700205908002030B50E4D88
:10505C0087B001A8FFF7E4FF2978BFF35B8F11F04D
:10506C0001040ED12846FBF716F850B1214601AACF
:10507C000648FFF7BDFF2846FBF712F8044801F07D
:10508C00D1FA024807B030BD2807002030070020B5
:10509C00854F080810B504461422002101F0E6FAE9
:1050AC00054B20466360054BE36040F201132381FE
:1050BC008123238210BD00BFDA080020DB09002009
:1050CC0010B50E4C86B001A8FFF7E4FF2378BFF3B0
:1050DC005B8FDB070ED42046FAF7DDFF50B10121C0
:1050EC0001AA0748FFF784FF2046FAF7D9FF0548C5
:1050FC0001F098FA024806B010BD00BF2C07002042
:10510C0044070020FB4F0808002240681146FFF7B7
:10511C0025B8F0B5002685B0044610460F46154656
:10512C00039601F0F4FA7B6881B20096284603AA34
:10513C00FEF780FF30B131462046FFF7FDFE2046DA
:10514C0005B0F0BD204603A9FFF7EEFEF7E70022FD
:10515C0040681146FFF722B8002240681146FFF75D
:10516C002DB800224068FFF721B80022406881F07A
:10517C000101FFF70BB8002340681A461946FEF7E9
:10518C00FDBF002340681A461946FEF7EFBF002208
:10519C0040681146FEF7D2BF002202214068FEF79C
:1051AC00D5BF002340681A46FEF7C0BF10B52824AF
:1051BC00074B22461846002101F058FA4FF0FF32F7
:1051CC0042600422034B04805A60034A1A6010BDEB
:1051DC00640A00205C0A0020AC6A0808704741741D
:1051EC00704708B5007CFEF765FE20EAE07008BD4C
:1051FC0008B5007CFEF736FE20EAE07008BD08B565
:10520C00007CFEF73FFE40EAE07008BD08B5007C6C
:10521C00FEF730FE40EAE07008BD007CFEF73ABEB7
:10522C0070B5467C04460D462EB12946207CBDE85F
:10523C007040FEF70FBE007CFEF73CFE0028F4DC4D
:10524C00304670BD10B504461421FAF722FF2046F3
:10525C0010BD000010B54FF47A7304460846114691
:10526C000022C4E90123044B2074236001236374DE
:10527C00FEF728FE204610BDE86A080810B58368C2
:10528C0004460BB900F0FCF9C3689847A3681BB13E
:10529C0003222146204698472046BDE810401021A5
:1052AC00FAF7F7BE7047F8B5064615460C468F1848
:1052BC00BC4206D0336830469B6814F8011B9847F3
:1052CC00F6E72846F8BD0022007CFEF71BBE002145
:1052DC00007CFEF71FBE0021007CFEF723BE0021E0
:1052EC00007CFEF727BE0021007CFEF72BBE10B51C
:1052FC0004461421FAF7CDFE204610BD10B54FF42C
:10530C007A73044608460021C4E90113034B114685
:10531C0023602074FEF726FE204610BD186B08088B
:10532C000023007C1A461946FEF7D4BD7FB5002237
:10533C001423CDE90122ADF804300B78007C8DF8F4
:10534C0008304B680393CB6804930B7A01A905933F
:10535C00FEF710FE07B05DF804FB1FB5003B8DF89F
:10536C0000104FF0640118BF0123039169460192AC
:10537C008DF80830FFF7DAFF05B05DF804FB00226A
:10538C00007CFEF7AFBD0022007CFEF7B3BD01210F
:10539C00FFF7F9BF002340681A46FEF7C7BE00228C
:1053AC0002214068FEF7D2BE002240681146FEF78B
:1053BC00C5BE002240681146FEF7D0BE00234068EF
:1053CC001A461946FEF7D2BE002340681A46194603
:1053DC00FEF7D4BE00214068FEF7F8BE00214068FD
:1053EC00FEF7FCBE0022406881F00101FEF7CEBE44
:1053FC0000224068FEF7DABE002240681146FEF734
:10540C00DDBE002240681146FEF7C8BE70B51546D9
:10541C00002686B0044604A8FFF77EFD28460396B6
:10542C0001F075F90A4B009681B25B68284603AA15
:10543C00FEF700FE30B131462046FFF77DFD2046D9
:10544C0006B070BD204603A9FFF76EFDF7E700BF5D
:10545C005C0A0020024B034A1A6000225A60704713
:10546C008C0A0020406B0808024B986808B1FEF7C4
:10547C00D9BC7047D00600202E2870B5044601D93F
:10548C00002070BDA0F10D03022B0BD9012824D8EC
:10549C0000F0D0F80021007CFEF75CFD80F00100EC
:1054AC00C0B2EEE7124E3178BFF35B8F11F00105FD
:1054BC000DD13046FAF7EFFD48B129460D48FEF7FD
:1054CC00F1FE3046FAF7ECFD0B4801F0ABF8094B56
:1054DC001878FEF787FD0028D2D1123C012C05D894
:1054EC0000F058F8007CFEF7DDFCD7E70120C8E798
:1054FC00CC060020D0060020755408082E2838B59C
:10550C0004460D460AD8FF2908D0FFF7B5FF28B18D
:10551C0029462046BDE83840FEF744BC38BD38B5B6
:10552C0004460D46FEF746FCFF2810D0062804D88A
:10553C004D2323FA00F0C30709D42046FFF79CFF44
:10554C0028B129462046BDE83840FEF73BBC38BDA3
:10555C007047000070B5142504462A46002101F05E
:10556C0085F825808025074E2846314625812582E1
:10557C0000F084F831466060284600F07FF8E06067
:10558C00204670BD746B080810B50446FFF7E2FFA7
:10559C00204610BD30B50E4D87B02978BFF35B8F18
:1055AC0011F0010411D12846FAF775FD68B101A874
:1055BC00FFF7EAFF214601AA0648FFF74BFE2846F3
:1055CC00FAF76EFD044801F02DF8024807B030BD23
:1055DC00940A0020980A00205D550808002307B59E
:1055EC001A46194600930348FFF7B8FC03B05DF860
:1055FC0004FB00BFB00A00207047000070B51423F4
:10560C002025084E04460360314685600561284616
:10561C0000F034F831466060284600F02FF8E06066
:10562C00204670BD746B080810B50446FFF7E6FF02
:10563C00204610BD30B50E4D87B02978BFF35B8F77
:10564C0011F0010411D12846FAF725FD68B101A823
:10565C00FFF7EAFF214601AA0648FFF74FFE28464E
:10566C00FAF71EFD044800F0DDFF024807B030BD1C
:10567C00B80A0020BC0A002005560808FAF707BD36
:10568C0008B5FEF7EBFD000081F0004102E000BF21
:10569C0083F0004330B54FEA41044FEA430594EAE6
:1056AC00050F08BF90EA020F1FBF54EA000C55EA21
:1056BC00020C7FEA645C7FEA655C00F0E2804FEAF2
:1056CC005454D4EB5555B8BF6D420CDD2C4480EAD4
:1056DC00020281EA030382EA000083EA010180EA04
:1056EC00020281EA0303362D88BF30BD11F0004F52
:1056FC004FEA01314FF4801C4CEA113102D0404288
:10570C0061EB410113F0004F4FEA03334CEA1333C2
:10571C0002D0524263EB430394EA050F00F0A780DA
:10572C00A4F10104D5F1200E0DDB02FA0EFC22FAD5
:10573C0005F2801841F1000103FA0EF2801843FAC9
:10574C0005F359410EE0A5F120050EF1200E012ABA
:10575C0003FA0EFC28BF4CF0020C43FA05F3C018F8
:10576C0051EBE37101F0004507D54FF0000EDCF171
:10577C00000C7EEB00006EEB0101B1F5801F1BD31A
:10578C00B1F5001F0CD349085FEA30004FEA3C0C1E
:10579C0004F101044FEA445212F5800F80F09A8014
:1057AC00BCF1004F08BF5FEA500C50F1000041EB18
:1057BC00045141EA050130BD5FEA4C0C404141EB1C
:1057CC000101013C28BFB1F5801FE9D291F0000F17
:1057DC0004BF01460020B1FA81F308BF2033A3F1C6
:1057EC000B03B3F120020CDA0C3208DD02F1140CBD
:1057FC00C2F10C0201FA0CF021FA02F10CE002F1F8
:10580C001402D8BFC2F1200C01FA02F120FA0CFCF0
:10581C00DCBF41EA0C019040E41AA2BF01EB045139
:10582C00294330BD6FEA04041F3C1CDA0C340EDC37
:10583C0004F11404C4F1200220FA04F001FA02F37A
:10584C0040EA030021FA04F345EA030130BDC4F138
:10585C000C04C4F1200220FA02F001FA04F340EA2D
:10586C000300294630BD21FA04F0294630BD94F0DE
:10587C00000F83F4801306BF81F480110134013DC5
:10588C004EE77FEA645C18BF7FEA655C29D094EA36
:10589C00050F08BF90EA020F05D054EA000C04BFB4
:1058AC001946104630BD91EA030F1EBF002100209F
:1058BC0030BD5FEA545C05D14000494128BF41F03E
:1058CC00004130BD14F580043CBF01F5801130BDA2
:1058DC0001F0004545F0FE4141F470014FF000002D
:1058EC0030BD7FEA645C1ABF194610467FEA655CDE
:1058FC001CBF0B46024650EA013406BF52EA033580
:10590C0091EA030F41F4002130BD00BF90F0000F6D
:10591C0004BF0021704730B54FF4806404F13204A9
:10592C004FF000054FF0000150E700BF90F0000F62
:10593C0004BF0021704730B54FF4806404F1320489
:10594C0010F0004548BF40424FF000013EE700BF59
:10595C0042004FEAE2014FEA31014FEA02701FBFE9
:10596C0012F07F4393F07F4F81F06051704732F01B
:10597C007F4208BF704793F07F4F04BF41F4002172
:10598C00704730B54FF4607401F0004521F00041D0
:10599C001CE700BF50EA010208BF704730B54FF05A
:1059AC0000050AE050EA010208BF704730B511F05B
:1059BC00004502D5404261EB41014FF4806404F193
:1059CC0032045FEA915C3FF4D8AE4FF003025FEA19
:1059DC00DC0C18BF03325FEADC0C18BF033202EB9D
:1059EC00DC02C2F1200300FA03FC20FA02F001FAF7
:1059FC0003FE40EA0E0021FA02F11444BDE600BF9A
:105A0C0070B54FF0FF0C4CF4E06C1CEA11541DBF48
:105A1C001CEA135594EA0C0F95EA0C0F00F0DEF813
:105A2C002C4481EA030621EA4C5123EA4C5350EAF8
:105A3C00013518BF52EA033541F4801143F4801349
:105A4C0038D0A0FB02CE4FF00005E1FB02E506F0DA
:105A5C000042E0FB03E54FF00006E1FB03569CF02F
:105A6C00000F18BF4EF0010EA4F1FF04B6F5007F35
:105A7C0064F5407404D25FEA4E0E6D4146EB0606A7
:105A8C0042EAC62141EA55514FEAC52040EA5E5030
:105A9C004FEACE2EB4F1FD0C88BFBCF5E06F1ED8DA
:105AAC00BEF1004F08BF5FEA500E50F1000041EB11
:105ABC00045170BD06F0004646EA010140EA0200BE
:105ACC0081EA0301B4EB5C04C2BFD4EB0C0541EAE0
